:100000000C942C010C94B9070C948E070C94630784
:100010000C9438070C940D070C94E2060C94B70668
:100020000C948C060C945D010C945D010C945D01A4
:100030000C945D010C945D010C945D010C945D01C8
:100040000C945D010C945D010C945D010C945D01B8
:100050000C945D010C945D010C945D010C944206BE
:100060000C945D010C940C060C94E2050C945D015B
:100070000C945D010C945D010C945D010C945D0188
:100080000C945D010C945D010C945D010C945D0178
:100090000C945D010C945D010C945D010C945D0168
:1000A0000C945D010C945D010C945D010C945D0158
:1000B0000C945D010C945D010C945D010C945D0148
:1000C0000C945D010C945D010C945D010C945D0138
:1000D0000C945D010C945D010C945D010C945D0128
:1000E0000C945D010C949B010C9407030C94C302C7
:1000F0000C94BD010C94FD020C948C010C94A7038C
:100100000C94EF020C9454050C94F3020C94F5013A
:100110000C94E4070C94E6020C94AF010C94C80212
:100120000C9419030C940F030C94DA020C94010341
:100130000C94DE020C94E9020C94F9020C940B036B
:100140000C9415030C9442020C945F010C94E2028F
:1001500000002200250028002B002E003100340072
:1001600002010000050108010B0100000A0B020951
:100170000C0D0E0807030401000000000000000041
:10018000000000000000000000000000000000006F
:10019000000000000000121110000000000000002C
:1001A000000000000000000000000000000000004F
:1001B00000002100240027002A002D003000330019
:1001C00001010000040107010A01010210202008BA
:1001D00008102040102040800201020108040201A2
:1001E0000102040810204080804020100804020111
:1001F000800402018040201008040201080402016A
:1002000001020408102040800102040810204080F0
:1002100005050505070508080808020202020A0A82
:1002200008080404040401010101010101010303A0
:10023000030303030303040707070C0C0C0C0C0C4B
:100240000C0C0202020206060606060606060B0B48
:100250000B0B0B0B0B0BE40711241FBECFEFD1E2EE
:10026000DEBFCDBF00E00CBF12E0A0E0B2E0E2E9EB
:10027000F3E100E00BBF02C007900D92A237B10777
:10028000D9F723E0A2E7B2E001C01D92AA32B2077B
:10029000E1F711E0CCE2D1E000E006C021970109CE
:1002A000802FFE010E94BF09CB32D10780E00807F2
:1002B000A9F70E941F080C94C7090C940000AF9284
:1002C000BF92CF92DF92EF92FF920F931F93CF9343
:1002D000DF936C017B018B01040F151FEB015E01A5
:1002E000AE18BF08C017D10759F06991D601ED913A
:1002F000FC910190F081E02DC6011995892B79F7C9
:10030000C501DF91CF911F910F91FF90EF90DF908A
:10031000CF90BF90AF900895FC01538D448D252F51
:1003200030E0842F90E0821B930B541710F0CF968F
:10033000089501970895FC01918D828D981761F0C1
:10034000A28DAE0FBF2FB11D5D968C91928D9F5FD8
:100350009F73928F90E008958FEF9FEF0895FC01B7
:10036000918D828D981731F0828DE80FF11D858D6A
:1003700090E008958FEF9FEF0895FC01918D228DFD
:10038000892F90E0805C9F4F821B91098F73992782
:1003900008958CE792E00E94BD0121E0892B09F4C9
:1003A00020E0822F0895FC01A48DA80FB92FB11D64
:1003B000A35ABF4F2C91848D90E001968F7399279B
:1003C000848FA689B7892C93A089B1898C91837079
:1003D00080648C93938D848D981306C00288F38972
:1003E000E02D80818F7D80830895EF92FF920F939F
:1003F0001F93CF93DF93EC0181E0888F9B8D8C8DD1
:1004000098131AC0E889F989808185FF15C09FB7C4
:10041000F894EE89FF896083E889F9898081837087
:10042000806480839FBF81E090E0DF91CF911F9136
:100430000F91FF90EF900895F62E0B8D10E00F5F57
:100440001F4F0F731127E02E8C8D8E110CC00FB62D
:1004500007FCFACFE889F989808185FFF5CFCE01C5
:100460000E94D301F1CFEB8DEC0FFD2FF11DE35A6C
:10047000FF4FF0829FB7F8940B8FEA89FB89808148
:100480008062CFCFCF93DF93EC01888D8823B9F0C2
:10049000AA89BB89E889F9898C9185FD03C080818F
:1004A00086FD0DC00FB607FCF7CF8C9185FFF2CF0C
:1004B000808185FFEDCFCE010E94D301E9CFDF918E
:1004C000CF91089580E090E0892B29F00E94C90126
:1004D00081110E94000080E090E0892B49F080E0CB
:1004E00090E0892B29F00E94000081110E940000F9
:1004F00080E090E0892B49F080E090E0892B29F0A2
:100500000E94000081110E94000080E090E0892B91
:1005100049F080E090E0892B29F00E9400008111D1
:100520000C9400000895282F30E0F901E659FE4FA1
:100530009491F901E653FE4F4491205F3D4FF9013C
:100540002491222309F435C0992311F1915092315D
:10055000F8F4E92FF0E08827EF54FD4F8F4F0C940B
:10056000BF09E202E602C302DA02DE02C802E902C1
:10057000EF02F302F902FD02010307030B03C802B5
:100580000F0315031903809180008F7780938000FB
:10059000E22FF0E0EE0FFF1FE05BFE4FA591B4915C
:1005A0008FB7F894EC91611148C040954E234C935D
:1005B0008FBF0895809180008F7DE8CF809180006B
:1005C000877FE4CF84B58F7784BDE2CF84B58F7DFC
:1005D000FBCF8091B0008F778093B000D9CF80910E
:1005E000B0008F7DF9CF809190008F77809390003D
:1005F000CFCF809190008F7DF9CF80919000877F41
:10060000F5CF8091A0008F778093A000C1CF80911B
:10061000A0008F7DF9CF8091A000877FF5CF8091DA
:1006200020018F7780932001B3CF809120018F7DAF
:10063000F9CF80912001877FF5CF4E2BB8CFCF9394
:10064000DF9390E0FC01E653FE4F2491805F9D4FC5
:10065000FC0184918823D1F090E0880F991FFC0160
:10066000E055FE4FA591B491FC01E05BFE4FC591B2
:10067000D49161110EC09FB7F8948C91E22FE09550
:100680008E238C932881E223E8839FBFDF91CF9153
:1006900008958FB7F894EC91E22BEC938FBFF6CFCF
:1006A0003FB7F8948091770290917802A0917902F7
:1006B000B0917A0226B5A89B05C02F3F19F001968C
:1006C000A11DB11D3FBFBA2FA92F982F8827BC01AC
:1006D000CD01620F711D811D911D42E0660F771FD4
:1006E000881F991F4A95D1F708958F929F92AF92D4
:1006F000BF92CF92DF92EF92FF924B015C010E947A
:1007000050036B017C010E9450036C197D098E0916
:100710009F09683E734081059105A8F321E0821A84
:100720009108A108B10888EEC80E83E0D81EE11C2C
:10073000F11C81149104A104B10429F7FF90EF90FA
:10074000DF90CF90BF90AF909F908F9008950895C5
:100750008EBD00000DB407FEFDCF8EB50895FF924B
:100760000F931F93CF93DF93F82E062F142FC9E119
:10077000D3E060E088890E94930285E00E94A8038C
:100780008F2D0E94A803802F0E94A803812F0E9412
:10079000A80361E08889DF91CF911F910F91FF90AD
:1007A0000C949302FF920F931F93CF93DF93C82F64
:1007B000F62E172F042F60E0809129030E949302E8
:1007C00083E00E94A8038C2F0E94A803CF2DD12F75
:1007D0000C0F1D2F111DC017D10729F080E00E94BA
:1007E000A8038993F8CF61E080912903DF91CF912D
:1007F0001F910F91FF900C9493021F93CF93DF935F
:10080000182FC9E1D3E060E088890E94930283E059
:100810000E94A803812F0E94A80380E00E94A803E1
:10082000182F61E088890E949302812FDF91CF9178
:100830001F9108950F931F93CF93DF9300D01F92C2
:10084000CDB7DEB7182F1092190310921A03109229
:100850001B0310921C0310921D0344E0BE016F5F46
:100860007F4F0E94D2032A81898138E0839FC00193
:100870001124422F50E065E0559547956A95E1F7C0
:10088000840F951F092E000CAA0BBB0B80931A0333
:1008900090931B03A0931C03B0931D0323FF29C057
:1008A00032E0880F991FAA1FBB1F3A95D1F723701A
:1008B000820F911DA11DB11DBA2FA92F982F882736
:1008C0002B81820F911DA11DB11DBA2FA92F982F29
:1008D00088272C81820F911DA11DB11D80931A03C1
:1008E00090931B03A0931C03B0931D0381E080939E
:1008F00019038FEF810F0E94FD03082F84E0810F01
:100900000E94FD0303FF16C091E090932703482F38
:100910004F7040931E036FE173E085E0810F0E94EA
:10092000D2030F900F900F900F90DF91CF911F91F6
:100930000F91089510922703EACFCF93C82F482F25
:1009400060EE8FE00E94AF038FE00E94FD03982FBE
:10095000907E81E09C1301C080E0CF9108950F93B9
:100960001F93CF93DF93082F162FC9E1D3E060E0E8
:1009700088890E94930282E00E94A803802F0E942F
:10098000A803812F0E94A80361E08889DF91CF919D
:100990001F910F910C9493021F93CF93DF9300D07C
:1009A0001F92CDB7DEB7182F613041F51C821B8234
:1009B00088E08A83198260E0809129030E94930273
:1009C00082E00E94A803812F0E94A80389810E94CF
:1009D000A8038A810E94A8038B810E94A8038C81AE
:1009E0000E94A80361E0809129030F900F900F905F
:1009F0000F90DF91CF911F910C94930219821A826C
:100A00001C821B82D8CFFC0101900020E9F73197AE
:100A1000AF01481B590BBC018CE792E00C945F01BD
:100A20008F929F92AF92BF920F931F93CF93DF93BA
:100A3000CDB7DEB7A1970FB6F894DEBF0FBECDBF1E
:100A400019A2423008F44AE08E010F5D1F4F842E38
:100A5000912CB12CA12CA50194010E949D09E62F97
:100A6000B901CA01EA30F4F4E05DD801EE938D01DA
:100A7000232B242B252B79F790E080E0109719F099
:100A8000CD010E940305A1960FB6F894DEBF0FBEFC
:100A9000CDBFDF91CF911F910F91BF90AF909F90ED
:100AA0008F900895E95CE1CF8F929F92AF92BF92B1
:100AB000CF92DF92EF92FF920F931F93CF93DF932A
:100AC00000D000D01F921F92CDB7DEB780E390E038
:100AD0009A838983FE01339686E0DF011D928A9511
:100AE000E9F760E0809129030E94930280EA0E9466
:100AF000A80380E00E94A803182F61E080912903D9
:100B00000E94930210FF19C081E60E941A0440E07F
:100B100061E08CE20E94AF0300911E03AFE1B3E0FD
:100B2000FE0131967F0110E0CF018E199F098017D9
:100B300091075CF48D918193F7CF11FFEDCF81E7A1
:100B40000E941A0440E062E0E4CF80901A03909083
:100B50001B03A0901C03B0901D0382E292E00E9450
:100B6000030540E1C501B4010E94100585E392E050
:100B70000E9403056701C6018E199F09801791071E
:100B800074F4D6016D916D0170E090E080E04AE070
:100B90000E94100588E392E00E940305ECCF28969E
:100BA0000FB6F894DEBF0FBECDBFDF91CF911F917E
:100BB0000F91FF90EF90DF90CF90BF90AF909F90FC
:100BC0008F9008951F920F920FB60F9211240BB6BB
:100BD0000F922F933F934F935F936F937F938F93D6
:100BE0009F93AF93BF93EF93FF938CE792E00E94A4
:100BF000D301FF91EF91BF91AF919F918F917F9121
:100C00006F915F914F913F912F910F900BBE0F907D
:100C10000FBE0F901F9018951F920F920FB60F9254
:100C200011240BB60F922F938F939F93EF93FF9303
:100C3000E0918C02F0918D028081E0919202F0911E
:100C4000930282FD1DC09081809195028F5F8F730A
:100C500020919602821741F0E0919502F0E0E4586D
:100C6000FD4F958F80939502FF91EF919F918F910A
:100C70002F910F900BBE0F900FBE0F901F901895E5
:100C80008081F2CF1F920F920FB60F9211242F93F3
:100C90003F938F939F93AF93BF93809173029091F3
:100CA0007402A0917502B09176023091720223E035
:100CB000230F2D3758F50196A11DB11D2093720207
:100CC0008093730290937402A0937502B09376029E
:100CD0008091770290917802A0917902B0917A0286
:100CE0000196A11DB11D8093770290937802A09385
:100CF0007902B0937A02BF91AF919F918F913F910A
:100D00002F910F900FBE0F901F90189526E8230F7C
:100D10000296A11DB11DD2CF1F920F920FB60F9256
:100D200011240BB60F922F933F934F935F936F93C2
:100D30007F938F939F93AF93BF93EF93FF93E09134
:100D40000E02F0910F021995FF91EF91BF91AF91B3
:100D50009F918F917F916F915F914F913F912F91D3
:100D60000F900BBE0F900FBE0F901F9018951F9203
:100D70000F920FB60F9211240BB60F922F933F9341
:100D80004F935F936F937F938F939F93AF93BF9393
:100D9000EF93FF93E0910C02F0910D021995FF91F2
:100DA000EF91BF91AF919F918F917F916F915F91E3
:100DB0004F913F912F910F900BBE0F900FBE0F9050
:100DC0001F9018951F920F920FB60F9211240BB619
:100DD0000F922F933F934F935F936F937F938F93D4
:100DE0009F93AF93BF93EF93FF93E0910202F09133
:100DF00003021995FF91EF91BF91AF919F918F9150
:100E00007F916F915F914F913F912F910F900BBE0A
:100E10000F900FBE0F901F9018951F920F920FB654
:100E20000F9211240BB60F922F933F934F935F9322
:100E30006F937F938F939F93AF93BF93EF93FF93A2
:100E4000E0910002F09101021995FF91EF91BF919D
:100E5000AF919F918F917F916F915F914F913F9152
:100E60002F910F900BBE0F900FBE0F901F901895F3
:100E70001F920F920FB60F9211240BB60F922F9361
:100E80003F934F935F936F937F938F939F93AF9312
:100E9000BF93EF93FF93E0910A02F0910B02199533
:100EA000FF91EF91BF91AF919F918F917F916F9142
:100EB0005F914F913F912F910F900BBE0F900FBEFE
:100EC0000F901F9018951F920F920FB60F9211243A
:100ED0000BB60F922F933F934F935F936F937F9334
:100EE0008F939F93AF93BF93EF93FF93E09108028B
:100EF000F09109021995FF91EF91BF91AF919F91E8
:100F00008F917F916F915F914F913F912F910F90B2
:100F10000BBE0F900FBE0F901F9018951F920F924F
:100F20000FB60F9211240BB60F922F933F934F934E
:100F30005F936F937F938F939F93AF93BF93EF9341
:100F4000FF93E0910602F09107021995FF91EF914E
:100F5000BF91AF919F918F917F916F915F914F91D1
:100F60003F912F910F900BBE0F900FBE0F901F90CF
:100F700018951F920F920FB60F9211240BB60F9275
:100F80002F933F934F935F936F937F938F939F9391
:100F9000AF93BF93EF93FF93E0910402F0910502AA
:100FA0001995FF91EF91BF91AF919F918F917F9193
:100FB0006F915F914F913F912F910F900BBE0F90CA
:100FC0000FBE0F901F901895CF93DF93ECE7F2E0E0
:100FD0001382128288EE93E0A0E0B0E084839583D0
:100FE000A683B78384E192E09183808385EC90E0CF
:100FF0009587848784EC90E09787868780EC90E0E3
:10100000918B808B81EC90E0938B828B82EC90E0D3
:10101000958B848B86EC90E0978B868B118E128E4D
:10102000138E148EC9E1D3E08DE2888B61E00E94BB
:101030001F0361E08889DF91CF910C94930278942B
:1010400084B5826084BD84B5816084BD85B58260CD
:1010500085BD85B5816085BD80916E00816080937E
:101060006E001092810080918100826080938100E7
:1010700080918100816080938100809180008160F7
:10108000809380008091B10084608093B100809152
:10109000B00081608093B000809191008260809365
:1010A00091008091910081608093910080919000E7
:1010B0008160809390008091A10082608093A10064
:1010C0008091A10081608093A1008091A000816047
:1010D0008093A00080912101826080932101809102
:1010E00021018160809321018091200181608093A2
:1010F000200180917A00846080937A0080917A0048
:10110000826080937A0080917A00816080937A0077
:1011100080917A00806880937A001092C100E091FB
:101120008C02F0918D0282E08083E0918802F09140
:1011300089021082E0918A02F0918B028FEC808309
:1011400010929402E0919002F091910286E08083E7
:10115000E0918E02F0918F02808180618083E09126
:101160008E02F0918F02808188608083E0918E02F0
:10117000F0918F02808180688083E0918E02F091EF
:101180008F0280818F7D808395E4C92E92E0D92ED5
:101190000FEF11E0FFB6F89480917B02811125C01A
:1011A000F6018491F8019491E82FF0E0EE0FFF1F13
:1011B000E055FE4FA591B4918C91982321F461E004
:1011C00085E30E94930261E085E30E941F038CB5D2
:1011D00080618CBD8CB580648CBD61E084E30E942D
:1011E0001F0361E083E30E941F0380917B028F5FF6
:1011F00080937B02FFBE60E0809129030E949302EE
:1012000080EC0E94A80361E0809129030E94930270
:101210006AE070E080E090E00E94750380E80E9440
:101220009D04811159C060E08AE20E94AF0460EF22
:1012300089E20E94AF0466E888E20E94AF0461E0A0
:1012400080E20E94CC0461E084E20E94CC0461E070
:1012500080E00E94CC0460E084E00E94CC0461E065
:1012600088E00E94CC0460E080E10E94CC0461E050
:1012700084E10E94CC0460E088E10E94CC04C0E3D9
:1012800060E08C2F0E94AF0460E080E18C0F0E9430
:10129000AF0460E080E28C0F0E94AF04CF5FCE33DA
:1012A00079F760E080E60E94AF0460E080E70E948A
:1012B000AF0463E08BE20E94AF0444E064E680E6A2
:1012C0000E94AF0340E060E680E70E94AF0380E049
:1012D0000E949D04882379F08DE592E00E94030529
:1012E00085E392E00E94030564E670E080E090E010
:1012F0000E9475034FCF60E085E30E941F0384E5E1
:1013000095E0909301028093000280916A008C7FA7
:10131000826080936A00EC9A8AE392E00E9403055F
:1013200085E392E00E94030564EF71E080E090E0C5
:101330000E9475030E946202F7CFA1E21A2EAA1B37
:10134000BB1BFD010DC0AA1FBB1FEE1FFF1FA21775
:10135000B307E407F50720F0A21BB30BE40BF50B72
:10136000661F771F881F991F1A9469F760957095FB
:10137000809590959B01AC01BD01CF010895EE0FC2
:10138000FF1F881F8BBF0790F691E02D1994F894EA
:02139000FFCF8D
:10139200A703A703A703A703A703A703A703A703FB
:1013A20000000000F5015F018C014202BD019B01BA
:1013B200AF010A446174612066726F6D2049442056
:1013C2003A203078000D0A0009004D435032353181
:1013D20035204C6962726172792052656365697663
:1013E20065204578616D706C652E2E2E0043414E4E
:1013F2002062757320696E6974206661696C656428
:021402000000E8
:00000001FF
