:100000000C9435010C9466010C9466010C94660105
:100010000C9466010C9466010C9466010C946601C4
:100020000C9466010C9466010C9466010C946601B4
:100030000C9466010C9466010C9466010C946601A4
:100040000C9466010C9466010C9466010C94660194
:100050000C9466010C9466010C9466010C94930553
:100060000C9466010C945D050C9433050C946601A8
:100070000C9466010C9466010C9466010C94660164
:100080000C9466010C9466010C9466010C94660154
:100090000C9466010C9466010C9466010C94660144
:1000A0000C9466010C9466010C9466010C94660134
:1000B0000C9466010C9466010C9466010C94660124
:1000C0000C9466010C9466010C9466010C94660114
:1000D0000C9466010C9466010C9466010C94660104
:1000E0000C9466010C94CC020C94DD050C94FB027C
:1000F0000C944B020C94D9020C94A4010C94E302CE
:100100000C94C6010C94CF020C94ED020C94FF02E7
:100110000C94C8020C94C0020C94E7020C94D50213
:100120000C94F1020C94C4020C94FA020C94DF02B9
:100130000C94B8010C94BA020C94FE010C94950135
:100140000C94F5020C9468010000220025002800A0
:100150002B002E00310034000201000005010801CF
:100160000B0100002100240027002A002D00300090
:10017000330001010000040107010A010000200012
:100180002300260029002C002F003200000100006F
:10019000030106010901050505050705080808080A
:1001A000020202020A0A080804040404010101010F
:1001B000010101010303030303030303040707070A
:1001C0000C0C0C0C0C0C0C0C0202020206060606AF
:1001D000060606060B0B0B0B0B0B0B0B010210207C
:1001E000200808102040102040800201020108046D
:1001F0000201010204081020408080402010080401
:100200000201800402018040201008040201080459
:10021000020101020408102040800102040810209D
:10022000408000000A0B02090C0D0E0807030401B0
:1002300000000000000000000000000000000000BE
:10024000000000000000000000000000000012118B
:10025000100000000000000000000000000000008E
:100260000000000000000000DD0511241FBECFEFDC
:10027000D1E2DEBFCDBF00E00CBF12E0A0E0B2E0F3
:10028000EEEBF0E100E00BBF02C007900D92A83446
:10029000B107D9F723E0A8E4B2E001C01D92A6306F
:1002A000B207E1F711E0C5E3D1E000E006C0219715
:1002B0000109802FFE010E945508C433D10780E058
:1002C0000807A9F70E9418060C945D080C9400001A
:1002D000AF92BF92CF92DF92EF92FF920F931F9354
:1002E000CF93DF936C017B018B01040F151FEB0192
:1002F0005E01AE18BF08C017D10759F06991D60149
:10030000ED91FC910190F081E02DC6011995892BAA
:1003100079F7C501DF91CF911F910F91FF90EF9079
:10032000DF90CF90BF90AF900895FC01538D448D26
:10033000252F30E0842F90E0821B930B541710F090
:10034000CF96089501970895FC01918D828D98179D
:1003500061F0A28DAE0FBF2FB11D5D968C91928D75
:100360009F5F9F73928F90E008958FEF9FEF0895A6
:10037000FC01918D828D981731F0828DE80FF11D6F
:10038000858D90E008958FEF9FEF0895FC01918D8A
:10039000228D892F90E0805C9F4F821B91098F7383
:1003A0009927089588E592E00E94C60121E0892BF3
:1003B00009F420E0822F0895FC01A48DA80FB92F25
:1003C000B11DA35ABF4F2C91848D90E001968F737D
:1003D0009927848FA689B7892C93A089B1898C919C
:1003E000837080648C93938D848D981306C00288EB
:1003F000F389E02D80818F7D80830895EF92FF92B5
:100400000F931F93CF93DF93EC0181E0888F9B8D37
:100410008C8D98131AC0E889F989808185FF15C0F1
:100420009FB7F894EE89FF896083E889F989808114
:100430008370806480839FBF81E090E0DF91CF91E3
:100440001F910F91FF90EF900895F62E0B8D10E005
:100450000F5F1F4F0F731127E02E8C8D8E110CC074
:100460000FB607FCFACFE889F989808185FFF5CFBF
:10047000CE010E94DC01F1CFEB8DEC0FFD2FF11DC1
:10048000E35AFF4FF0829FB7F8940B8FEA89FB89FC
:1004900080818062CFCFCF93DF93EC01888D88235A
:1004A000B9F0AA89BB89E889F9898C9185FD03C0D7
:1004B000808186FD0DC00FB607FCF7CF8C9185FFBC
:1004C000F2CF808185FFEDCFCE010E94DC01E9CF24
:1004D000DF91CF91089580E090E0892B29F00E9470
:1004E000D20181110E94000080E090E0892B49F048
:1004F00080E090E0892B29F00E94000081110E9489
:10050000000080E090E0892B49F080E090E0892BAA
:1005100029F00E94000081110E94000080E090E01C
:10052000892B49F080E090E0892B29F00E9400009F
:1005300081110C94000008958150823108F05AC056
:10054000E82FF0E08827E855FD4F8F4F0C945508B1
:10055000C802CC02BA02C002C402FA02CF02D5021B
:10056000D902DF02E302E702ED02F102FA02F5022C
:10057000FB02FF02809180008F77809380000895B6
:10058000809180008F7DF9CF80918000877FF5CFAB
:1005900084B58F7784BD089584B58F7DFBCF80911E
:1005A000B0008F778093B00008958091B0008F7D68
:1005B000F9CF809190008F7780939000089580917B
:1005C00090008F7DF9CF80919000877FF5CF80914B
:1005D000A0008F778093A00008958091A0008F7D68
:1005E000F9CF8091A000877FF5CF809120018F7790
:1005F000809320010895809120018F7DF9CF809113
:100600002001877FF5CF1F93CF93DF93282F30E012
:10061000F901EE5DFD4F8491F901E452FE4FD49152
:10062000F901EA56FE4FC491CC23A9F0162F81118F
:100630000E949C02EC2FF0E0EE0FFF1FE85BFE4FE4
:10064000A591B4918FB7F894EC91111108C0D09591
:10065000DE23DC938FBFDF91CF911F910895DE2BB6
:10066000F8CFCF93DF9390E0FC01E452FE4F24914A
:100670008A569E4FFC0184918823D1F090E0880F28
:10068000991FFC01EE59FE4FA591B491FC01E85B66
:10069000FE4FC591D49161110EC09FB7F8948C9113
:1006A000E22FE0958E238C932881E223E8839FBF7D
:1006B000DF91CF9108958FB7F894EC91E22BEC93F2
:1006C0008FBFF6CF3FB7F89480914D0290914E02C4
:1006D000A0914F02B091500226B5A89B05C02F3FB4
:1006E00019F00196A11DB11D3FBFBA2FA92F982F58
:1006F0008827BC01CD01620F711D811D911D42E053
:10070000660F771F881F991F4A95D1F708958EBDF0
:1007100000000DB407FEFDCF8EB50895FF920F9334
:100720001F93CF93DF93F82E062F142FC5EFD2E03F
:1007300060E088890E94030385E00E9487038F2D73
:100740000E948703802F0E948703812F0E948703C6
:1007500061E08889DF91CF911F910F91FF900C94F8
:100760000303FF920F931F93CF93DF93C82FF62EAF
:10077000172F042F60E0809105030E94030383E09C
:100780000E9487038C2F0E948703CF2DD12F0C0F3F
:100790001D2F111DC017D10729F080E00E9487038B
:1007A0008993F8CF61E080910503DF91CF911F918C
:1007B0000F91FF900C9403031F93CF93DF93182F97
:1007C000C5EFD2E060E088890E94030383E00E94C5
:1007D0008703812F0E94870380E00E948703182FE0
:1007E00061E088890E940303812FDF91CF911F91DF
:1007F00008950F931F93CF93DF9300D01F92CDB72F
:10080000DEB7182F1092F5021092F6021092F7023E
:100810001092F8021092F90244E0BE016F5F7F4F20
:100820000E94B1032A81898138E0839FC00111248D
:10083000422F50E065E0559547956A95E1F7840FA2
:10084000951F092E000CAA0BBB0B8093F602909308
:10085000F702A093F802B093F90223FF29C032E017
:10086000880F991FAA1FBB1F3A95D1F72370820FDB
:10087000911DA11DB11DBA2FA92F982F88272B815B
:10088000820F911DA11DB11DBA2FA92F982F882766
:100890002C81820F911DA11DB11D8093F6029093B2
:1008A000F702A093F802B093F90281E08093F50279
:1008B0008FEF810F0E94DC03082F84E0810F0E94DC
:1008C000DC0303FF16C091E090930303482F4F70A1
:1008D0004093FA026BEF72E085E0810F0E94B10352
:1008E0000F900F900F900F90DF91CF911F910F916C
:1008F000089510920303EACFCF93C82F482F60EEDC
:100900008FE00E948E038FE00E94DC03982F907E80
:1009100081E09C1301C080E0CF9108950F931F9355
:10092000CF93DF93082F162FC5EFD2E060E08889C0
:100930000E94030382E00E948703802F0E948703A6
:10094000812F0E94870361E08889DF91CF911F91F9
:100950000F910C9403031F93CF93DF9300D01F924A
:10096000CDB7DEB7182F613041F51C821B8288E0BD
:100970008A83198260E0809105030E94030382E06C
:100980000E948703812F0E94870389810E94870329
:100990008A810E9487038B810E9487038C810E9439
:1009A000870361E0809105030F900F900F900F90E7
:1009B000DF91CF911F910C94030319821A821C823C
:1009C0001B82D8CFFC0101900020E9F73197AF01DD
:1009D000481B590BBC0188E592E00C9468018F928A
:1009E0009F92AF92BF920F931F93CF93DF93CDB798
:1009F000DEB7A1970FB6F894DEBF0FBECDBF19A228
:100A0000423008F44AE08E010F5D1F4F842E912C76
:100A1000B12CA12CA50194010E943308E62FB90145
:100A2000CA01EA30F4F4E05DD801EE938D01232B86
:100A3000242B252B79F790E080E0109719F0CD0159
:100A40000E94E204A1960FB6F894DEBF0FBECDBFA0
:100A5000DF91CF911F910F91BF90AF909F908F909A
:100A60000895E95CE1CF1F920F920FB60F92112407
:100A70000BB60F922F933F934F935F936F937F9398
:100A80008F939F93AF93BF93EF93FF9388E592E08B
:100A90000E94DC01FF91EF91BF91AF919F918F91E7
:100AA0007F916F915F914F913F912F910F900BBE6E
:100AB0000F900FBE0F901F9018951F920F920FB6B8
:100AC0000F9211240BB60F922F938F939F93EF9356
:100AD000FF93E0916802F09169028081E0916E02DB
:100AE000F0916F0282FD1DC09081809171028F5F35
:100AF0008F7320917202821741F0E0917102F0E051
:100B0000E85AFD4F958F80937102FF91EF919F916D
:100B10008F912F910F900BBE0F900FBE0F901F90D3
:100B200018958081F2CF1F920F920FB60F92112469
:100B30002F933F938F939F93AF93BF9380914902DD
:100B400090914A02A0914B02B0914C023091480220
:100B500023E0230F2D3758F50196A11DB11D2093D9
:100B600048028093490290934A02A0934B02B093AB
:100B70004C0280914D0290914E02A0914F02B09193
:100B800050020196A11DB11D80934D0290934E021B
:100B9000A0934F02B0935002BF91AF919F918F915C
:100BA0003F912F910F900FBE0F901F90189526E840
:100BB000230F0296A11DB11DD2CFCF93DF93E8E59D
:100BC000F2E01382128288EE93E0A0E0B0E084832A
:100BD0009583A683B78384E092E09183808385EC3C
:100BE00090E09587848784EC90E09787868780ECF7
:100BF00090E0918B808B81EC90E0938B828B82ECE8
:100C000090E0958B848B86EC90E0978B868B118E91
:100C1000128E138E148EC5EFD2E08DE2888B61E0C8
:100C20000E94310361E08889DF91CF910C94030326
:100C3000789484B5826084BD84B5816084BD85B5B7
:100C4000826085BD85B5816085BD80916E008160C3
:100C500080936E0010928100809181008260809369
:100C6000810080918100816080938100809180006B
:100C70008160809380008091B10084608093B10096
:100C80008091B00081608093B0008091910082607B
:100C90008093910080919100816080939100809178
:100CA00090008160809390008091A1008260809389
:100CB000A1008091A10081608093A1008091A0009B
:100CC00081608093A0008091210182608093210146
:100CD00080912101816080932101809120018160B8
:100CE0008093200180917A00846080937A008091C3
:100CF0007A00826080937A0080917A00816080938C
:100D00007A0080917A00806880937A001092C10006
:100D1000E0916802F091690282E08083E0916802CC
:100D2000F09169021082E0916402F09165021082F4
:100D3000E0916602F091670280E180831092700278
:100D4000E0916C02F0916D0286E08083E0916A028E
:100D5000F0916B02808180618083E0916A02F09162
:100D60006B02808188608083E0916A02F0916B025F
:100D7000808180688083E0916A02F0916B028081BB
:100D80008F7D8083FFB6F8940BEC11E0C1E1D2E0D7
:100D900080915102811125C0F8018491FE01949146
:100DA000E82FF0E0EE0FFF1FEE59FE4FA591B49132
:100DB0008C91982321F461E085E30E94030361E0B4
:100DC00085E30E9431038CB580618CBD8CB5806455
:100DD0008CBD61E084E30E94310361E083E30E9403
:100DE0003103809151028F5F80935102FFBE60E01A
:100DF000809105030E94030380EC0E94870361E059
:100E0000809105030E9403030E9462034B015C0171
:100E10004AE0C42ED12CE12CF12C0E946203681907
:100E200079098A099B09683E734081059105A8F3F9
:100E3000F1E0CF1AD108E108F10828EE820E23E094
:100E4000921EA11CB11CC114D104E104F10429F7C4
:100E500080E80E947C04811159C060E08AE20E940F
:100E60008E0460EF89E20E948E0466E888E20E94A8
:100E70008E0461E080E20E94AB0461E084E20E94A3
:100E8000AB0461E080E00E94AB0460E084E00E947B
:100E9000AB0461E088E00E94AB0460E080E10E9466
:100EA000AB0461E084E10E94AB0460E088E10E9451
:100EB000AB0430E3F32E60E08F2D0E948E0460E0DF
:100EC00080E18F0D0E948E0460E080E28F0D0E9411
:100ED0008E04F394FEE3FF12EECF60E080E60E9402
:100EE0008E0460E080E70E948E0463E08BE20E9443
:100EF0008E0444E064E680E60E948E0340E060E6F3
:100F000080E70E948E0380E00E947C0460E085E31D
:100F10000E94310382E192E00E94E20485E392E0C4
:100F20000E94E20427E5E22E22E0F22EF7018491EE
:100F3000FE01C490F801D490D1102DC060E08091E2
:100F400005030E94030380EA0E94870380E00E9459
:100F50008703D82E61E0809105030E940303D0FE31
:100F60002CC081E60E94F90340E061E08CE20E941F
:100F70008E038091FA0280935702ABEFB2E0E6E570
:100F8000F2E090E09F012655324028173907ECF433
:100F90002D912193F7CF81110E949C02ED2DF0E05D
:100FA000EE0FFF1FE458FE4FA591B4918C91C8221B
:100FB00009F4C4CF0E946B02B9CFD1FEDACF81E72A
:100FC0000E94F90340E062E0D1CF8091F602909157
:100FD000F702A091F802B091F90280935202909327
:100FE0005302A0935402B093550288E392E00E940A
:100FF000E2046091520270915302809154029091E8
:10100000550240E10E94EF048DE392E00E94E20469
:1010100086E5C82E82E0D82E20915702C60186555B
:10102000924028171906D1F0CCF05601F6018081C4
:10103000803120F486E492E00E94E204FFEFCF1AB0
:10104000DF0AF501608170E090E080E04AE00E94F4
:10105000EF0485E392E00E94E204DECF85E392E0B4
:101060000E94E204A7CFA1E21A2EAA1BBB1BFD011E
:101070000DC0AA1FBB1FEE1FFF1FA217B307E40777
:10108000F50720F0A21BB30BE40BF50B661F771FCF
:10109000881F991F1A9469F76095709580959095AF
:1010A0009B01AC01BD01CF010895EE0FFF1F881F0A
:0E10B0008BBF0790F691E02D1994F894FFCFB6
:1010BE0000000000FE01680195014B02C601A4016B
:1010CE00B8014D435032353135204C696272617230
:1010DE00792052656365697665204578616D706C1F
:1010EE00652E2E2E000D0A0049443A200020204481
:0810FE006174613A200030002A
:00000001FF
