:100000000C9435010C9466010C9466010C94660105
:100010000C9466010C9466010C9466010C946601C4
:100020000C9466010C9466010C9466010C946601B4
:100030000C9466010C9466010C9466010C946601A4
:100040000C9466010C9466010C9466010C94660194
:100050000C9466010C9466010C9466010C94D50313
:100060000C9466010C949F030C9475030C94660128
:100070000C9466010C9466010C9466010C94660164
:100080000C9466010C9466010C9466010C94660154
:100090000C9466010C9466010C9466010C94660144
:1000A0000C9466010C9466010C9466010C94660134
:1000B0000C9466010C9466010C9466010C94660124
:1000C0000C9466010C9466010C9466010C94660114
:1000D0000C9466010C9466010C9466010C94660104
:1000E0000C9466010C94F0010C9494010C944D0650
:1000F0000C94B7010C94AF010C94E6010C94D2015E
:100100000C9499010C9440020C9486020C94B30157
:100110000C94EA010C94BA010C942C020C94CA01C0
:100120000C94C4010C94DC010C94D8010C941D02B5
:100130000C94CE010C94D3020C94E0010C944E026A
:100140000C94C0010C94AB01000021002400270096
:100150002A002D00300033000101000004010701D6
:100160000A01000020002300260029002C002F0097
:100170003200000100000301060109010000220015
:10018000250028002B002E00310034000201000061
:10019000050108010B010505050507050808080804
:1001A000020202020A0A080804040404010101010F
:1001B000010101010303030303030303040707070A
:1001C0000C0C0C0C0C0C0C0C0202020206060606AF
:1001D000060606060B0B0B0B0B0B0B0B010210207C
:1001E000200808102040102040800201020108046D
:1001F0000201010204081020408080402010080401
:100200000201800402018040201008040201080459
:10021000020101020408102040800102040810209D
:10022000408000000A0B02090C0D0E0807030401B0
:1002300000000000000000000000000000000000BE
:10024000000000000000000000000000000012118B
:10025000100000000000000000000000000000008E
:1002600000000000000000004D0611241FBECFEF6B
:10027000D1E2DEBFCDBF00E00CBF12E0A0E0B2E0F3
:10028000E4ECF1E100E00BBF02C007900D92AC324C
:10029000B107D9F722E0ACE2B2E001C01D92A63D61
:1002A000B207E1F711E0C5E3D1E000E006C0219715
:1002B0000109802FFE010E94D808C433D10780E0D5
:1002C0000807A9F70E9464040C94E0080C9400004D
:1002D000382FE7E4F2E08491E1E0F2E02491EBEBE7
:1002E000F1E09491992309F435C0882311F18150EC
:1002F0008231F8F4E82FF0E08827EE57FE4F8F4F59
:100300000C94D808B301B7019401AB01AF01990176
:10031000BA01C001C401CA01CE01D201D801DC0179
:100320009901E001E601EA01809180008F778093D6
:100330008000E92FF0E0EE0FFF1FE458FE4FA5917B
:10034000B4918FB7F894EC91311148C020952E23C9
:100350002C938FBF0895809180008F7DE8CF80918E
:100360008000877FE4CF84B58F7784BDE2CF84B5EA
:100370008F7DFBCF8091B0008F778093B000D9CF75
:100380008091B0008F7DF9CF809190008F7780931E
:100390009000CFCF809190008F7DF9CF8091900019
:1003A000877FF5CF8091A0008F778093A000C1CF89
:1003B0008091A0008F7DF9CF8091A000877FF5CF3D
:1003C000809120018F7780932001B3CF809120010D
:1003D0008F7DF9CF80912001877FF5CF2E2BB8CF6D
:1003E000AF92BF92CF92DF92EF92FF920F931F9343
:1003F000CF93DF936C017B018B01040F151FEB0181
:100400005E01AE18BF08C017D10759F06991D60137
:10041000ED91FC910190F081E02DC6011995892B99
:1004200079F7C501DF91CF911F910F91FF90EF9068
:10043000DF90CF90BF90AF900895FC01538D448D15
:10044000252F30E0842F90E0821B930B541710F07F
:10045000CF96089501970895FC01918D828D98178C
:1004600061F0A28DAE0FBF2FB11D5D968C91928D64
:100470009F5F9F73928F90E008958FEF9FEF089595
:10048000FC01918D828D981731F0828DE80FF11D5E
:10049000858D90E008958FEF9FEF0895FC01918D79
:1004A000228D892F90E0805C9F4F821B91098F7372
:1004B0009927089589E392E00E944E0221E0892B5A
:1004C00009F420E0822F0895FC01A48DA80FB92F14
:1004D000B11DA35ABF4F2C91848D90E001968F736C
:1004E0009927848FA689B7892C93A089B1898C918B
:1004F000837080648C93938D848D981306C00288DA
:10050000F389E02D80818F7D80830895EF92FF92A3
:100510000F931F93CF93DF93EC0181E0888F9B8D26
:100520008C8D98131AC0E889F989808185FF15C0E0
:100530009FB7F894EE89FF896083E889F989808103
:100540008370806480839FBF81E090E0DF91CF91D2
:100550001F910F91FF90EF900895F62E0B8D10E0F4
:100560000F5F1F4F0F731127E02E8C8D8E110CC063
:100570000FB607FCFACFE889F989808185FFF5CFAE
:10058000CE010E946402F1CFEB8DEC0FFD2FF11D27
:10059000E35AFF4FF0829FB7F8940B8FEA89FB89EB
:1005A00080818062CFCFCF93DF93EC01888D882349
:1005B000B9F0AA89BB89E889F9898C9185FD03C0C6
:1005C000808186FD0DC00FB607FCF7CF8C9185FFAB
:1005D000F2CF808185FFEDCFCE010E946402E9CF8A
:1005E000DF91CF91089580E090E0892B29F00E945F
:1005F0005A0281110E94000080E090E0892B49F0AE
:1006000080E090E0892B29F00E94000081110E9477
:10061000000080E090E0892B49F080E090E0892B99
:1006200029F00E94000081110E94000080E090E00B
:10063000892B49F080E090E0892B29F00E9400008E
:1006400081110C9400000895FC0101900020E9F74D
:100650003197AF01481B590BBC0189E392E00C9420
:10066000F0018F929F92AF92BF920F931F93CF93FF
:10067000DF93CDB7DEB7A1970FB6F894DEBF0FBEFC
:10068000CDBF19A2423008F44AE08E010F5D1F4F22
:10069000842E912CB12CA12CA50194010E94B608A6
:1006A000E62FB901CA01EA30F4F4E05DD801EE9317
:1006B0008D01232B242B252B79F790E080E01097D8
:1006C00019F0CD010E942403A1960FB6F894DEBF65
:1006D0000FBECDBFDF91CF911F910F91BF90AF9013
:1006E0009F908F900895E95CE1CF1F920F920FB613
:1006F0000F9211240BB60F922F933F934F935F935A
:100700006F937F938F939F93AF93BF93EF93FF93D9
:1007100089E392E00E946402FF91EF91BF91AF9153
:100720009F918F917F916F915F914F913F912F9109
:100730000F900BBE0F900FBE0F901F9018951F9239
:100740000F920FB60F9211240BB60F922F938F9327
:100750009F93EF93FF93E0914902F0914A028081C9
:10076000E0914F02F091500282FD1DC09081809176
:1007700052028F5F8F7320915302821741F0E091F4
:100780005202F0E0E75CFD4F958F80935202FF919B
:10079000EF919F918F912F910F900BBE0F900FBEF5
:1007A0000F901F9018958081F2CF1F920F920FB675
:1007B0000F9211242F933F938F939F93AF93BF93E7
:1007C0008091310290913202A0913302B0913402B3
:1007D0003091300223E0230F2D3758F50196A11DEB
:1007E000B11D209330028093310290933202A09386
:1007F0003302B093340280912C0290912D02A0918B
:100800002E02B0912F020196A11DB11D80932C02E2
:1008100090932D02A0932E02B0932F02BF91AF911F
:100820009F918F913F912F910F900FBE0F901F902E
:10083000189526E8230F0296A11DB11DD2CFCF92A5
:10084000DF92EF92FF920F931F93E82FF92F05C0CD
:10085000015011092109310961F190819623941702
:10086000B9F305C0015011092109310911F1908135
:1008700096239413F7CFC12CD12CE12CF12C0AC074
:100880008FEFC81AD80AE80AF80A0C151D052E05BC
:100890003F0579F080818623841791F36C2D7D2D9F
:1008A0008E2D9F2D1F910F91FF90EF90DF90CF9095
:1008B000089560E070E080E090E01F910F91FF905C
:1008C000EF90DF90CF900895789484B5826084BDD6
:1008D00084B5816084BD85B5826085BD85B5816044
:1008E00085BD80916E00816080936E0010928100C2
:1008F000809181008260809381008091810081607D
:10090000809381008091800081608093800080913D
:10091000B10084608093B1008091B00081608093C9
:10092000B00080919100826080939100809191004D
:10093000816080939100809190008160809390000D
:100940008091A10082608093A1008091A1008160CC
:100950008093A1008091A00081608093A00080918D
:100960002101826080932101809121018160809327
:1009700021018091200181608093200180917A0083
:10098000846080937A0080917A00826080937A00FC
:1009900080917A00816080937A0080917A008068EB
:1009A00080937A001092C100E1E0F2E02491EBEB39
:1009B000F1E08491882399F090E0880F991FFC0161
:1009C000E85BFE4FA591B491FC01E458FE4F859180
:1009D00094918FB7F894EC91E22BEC938FBF4DEF8D
:1009E000242E41E0342EF1012491C7EBD1E0FE0129
:1009F00084918823C9F090E0880F991FFC01E85B7F
:100A0000FE4FA591B491FC01E458FE4F45915491DD
:100A10003FB7F8949C91822F809598239C93FA017C
:100A20009081892380833FBFE0914902F0914A027F
:100A300082E08083E0914902F0914A021082E091C5
:100A40004502F09146021082E0914702F09148027F
:100A500080E1808310925102E0914D02F0914E02AC
:100A600086E08083E0914B02F0914C0280818061AE
:100A70008083E0914B02F0914C02808188608083FA
:100A8000E0914B02F0914C02808180688083E0917C
:100A90004B02F0914C0280818F7D808393E0A92EE0
:100AA000B12C23E2822E912C80E00E946801C501C6
:100AB0000197F1F781E00E946801C4010197F1F705
:100AC00080E00E946801F1016491FE018491E82FA9
:100AD000F0E0EE0FFF1FEE59FE4F8591949100E478
:100AE00012E42FE030E0462F0E941F0461157105CB
:100AF0008105910529F06F5F7F4F8F4F9F4F9F704A
:100B00000E948D0720E030E04AEA53E40E94440846
:100B100020E030E44CE156E40E94EC0620E030E0B6
:100B200040E05FE30E944408609335027093360210
:100B3000809337029093380282E192E00E9424036E
:100B4000C0903502D0903602E0903702F090380223
:100B5000A7019601C701B6010E94B108882359F088
:100B60008DE192E00E94240389E292E00E94240336
:100B70000E94F30299CF26013701E89477F82FEF0E
:100B80003FEF4FE75FE7C301B2010E94B108811157
:100B90000DC02FEF3FEF4FE75FE7C301B2010E94A7
:100BA000E70618161CF481E292E0DCCF2FEF3FEF4E
:100BB0004FE75FE4C701B6010E943F0818161CF416
:100BC00085E292E0CFCF2FEF3FEF4FE75FECC70119
:100BD000B6010E94E70687FDF3CF20E030E0A901CF
:100BE000C701B6010E94E70687FF09C06DE289E3ED
:100BF00092E00E948602F7FAF094F7F8F0942AE067
:100C000037ED43EA5BE3C701B6010E947B062B0187
:100C10003C010E945E076B017C010E948D079B01D5
:100C2000AC01C301B2010E947A062B013C014AE0EB
:100C3000C701B6010E9431036EE289E392E00E948F
:100C4000860220E030E040E251E4C301B2010E949C
:100C500044082B013C010E945E076B01F12CE12C42
:100C60004AE0C701B6010E943103C701B6010E94E4
:100C70008D079B01AC01C301B2010E947A0620E0FE
:100C800030E040E251E40E9444080E945E0790E098
:100C900080E04AE00E94310367CFE9E3F2E013828B
:100CA000128288EE93E0A0E0B0E084839583A6836F
:100CB000B78384E092E09183808385EC90E0958710
:100CC000848784EC90E09787868780EC90E0918B16
:100CD000808B81EC90E0938B828B82EC90E0958B03
:100CE000848B86EC90E0978B868B118E128E138E00
:100CF000148E08955058BB27AA270E9492060C9480
:100D000005080E94F70738F00E94FE0720F039F42A
:100D10009F3F19F426F40C94F4070EF4E095E7FBDA
:100D20000C94EE07E92F0E94160858F3BA176207D1
:100D300073078407950720F079F4A6F50C9438081A
:100D40000EF4E0950B2EBA2FA02D0B01B9019001E6
:100D50000C01CA01A0011124FF27591B99F0593F2A
:100D600050F4503E68F11A16F040A22F232F342F72
:100D70004427585FF3CF469537952795A795F040C0
:100D80005395C9F77EF41F16BA0B620B730B840BD5
:100D9000BAF09150A1F0FF0FBB1F661F771F881F8D
:100DA000C2F70EC0BA0F621F731F841F48F48795E5
:100DB00077956795B795F7959E3F08F0B0CF9395D7
:100DC000880F08F09927EE0F9795879508950E9450
:100DD000CA0708F481E008950E9400070C940508F2
:100DE0000E94FE0758F00E94F70740F029F45F3F89
:100DF00029F00C94EE0751110C9439080C94F40767
:100E00000E94160868F39923B1F3552391F3951BBB
:100E1000550BBB27AA2762177307840738F09F5F1B
:100E20005F4F220F331F441FAA1FA9F335D00E2E88
:100E30003AF0E0E832D091505040E695001CCAF7F5
:100E40002BD0FE2F29D0660F771F881FBB1F2617B8
:100E500037074807AB07B0E809F0BB0B802DBF018F
:100E6000FF2793585F4F3AF09E3F510578F00C945E
:100E7000EE070C9439085F3FE4F3983ED4F386956F
:100E800077956795B795F7959F5FC9F7880F911D7F
:100E90009695879597F90895E1E0660F771F881F6B
:100EA000BB1F621773078407BA0720F0621B730B1E
:100EB000840BBA0BEE1F88F7E09508950E941E0878
:100EC00088F09F5798F0B92F9927B751B0F0E1F00B
:100ED000660F771F881F991F1AF0BA95C9F714C0BB
:100EE000B13091F00E943808B1E008950C943808B0
:100EF000672F782F8827B85F39F0B93FCCF38695F4
:100F000077956795B395D9F73EF490958095709550
:100F100061957F4F8F4F9F4F0895E89409C097FBCD
:100F20003EF490958095709561957F4F8F4F9F4FC0
:100F30009923A9F0F92F96E9BB279395F695879504
:100F400077956795B795F111F8CFFAF4BB0F11F4C7
:100F500060FF1BC06F5F7F4F8F4F9F4F16C088236E
:100F600011F096E911C0772321F09EE8872F762FA4
:100F700005C0662371F096E8862F70E060E02AF0E5
:100F80009A95660F771F881FDAF7880F96958795D1
:100F900097F90895990F0008550FAA0BE0E8FEEFA6
:100FA00016161706E807F907C0F012161306E4072D
:100FB000F50798F0621B730B840B950B39F40A2626
:100FC00061F0232B242B252B21F408950A2609F404
:100FD000A140A6958FEF811D811D089597F99F6708
:100FE00080E870E060E008959FEF80EC08950024B1
:100FF0000A941616170618060906089500240A947E
:1010000012161306140605060895092E0394000C03
:1010100011F4882352F0BB0F40F4BF2B11F460FF92
:1010200004C06F5F7F4F8F4F9F4F089557FD9058BB
:10103000440F551F59F05F3F71F04795880F97FB9C
:10104000991F61F09F3F79F0879508951216130656
:101050001406551FF2CF4695F1DF08C01616170685
:101060001806991FF1CF86957105610508940895BA
:10107000E894BB2766277727CB0197F908950E944C
:10108000CA0708F48FEF08950E9457080C940508CA
:101090000E94F70738F00E94FE0720F0952311F018
:1010A0000C94EE070C94F40711240C9439080E9458
:1010B000160870F3959FC1F3950F50E0551F629F7E
:1010C000F001729FBB27F00DB11D639FAA27F00DA1
:1010D000B11DAA1F649F6627B00DA11D661F829FC8
:1010E0002227B00DA11D621F739FB00DA11D621FAD
:1010F000839FA00D611D221F749F3327A00D611DCA
:10110000231F849F600D211D822F762F6A2F1124AB
:101110009F5750409AF0F1F088234AF0EE0FFF1FDE
:10112000BB1F661F771F881F91505040A9F79E3F35
:10113000510580F00C94EE070C9439085F3FE4F3FE
:10114000983ED4F3869577956795B795F795E7958B
:101150009F5FC1F7FE2B880F911D9695879597F994
:1011600008950E94CA07880B990B0895A1E21A2ED0
:10117000AA1BBB1BFD010DC0AA1FBB1FEE1FFF1F3B
:10118000A217B307E407F50720F0A21BB30BE40B8B
:10119000F50B661F771F881F991F1A9469F76095D2
:1011A0007095809590959B01AC01BD01CF0108958C
:1011B000EE0FFF1F881F8BBF0790F691E02D19944B
:0411C000F894FFCFD1
:1011C400000000008602F0011D02D3024E022C0230
:1011D400400264697374616E6365203A006E616EE7
:0C11E40000696E66006F7666000D0A0060
:00000001FF
