:100000000C949A010C94CB010C94CB010C94CB0171
:100010000C94CB010C94CB010C94CB010C94CB0130
:100020000C94CB010C94CB010C94CB010C94CB0120
:100030000C94CB010C94CB010C94CB010C94CB0110
:100040000C94CB010C94CB010C94CB010C94CB0100
:100050000C94CB010C94CB010C94CB010C94AA1002
:100060000C94CB010C9474100C944A100C94CB019A
:100070000C94CB010C94CB010C94CB010C94CB01D0
:100080000C94CB010C94CB010C94CB010C94CB01C0
:100090000C94CB010C94CB010C94CB010C94CB01B0
:1000A0000C94CB010C94CB010C94CB010C94CB01A0
:1000B0000C94CB010C94CB010C94CB010C94CB0190
:1000C0000C94CB010C94CB010C94CB010C94CB0180
:1000D0000C94CB010C94CB010C94CB010C94CB0170
:1000E0000C94CB010C94C30F0C944C020C94B504EB
:1000F0000C94D3030C94F4100C94BF040C94A90931
:100100000C94C1070C940A080C94E2020C941F078B
:100110000C94D3040C9476040C9445050C94CF03F2
:100120000C94B00E0C9483070C94DC030C947902AD
:100130000C9454050C9450040C9460090C94500BCE
:100140000C9443040C94C3070C945D090C94F803BD
:100150000C94B5030C949C020C940D080C94CD09DE
:100160000C94EE030C9488020C94DD040C94DC07D0
:100170000C94E0030C94AA020C9466080C94690891
:100180000C9410070C94E6030C94C9040C94880496
:100190000C9444070C94EA030C94B0030C943707B6
:1001A0000C947E040C9463090C9464040C941A0758
:1001B0000C946C080C94F0070C9450050C940204F9
:1001C0000C944D050C94EE060C9492040C940604C9
:1001D0000C94D6030C945A040C940C070C94FC0356
:1001E0000C9425070C9488070C94930F0C946E04C0
:1001F0000C942B070C9481070C94F4030C94C70304
:100200000C94CF070C94CB030C9410080C940408A6
:100210000C944B040C942F030C9407080C94310796
:100220000C944A050C949C040C94AB0400000A0B3B
:1002300002090C0D0E080703040100000000000075
:1002400000000000000000000000000000000000AE
:10025000000000000000000012111000000000006B
:10026000000000000000000000000000000000008E
:10027000000000002200250028002B002E00310085
:10028000340002010000050108010B0100002100FB
:10029000240027002A002D00300033000101000057
:1002A000040107010A0105050505070508080808F6
:1002B000020202020A0A08080404040401010101FE
:1002C00001010101030303030303030304070707F9
:1002D0000C0C0C0C0C0C0C0C02020202060606069E
:1002E000060606060B0B0B0B0B0B0B0B010210206B
:1002F000200808102040102040800201020108045C
:1003000002010102040810204080804020100804EF
:100310000201800402018040201008040201080448
:10032000020101020408102040800102040810208C
:100330004080F41011241FBECFEFD1E2DEBFCDBF4D
:1003400000E00CBF13E0A0E0B2E0EEE1FBE200E071
:100350000BBF02C007900D92A43CB107D9F729E06A
:10036000A4ECB3E001C01D92A234B207E1F711E0A2
:10037000CAE9D1E000E006C021970109802FFE0103
:100380000E944813C939D10780E00807A9F70E94E5
:10039000E4110C948D150C940000CF92DF92EF9233
:1003A000FF92CF93DF93EC016A017B01E889F98921
:1003B00082E08083C11481EED806E104F104A1F04B
:1003C00060E079E08DE390E0A70196010E9426139A
:1003D000215031094109510956954795379527957F
:1003E000211580E1380798F0E889F989108260E8E2
:1003F00074E88EE190E0A70196010E942613215037
:100400003109410951095695479537952795EC854E
:10041000FD853083EE85FF852083188EEC89FD896C
:1004200086E08083EA89FB89808180618083EA8914
:10043000FB89808188608083EA89FB89808180686C
:100440008083EA89FB8980818F7D8083DF91CF91D2
:10045000FF90EF90DF90CF90089590E0FC01E45181
:10046000FD4F24918A559D4FFC018491882399F07A
:1004700090E0880F991FFC01E457FD4FA591B491BE
:10048000FC01EE58FD4F859194918FB7F894EC9153
:10049000E22BEC938FBF0895AF92BF92CF92DF9281
:1004A000EF92FF920F931F93CF93DF936C017B0129
:1004B0008B01040F151FEB015E01AE18BF08C017BA
:1004C000D10759F06991D601ED91FC910190F0812D
:1004D000E02DC6011995892B79F7C501DF91CF91E0
:1004E0001F910F91FF90EF90DF90CF90BF90AF9052
:1004F0000895FC01538D448D252F30E0842F90E02A
:10050000821B930B541710F0CF960895019708950E
:10051000FC01918D828D981761F0A28DAE0FBF2FD7
:10052000B11D5D968C91928D9F5F9F73928F90E02D
:1005300008958FEF9FEF0895FC01918D828D98179C
:1005400031F0828DE80FF11D858D90E008958FEFD9
:100550009FEF0895FC01918D228D892F90E0805CA2
:100560009F4F821B91098F73992708958FEC93E019
:100570000E94AA0221E0892B09F420E0822F08952D
:10058000FC01A48DA80FB92FB11DA35ABF4F2C9108
:10059000848D90E001968F739927848FA689B789FF
:1005A0002C93A089B1898C91837080648C93938DF6
:1005B000848D981306C00288F389E02D80818F7D99
:1005C00080830895EF92FF920F931F93CF93DF9351
:1005D000EC0181E0888F9B8D8C8D98131AC0E8897F
:1005E000F989808185FF15C09FB7F894EE89FF894E
:1005F0006083E889F98980818370806480839FBFEC
:1006000081E090E0DF91CF911F910F91FF90EF90EB
:100610000895F62E0B8D10E00F5F1F4F0F731127FB
:10062000E02E8C8D8E110CC00FB607FCFACFE88936
:10063000F989808185FFF5CFCE010E94C002F1CFFC
:10064000EB8DEC0FFD2FF11DE35AFF4FF0829FB7AA
:10065000F8940B8FEA89FB8980818062CFCFCF939A
:10066000DF93EC01888D8823B9F0AA89BB89E889DA
:10067000F9898C9185FD03C0808186FD0DC00FB680
:1006800007FCF7CF8C9185FFF2CF808185FFEDCFFE
:10069000CE010E94C002E9CFDF91CF91089580E0A2
:1006A00090E0892B29F00E94B60281110E9400007F
:1006B00080E090E0892B49F080E090E0892B29F0E0
:1006C0000E94000081110E94000080E090E0892BD0
:1006D00049F080E090E0892B29F00E940000811110
:1006E0000E94000080E090E0892B49F080E090E0DB
:1006F000892B29F00E94000081110C9400000895BC
:10070000282F30E0F901E45DFD4F9491F901E451A7
:10071000FD4F44912A553D4FF9012491222309F4BC
:1007200035C0992311F191509231F8F4E92FF0E09E
:100730008827E256FC4F8F4F0C944813CF03D30306
:10074000B003C703CB03B503D603DC03E003E60322
:10075000EA03EE03F403F803B503FC030204060402
:10076000809180008F7780938000E22FF0E0EE0F81
:10077000FF1FEE58FD4FA591B4918FB7F894EC91FF
:10078000611148C040954E234C938FBF08958091CE
:1007900080008F7DE8CF80918000877FE4CF84B593
:1007A0008F7784BDE2CF84B58F7DFBCF8091B00081
:1007B0008F778093B000D9CF8091B0008F7DF9CF33
:1007C000809190008F7780939000CFCF80919000A0
:1007D0008F7DF9CF80919000877FF5CF8091A00029
:1007E0008F778093A000C1CF8091A0008F7DF9CF3B
:1007F0008091A000877FF5CF809120018F77809333
:100800002001B3CF809120018F7DF9CF809120010D
:10081000877FF5CF4E2BB8CF1F93CF93DF93182F41
:10082000EB010E942D02209739F460E0812FDF91C7
:10083000CF911F910C948003CF3FD10511F461E05B
:10084000F5CFE12FF0E0E45DFD4FE491E150E231BE
:1008500008F0B3C0F0E08827EF5CFB4F8F4F0C949B
:10086000481343044B0450045A046404DD046E042A
:1008700076047E04880492049C04AB04B504DD0471
:10088000BF04C904D30484B5806884BDC7BDDF91AB
:10089000CF911F91089584B5806284BDC8BDF7CF04
:1008A00080918000806880938000D0938900C093FD
:1008B0008800EDCF80918000806280938000D0938B
:1008C0008B00C0938A00E3CF809180008860809382
:1008D0008000D0938D00C0938C00D9CF8091B00060
:1008E00080688093B000C093B300D1CF8091B000F6
:1008F00080628093B000C093B400C9CF8091900013
:10090000806880939000D0939900C0939800BFCFE7
:1009100080919000806280939000D0939B00C09360
:100920009A00B5CF80919000886080939000D0931A
:100930009D00C0939C00ABCF8091A0008068809305
:10094000A0008091A0008F7B8093A000D093A9008D
:10095000C093A8009CCF8091A00080628093A000EB
:10096000D093AB00C093AA0092CF8091A000886082
:100970008093A000D093AD00C093AC0088CF80914D
:100980002001806880932001D0932901C093280121
:100990007ECF80912001806280932001D0932B0133
:1009A000C0932A0174CF8091200188608093200138
:1009B000D0932D01C0932C016ACFC038D1050CF023
:1009C0003ECF33CF3FB7F8948091C9039091CA03CB
:1009D000A091CB03B091CC0326B5A89B05C02F3FB7
:1009E00019F00196A11DB11D3FBFBA2FA92F982F55
:1009F0008827BC01CD01620F711D811D911D42E050
:100A0000660F771F881F991F4A95D1F708958F9217
:100A10009F92AF92BF92CF92DF92EF92FF924B01E3
:100A20005C010E94E2046B017C010E94E2046C19EB
:100A30007D098E099F09683E734081059105A8F3E1
:100A400021E0821A9108A108B10888EEC80E83E05F
:100A5000D81EE11CF11C81149104A104B10429F7F2
:100A6000FF90EF90DF90CF90BF90AF909F908F90CE
:100A700008952FB7F8946091C5037091C6038091D3
:100A8000C7039091C8032FBF08958A579B4FFC015D
:100A9000808108958AE892E008958BEA92E00895B3
:100AA000FC01868597850895AF92BF92CF92DF9221
:100AB000EF92FF920F931F93CF93DF9300D01F927B
:100AC0001F92CDB7DEB7643671054CF0FC01EA57D2
:100AD000FB4F2081F12CE12C222309F476C0DA01AE
:100AE0007B018C01BC01615E7D4FED91FC91019019
:100AF000F081E02DCA011995680128EEC21A2DEF88
:100B0000D20A2FEFD6012C93F801E75EFD4F2EEFAE
:100B1000208331968083319690833196292F280F38
:100B2000209520833196E0821696FC9245E050E0B5
:100B300030E020E0DC011696A417B50734F061918F
:100B4000260F311D4F5F5F4FF7CF7C01B8E0EB0EF2
:100B5000F11C800F911FFC01E15EFD4F2095208369
:100B6000E1E0EE16E2E0FE06B4F45601C5018C1990
:100B70009D098E159F054CF5D80112968D919C917B
:100B8000F50161915F01DC01ED91FC910190F08133
:100B9000E02D1995EBCF82E492E09A83898383E07C
:100BA0008B838AEB92E09D838C83D801ED91FC913D
:100BB0000190F081E02DAE014F5F5F4F67E070E084
:100BC000C8011995EE24EA94FE2CC7010F900F90EE
:100BD0000F900F900F90DF91CF911F910F91FF9089
:100BE000EF90DF90CF90BF90AF9008950F931F9339
:100BF000CF93DF9300D000D000D01F92CDB7DEB7E7
:100C00008C0186E392E09A8389831B821C821D8279
:100C10001E821F82188619861A86D801ED91FC91D2
:100C20000190F081E02DAE014F5F5F4F6AE070E010
:100C3000C80119950E943905F8016087718782877C
:100C400093872A960FB6F894DEBF0FBECDBFDF9113
:100C5000CF911F910F910895CF92DF92EF92FF9263
:100C6000DC011D921D921D921C921397FB0130E036
:100C700020E0419150E0022E02C0440F551F0A941B
:100C8000E2F7052E000C660B770BCD90DD90ED9012
:100C9000FC9013974C295D296E297F294D935D9314
:100CA0006D937C931397285F3F4F2032310509F7EE
:100CB000FF90EF90DF90CF900895FC014083518327
:100CC000128213820895CF93DF93EB01BC018DE074
:100CD0000E940C04BE0188E0DF91CF910C940C04BB
:100CE0006091020270910302605B7F4F809100026D
:100CF000909101020C9463066091020270910302CC
:100D00008091000290910102805B9F4F0C946306DA
:100D10006091020270910302605B7F4F809100023C
:100D2000909101020C946306CF93DF93EC0160E095
:100D30008BE00E94800361E08CE00E94800360E011
:100D400089E00E94800361E08AE00E948003C7304E
:100D5000D10581F46091020270910302809100023A
:100D6000909101020E94630664EF71E080E090E0E0
:100D70000E940705D093CE03C093CD03DF91CF919E
:100D80000895CF93DF93EC0161E08BE00E94800334
:100D900060E08CE00E94800361E089E00E948003B3
:100DA00060E08AE00E948003C730D10581F4609141
:100DB00002027091030280910002909101020E9450
:100DC000630664EF71E080E090E00E940705D09335
:100DD000CE03C093CD03DF91CF910895FC018281B2
:100DE0009381A481B5810197A109B1098930910549
:100DF000A105B10508F0D2C0FC018827ED5FF84FCE
:100E00008F4F0C9448130C071A071F0725072B0751
:100E1000310737074407880781E090E00E94C10648
:100E20006091020270910302809100029091010290
:100E30000C94630682E090E00E949406F1CF83E078
:100E400090E00E94C1060C94880684E090E00E9425
:100E5000C1060C947C0685E090E00E9494060C94F8
:100E6000880686E090E00E9494060C947C0670E070
:100E700060E090E080E00E94630687E090E090935D
:100E8000CE038093CD030895E091CD03F091CE037E
:100E900020910002309101022B5F3F4F30930102FD
:100EA0002093000280910202909103020596909394
:100EB0000302809302022F3F310539F034F02FEF07
:100EC00030E030930102209300028F3F910539F00A
:100ED00034F08FEF90E090930302809302023197F9
:100EE000E730F10508F05AC08827E658F84F8F4FD1
:100EF0000C9448131007100781078107C307C30725
:100F000083070C94700670E060E090E080E090CF82
:100F1000E091CD03F091CE032091000230910102C7
:100F20002550310930930102209300028091020282
:100F30009091030205979093030280930202283256
:100F4000310534F428E230E03093010220930002AE
:100F5000889734F488E290E0909303028093020231
:100F60003197E730F105D0F48827E654F84F8F4FDA
:100F70000C94481310071007C107C107C307C30724
:100F800083070C94700660910202709103028091B5
:100F9000000290910102805B9F4F4ACF0895FB01B0
:100FA0004081518162817381FC0142835383648358
:100FB000758384E090E008950F931F93CF93DF93A0
:100FC0008C01EC012696CE010E94CF07D8011C9619
:100FD000ED91FC91CE01DF91CF911F910F9119946A
:100FE000DC01FB0112964C91129713962C911397EA
:100FF00014969C91149715968C914083218392832B
:10100000838384E090E0089583EF92E008958AE07E
:1010100092E0089584E193E0089585E393E00895D4
:101020004F925F926F927F928F929F92AF92BF92F8
:10103000EF92FF920F931F93CF93DF9300D01F92F5
:10104000CDB7DEB77C018B01FB018191BF01F701B8
:101050008283CE0101960E942C0689819A81AB8100
:10106000BC814C015D01F5E08F0E911CA11CB11CEF
:10107000A8014C5F5F4FFA0125E030E02901712C97
:10108000612C481459046A047B0428F4618161933B
:101090002F5F3F4FF3CFF801E80FF91F1482F701DC
:1010A0005483438305960F900F900F900F90DF911C
:1010B000CF911F910F91FF90EF90BF90AF909F90B5
:1010C0008F907F906F905F904F90089588E493E0A9
:1010D000089589E693E008954F925F926F927F9210
:1010E0008F929F92AF92BF92CF92DF92EF92FF9238
:1010F0000F931F93CF93DF93CDB7DEB72C970FB627
:10110000F894DEBF0FBECDBF7C018B01DB018C915B
:1011100090E0F7019383828311962C91922B938315
:1011200082836E5F7F4FCE0101960E942C068980DC
:101130009A80AB80BC8024013501F6E04F0E511C33
:10114000611C711C98012B5F3F4FF90186E090E014
:10115000AC0170E060E0441555056605770520F4A4
:10116000418141930196F4CFB4016A5F7F4FF8014A
:10117000E80DF91D1582D70115963C932E9314970F
:10118000600F711FCE0105960E942C06BAE08B0EEF
:10119000911C4D805E806F807884C401092C000C06
:1011A000AA0BBB0B5C016D01A40CB51CC61CD71CA3
:1011B000F801E80DF91DAF01401B510B70E060E034
:1011C0004A155B056C057D0538F42191AF0142504D
:1011D0005109DA012C93EFCF480C591CB801640D6A
:1011E000751DFB0131971082C4010197800F911F7B
:1011F000F70197838683CE0109960E942C069201FF
:101200002C5F3F4F89849A84AB84BC84A901032E50
:10121000000C660B770B480D591D6A1D7B1DF801EC
:10122000E20FF31FCF01801B910BB0E0A0E0841709
:101230009507A607B70728F48191DF0112978C93D1
:10124000F1CFC901880D991DF801E80FF91FDF01E1
:1012500011971C9221503109020F131FD7011996C3
:101260001C930E9318972181428150E070E060E05A
:10127000BA0155274427522B2081422B2381722B00
:10128000F701428753876487758704962C960FB6BB
:10129000F894DEBF0FBECDBFDF91CF911F910F91AC
:1012A000FF90EF90DF90CF90BF90AF909F908F9086
:1012B0007F906F905F904F90089582E893E008953B
:1012C00083EA93E00895FC01DB014C9150E070E06B
:1012D00060E0428353836483758311968C911197E8
:1012E000582B428353836483758312968C91129793
:1012F000682B428353836483758313968C91139771
:10130000782B428353836483758314964C9114978E
:1013100050E070E060E046835783608771871596E0
:101320008C911597582B4683578360877187169643
:101330008C911697682B4683578360877187179621
:101340008C91782B468357836087718788E090E083
:101350000895DC01FB0112968C91129780831396FD
:101360008C911397818314968C9114978283159690
:101370008C911597838316968C9116978483179674
:101380008C911797858318968C9118978683199658
:101390008C91878388E090E008952F923F924F923E
:1013A0005F926F927F928F929F92AF92BF92CF92F5
:1013B000DF92EF92FF920F931F93CF93DF93CDB7FE
:1013C000DEB72E970FB6F894DEBF0FBECDBF8C01EF
:1013D0006B01DB018D909D90AD90BC90FC018281F2
:1013E0009381A481B58188159905AA05BB0570F480
:1013F000B401660F771F660F771F828593850E9461
:101400007E13D8011B969C938E931A97F8018282C3
:101410009382A482B582C60140E050E0BA01A4E004
:10142000EA2EF12C98012A5F3F4FDC011596EC91D2
:10143000159716964C901697512C712C612C3201F1
:10144000552444245E2A1496EC9114974E2A17963C
:10145000EC917E2AD7011701E4E02E0E311C7101B8
:101460000496F80182809380A480B58048155905C0
:101470006A057B05A8F446825782608671861497B8
:10148000A284B384AA0DBB1DE4E0BE2EF901019035
:101490000D92BA94E1F74F5F5F4F6F4F7F4FC5CF0B
:1014A00084859585A685B78584159505A605B70518
:1014B00070F4B201660F771F660F771F84899589D4
:1014C0000E947E13D80155969C938E935497F801F1
:1014D0004486558666867786C601820D931D412C0B
:1014E000512C32011C019801205F3F4FDC01119605
:1014F0006C91119712968C901297912CB12CA12C73
:10150000540199248824962A6C91862A13966C910A
:10151000B62AB4E0EB0EF11CF801448555856685CA
:1015200077854416550666067706C0F4808A918A48
:10153000A28AB38ABC0162197309A489B589A60F6E
:10154000B71F64E0F90101900D926A95E1F7BFEFD2
:101550004B1A5B0A6B0A7B0A0496C8CF8689978967
:10156000A08DB18D88159905AA05BB0560F4B4015D
:10157000660F771F848D958D0E947E13D8015D962E
:101580009C938E935C97F801868A978AA08EB18E81
:10159000412C512C32011801FAE12F0E311CF801B7
:1015A00086899789A08DB18D481659066A067B06F3
:1015B00008F05CC0B6016E0D7F1DCE0101960E9441
:1015C0002C0697012C5F3F4F3E872D8789809A809C
:1015D000AB80BC80C901032E000CAA0BBB0BAC0175
:1015E000BD01480D591D6A1D7B1D49875A876B87B0
:1015F0007C87F901EC0DFD1D9F012C193D09B901F6
:1016000090E080E029853A854B855C8562177307F9
:101610008407950728F42191DF0112972C93ECCFD2
:10162000ED84FE84E80CF91CF601EE0DFF1D3197E8
:1016300010828D859E8501978C0D9D1DD8015B962E
:101640009C938E935A97C201880F991F5C96ED91D7
:10165000FC91E80FF91FD1018D919C9191838083BA
:10166000BFEF4B1A5B0A6B0A7B0A99CFC7012E9614
:101670000FB6F894DEBF0FBECDBFDF91CF911F91A3
:101680000F91FF90EF90DF90CF90BF90AF909F9021
:101690008F907F906F905F904F903F902F90089524
:1016A0002F923F924F925F926F927F928F929F9272
:1016B000AF92BF92CF92DF92EF92FF920F931F9360
:1016C000CF93DF93CDB7DEB7A6970FB6F894DEBF02
:1016D0000FBECDBF8C010E9439054B015C01980102
:1016E00025573B4F3E8B2D8BF90180819181A28143
:1016F000B38175016401C81AD90AEA0AFB0AD70145
:10170000C601893F9A42A105B10510F035971082B4
:10171000180134E8231A3BEF330AD1018D919C91D3
:10172000892B79F0F801E157FB4F80819181A281EB
:10173000B38188159905AA05BB0518F4F10111823A
:10174000108298012C573B4F3A8B298BA8014058A7
:101750005B4F5C8B4B8BC8014896988F8F8BD80161
:10176000AA57BB4FBC8FAB8FF801EC56FB4FFE8FD7
:10177000ED8F215F3F4F38A32F8F42505109588B77
:101780004F8786599B4F9A8F898F1996BAA3A9A321
:10179000A50194012C5E3F4F4F4F5F4F2BA33CA3FD
:1017A0004DA35EA3F80184899589A689B789892B01
:1017B0008A2B8B2BB9F5D80112968D919C91DC0167
:1017C000ED91FC910284F385E02D19959C0197FF22
:1017D0003DC0F801EA57FB4F8081882301F1780171
:1017E000B9E7EB1ABBEFFB0AF70180819181A28177
:1017F000B381A5019401281B390B4A0B5B0BDA015D
:10180000C901853C9940A105B10548F0C8010E9475
:10181000F605D7018D929D92AD92BC92139790E000
:1018200080E0B6C10E943905681979098A099B09C7
:10183000F801C488D588E688F788C616D706E80672
:10184000F90608F0B8CF8EEF9FEFA2C1A989BA8937
:101850008D919C911197820F931F8D939C93F10111
:101860004081518147305105F9F4A98DBA8D8D9190
:101870009C911197AC014F5F5F4F4D935C93800F2C
:10188000911FFC01208FAF85B8898D919C91119794
:1018900001978D939C93892B09F084CF88E090E089
:1018A000F101918380837ECF4115510521F52F3FB2
:1018B000310581F481E090E091838083CBA0DCA0AE
:1018C000EDA0FEA0A9A1BAA1CD92DD92ED92FC926D
:1018D000139768CF0E943905681979098A099B090D
:1018E000693873418105910508F45CCFF801EA5726
:1018F000FB4F1082A8CF4130510589F42E3F3105AE
:1019000019F482E090E0CCCF11821082EB8DFC8D37
:101910008081811147CFC8010E94F60543CF423034
:10192000510591F4AF85B8892D933C93E98DFA8DDB
:101930001182108283E090E0D1018D939C93E9891C
:10194000FA89318320832ECF4330510571F4322F31
:101950002227AF85B8898D919C911197280F391F47
:101960002D933C9384E090E09BCF4430510579F473
:1019700060E071E00E9412138F3F910529F485E029
:1019800090E0918380830ECF118210820BCF45307F
:10199000510569F4AB89BC892D933C9386E090E0B6
:1019A00091838083A989BA892D933C93FBCE4630DD
:1019B0005105A1F4322F2227EB89FC898081918186
:1019C000280F391F3183208387E090E0D1018D9368
:1019D0009C93EF85F889808191815DCF48305105D6
:1019E00009F0E0CE1182108260E071E00E941213D3
:1019F0008F3F910509F0D6CEAB89BC89ED91FC9162
:101A0000309709F0DEC0C8010E94F6058AE292E034
:101A10009A8389831C821B8282EF92E09E838D834E
:101A200098878F839A8789871B861C861D861E86CA
:101A30006801B8EECB1ABBEFDB0A7801E6EBEE1AD1
:101A4000EBEFFE0A412C22E0522E612C712CD601C4
:101A5000ED91FC913097A9F1848195819C838B83D2
:101A6000808191819E838D8382819381DC01ED91C0
:101A7000FC910480F581E02D199598878F83D6011C
:101A8000ED91FC9182819381DC01ED91FC910680C6
:101A9000F781E02D19959A8789874B865C866D863C
:101AA0007E86D601ED91FC9160857185D801ED911E
:101AB000FC910190F081E02DAE014F5F5F4FC801B6
:101AC0001995B2E0CB0ED11CEC14FD0409F0BFCF88
:101AD000412C92E0592E612C712CF701A081B1812B
:101AE0001097E1F112968D919C9113979C838B83B3
:101AF00014968D919C9115979E838D83ED91FC9109
:101B000011970480F581E02DCD01199598878F8379
:101B1000D7018D919C91DC01ED91FC910680F781BC
:101B2000E02D19959A8789874B865C866D867E861F
:101B3000D801ED91FC91C080D180F7018081918125
:101B4000DC01ED91FC910280F381E02D1995AE014D
:101B50004F5F5F4FBC01C801F6011995F2E0EF0E2F
:101B6000F11CE214F30409F0B8CFF801EA57FB4F77
:101B700081E08083319680829182A282B382AD8996
:101B8000BE898D929D92AD92BC9213978FEF9FEF7D
:101B9000A6960FB6F894DEBF0FBECDBFDF91CF91F2
:101BA0001F910F91FF90EF90DF90CF90BF90AF907B
:101BB0009F908F907F906F905F904F903F902F906D
:101BC0000895EA30F10509F0A1C086E392E09A8316
:101BD00089831B821C821D821E821F8218861986A1
:101BE0001A860E943905F801C084D184E284F38406
:101BF0009B01AC012C193D094E095F0969017A016D
:101C00006F89788DCE0101960E946309C701B601E4
:101C100028EE33E040E050E00E94261369017A018B
:101C20009B01AC018B819C81AD81BE818C0D9D1D82
:101C3000AE1DBF1D8B839C83AD83BE8360E472E4C5
:101C40008FE090E00E940213CF80D884E984FA8468
:101C5000DC01CB018C0D9D1DAE1DBF1D8F839887B0
:101C6000A987BA870E943905CF80D884E984FA848D
:101C700036E3D31A35E6E30A34ECF30A28EE33E010
:101C800040E050E00E94261329013A019B01AC017B
:101C900060E472E48FE090E00E940213A7019601D5
:101CA000261B370B480B590BCA01B9012B813C810C
:101CB0004D815E81215031094109510969017A0143
:101CC000C418D508E608F7082601370120E03AECE9
:101CD0004AE95BE30E942613420E531E641E751EE2
:101CE000D8011C964D925D926D927C921F97F801DF
:101CF000608B718B828B938B0E943905AD89BE8975
:101D00006D937D938D939C9313974CCDE630F105A5
:101D100059F46F89788D8D8D9E8D0E94CD0981E05B
:101D2000EF8DF8A180833ECDEB30F10521F4AB8D32
:101D3000BC8D1C9237CDEF53FE4FEE0FFF1FE00F0F
:101D4000F11F80819181009709F42CCDDC01ED9188
:101D5000FC910190F081E02D6F89788D199522CD4D
:101D60004F925F926F927F928F929F92AF92BF92AB
:101D7000CF92DF92EF92FF920F931F93CF93DF9357
:101D8000EC017B018A81FB0180838B8181838C81C3
:101D900082838D8183833496412C512C320104E05F
:101DA00010E09F012F5F3F4FCF010296DF01139696
:101DB000A8010C5F1F4F8A809B80AC80BD804814B7
:101DC00059046A047B04C8F4AA85BB85A40FB51F17
:101DD00014974C9111962C91119712969C911297F1
:101DE00013968C9140832183928383838FEF481ACB
:101DF000580A680A780A3496D4CF4C8540834D85BA
:101E0000F90140832E85FC0120838F858C93F70197
:101E1000E00FF11F412C512C3201AF019F012F5FC8
:101E20003F4FCF010296DF0113960C5F1F4F8C844A
:101E30009D84AE84BF84481459046A047B04D8F49A
:101E4000CF01841B950BAC89BD89A80FB91F3C91AC
:101E500011962C91119712969C91129713968C9132
:101E600030832183928383838FEF481A580A680A4C
:101E7000780A3496D3CF4E8940834F89F901408345
:101E8000288DFC012083898D8C93412C512C3201AB
:101E90008E899F89A88DB98D481659066A067B06DA
:101EA00080F55201AA0CBB1CEC8DFD8DEA0DFB1DCB
:101EB000A081B181FD0101900020E9F731976F0108
:101EC000CA1ADB0AA60170E060E0C701800F911F0B
:101ED0000E945D060C5F1F4F8C8D9D8DA80EB91E54
:101EE000F50160817181A601C701800F911F0E94D9
:101EF0005F140C0D1D1DFFEF4F1A5F0A6F0A7F0A5A
:101F0000C7CFC801DF91CF911F910F91FF90EF9044
:101F1000DF90CF90BF90AF909F908F907F906F9009
:101F20005F904F900895EF92FF920F931F93CF937E
:101F3000DF938C017B01DC0112962C911297FB013F
:101F40002193CF011396ED91FC91EF0109900020B0
:101F5000E9F72197CE1BDF0BAE0170E060E00E9435
:101F60005D06D80113966D917C91AE01C70105966F
:101F70000E945F14CE010596DF91CF911F910F91C2
:101F8000FF90EF900895CF92DF92EF92FF920F9320
:101F90001F93CF93DF936C01EB01DC0112968C91C0
:101FA0001297888313968C91139789831496ED91D9
:101FB000FC91DF010D900020E9F78D01015011091E
:101FC0000E1B1F0BA80170E060E0CE0102960E947C
:101FD0005D06F60164817581A801CE0106960E9416
:101FE0005F14C8010696F601A681B781FD01019034
:101FF0000020E9F731977F01EA1AFB0AA70170E098
:1020000060E08C0F9D1F0E945D06065F1F4FD6018A
:1020100016966D917C91A701CE01800F911F0E94B1
:102020005F140E0D1F1DF601A085B185FD01019005
:102030000020E9F731977F01EA1AFB0AA70170E057
:1020400060E0CE01800F911F0E945D060C5F1F4F64
:10205000D60118966D917C91A701CE01800F911F3A
:102060000E945F14C701800F911FF60162854385AE
:1020700034852585C80FD91F688349833A832B830C
:102080000496DF91CF911F910F91FF90EF90DF9019
:10209000CF9008951F920F920FB60F9211240BB696
:1020A0000F922F933F934F935F936F937F938F93F1
:1020B0009F93AF93BF93EF93FF938FEC93E00E94B6
:1020C000C002FF91EF91BF91AF919F918F917F914E
:1020D0006F915F914F913F912F910F900BBE0F9099
:1020E0000FBE0F901F9018951F920F920FB60F9270
:1020F00011240BB60F922F938F939F93EF93FF931F
:10210000E091DF03F091E0038081E091E503F0913D
:10211000E60382FD1DC090818091E8038F5F8F737D
:102120002091E903821741F0E091E803F0E0E153E8
:10213000FC4F958F8093E803FF91EF919F918F91D2
:102140002F910F900BBE0F900FBE0F901F90189500
:102150008081F2CF1F920F920FB60F9211242F930E
:102160003F938F939F93AF93BF938091C5039091BB
:10217000C603A091C703B091C8033091C40323E004
:10218000230F2D3758F50196A11DB11D2093C403CF
:102190008093C5039093C603A093C703B093C8036D
:1021A0008091C9039091CA03A091CB03B091CC0355
:1021B0000196A11DB11D8093C9039093CA03A093FA
:1021C000CB03B093CC03BF91AF919F918F913F917F
:1021D0002F910F900FBE0F901F90189526E8230F98
:1021E0000296A11DB11DD2CF1092D2031092D1033D
:1021F00088EE93E0A0E0B0E08093D3039093D40303
:10220000A093D503B093D6038EE492E09093D003CD
:102210008093CF0385EC90E09093DC038093DB0305
:1022200084EC90E09093DE038093DD0380EC90E0FB
:102230009093E0038093DF0381EC90E09093E203BE
:102240008093E10382EC90E09093E4038093E303B6
:1022500086EC90E09093E6038093E5031092E80308
:102260001092E9031092EA031092EB038CE692E0DD
:1022700090938D0480938C048FEC93E090938F0463
:1022800080938E0480E091EEA0E0B0E08093900413
:1022900090939104A0939204B09393041092120926
:1022A00080E692E0909321098093200910923609EC
:1022B00010923709109238091092390910923D098D
:1022C00010923C09E4EAF8E01192119288E0E63DB0
:1022D000F807D1F7E6EDF8E01192119289E0E830C5
:1022E000F807D1F7E4EAF4E084EA96E011928E1759
:1022F0009F07E1F7E4EAF6E0119288E0E43AF80794
:10230000D9F71092220910922309109224091092F1
:10231000250910922B0910922A0910922C0910926B
:102320002D0910922E0910922F0910923509109242
:1023300034091092A0041092A1041092A2041092E9
:10234000A30482E892E090937D0480937C0486E766
:1023500092E09093830480938204109284041092FC
:10236000850410928604109287042EEE36E0309396
:1023700089042093880421E030E030938B0420937B
:102380008A0421EB33E030938104209380049093FE
:102390007704809376041092780410927904109256
:1023A0007A0410927B048BEB93E090936D048093FE
:1023B0006C0486E794E090936F0480936E0410920F
:1023C0007504109274040895789484B5826084BD75
:1023D00084B5816084BD85B5826085BD85B5816029
:1023E00085BD80916E00816080936E0010928100A7
:1023F0008091810082608093810080918100816062
:102400008093810080918000816080938000809122
:10241000B10084608093B1008091B00081608093AE
:10242000B000809191008260809391008091910032
:1024300081608093910080919000816080939000F2
:102440008091A10082608093A1008091A1008160B1
:102450008093A1008091A00081608093A000809172
:10246000210182608093210180912101816080930C
:1024700021018091200181608093200180917A0068
:10248000846080937A0080917A00826080937A00E1
:1024900080917A00816080937A0080917A008068D0
:1024A00080937A001092C10040E051EE60E070E04D
:1024B0008FEC93E00E94CD014091900450919104E3
:1024C000609192047091930480918E0490918F0496
:1024D0000E94CD01109209091092080910920B096F
:1024E00010920A0910920F0910920E0910920D090C
:1024F00010920C09E4EAF8E090E080E0219131913B
:10250000232B09F073C0FC01EE0FFF1FEC55F74FB2
:102510002CE634E03183208383589F4F90937104DD
:10252000809370048CE894E0909373048093720419
:10253000E6EDF8E090E080E021913191232B09F065
:102540005BC0FC01EE0FFF1FEA52F74F2CE734E0AF
:10255000318320838C599F4F90937F0480937E0416
:102560008DE00E942D028BE00E942D028CE00E94E3
:102570002D0288E00E942D028AE00E942D0289E04F
:102580000E942D0270E060E090E080E00E9463060F
:102590008091CD039091CE03092E000CAA0BBB0BAA
:1025A0008093780490937904A0937A04B0937B0489
:1025B0008091720490917304609170047091710421
:1025C000DC01ED91FC910190F081E02D46E754E0B3
:1025D00019958CE894E00E94500B64E670E080E06E
:1025E00090E00E9407050E944F03D2CF01968931E7
:1025F000910509F083CF9CCF01968931910509F0AF
:102600009BCFAECFDB018F939F930E945013BF915E
:10261000AF91A29F800D911DA39F900DB29F900D31
:102620001124089597FB072E16F4009407D077FD28
:1026300009D00E945B1307FC05D03EF4909581956C
:102640009F4F0895709561957F4F0895A1E21A2ECE
:10265000AA1BBB1BFD010DC0AA1FBB1FEE1FFF1F46
:10266000A217B307E407F50720F0A21BB30BE40B96
:10267000F50B661F771F881F991F1A9469F76095DD
:102680007095809590959B01AC01BD01CF01089597
:10269000EE0FFF1F881F8BBF0790F691E02D199456
:1026A0000E946F13A59F900DB49F900DA49F800D65
:1026B000911D11240895AA1BBB1B51E107C0AA1F3D
:1026C000BB1FA617B70710F0A61BB70B881F991FD3
:1026D0005A95A9F780959095BC01CD010895A29FC8
:1026E000B001B39FC001A39F700D811D1124911DE6
:1026F000B29F700D811D1124911D08954F925F921C
:102700006F927F928F929F92AF92BF92CF92DF9201
:10271000EF92FF920F931F93CF93DF938C0100975B
:1027200099F4CB01DF91CF911F910F91FF90EF9022
:10273000DF90CF90BF90AF909F908F907F906F90E1
:102740005F904F900C946814FC01E60FF71F9C01FA
:1027500022503109E217F30708F4AEC0D901CD9138
:10276000DC911197C617D70720F1C530D10578F055
:10277000CE0104978617970750F0C61BD70B2297F8
:10278000C193D1936D937C93CF010E940415C8012E
:10279000DF91CF911F910F91FF90EF90DF90CF903D
:1027A000BF90AF909F908F907F906F905F904F9071
:1027B00008955B01AC1ABD0A4C018C0E9D1EA091C0
:1027C0004009B0914109512C412CF12CE12C10977A
:1027D00031F580913E0990913F098815990509F0DE
:1027E0005CC04616570608F058C0809104029091CC
:1027F0000502009741F48DB79EB7409108025091B1
:102800000902841B950BE817F90708F055C0F093EF
:102810003F09E0933E09F90171836083B8CF8D9140
:102820009C91119712966C90129713967C90139727
:10283000A815B90559F56C0142E0C40ED11CCA14A3
:10284000DB0420F1AC014A195B09DA0112961597F5
:1028500080F06282738251834083D9016D937C93AF
:10286000E114F10471F0D7011396FC93EE931297E3
:102870008ECF22968C0F9D1FF90191838083F301E7
:10288000EFCFF0934109E093400981CF48165906F4
:1028900008F42C017D01D3019ACFCB010E9468146A
:1028A0007C01009749F0AE01B8010E945F14C80195
:1028B0000E94041587016BCF10E000E068CFFB0198
:1028C000DC0102C001900D9241505040D8F70895AC
:1028D0000F931F93CF93DF938230910510F482E022
:1028E00090E0E0914009F091410930E020E0B0E053
:1028F000A0E0309799F42115310509F44AC0281B4E
:10290000390B24303105D8F58A819B816115710519
:1029100089F1FB0193838283FE0111C040815181C3
:102920000281138148175907E0F04817590799F4B5
:10293000109761F012960C93129713961C9332968F
:10294000CF01DF91CF911F910F910895009340091E
:1029500010934109F4CF2115310551F04217530767
:1029600038F0A901DB019A01BD01DF01F801C1CFF7
:10297000EF01F9CF9093410980934009CDCFFE013B
:10298000E20FF31F819391932250310939832883F9
:10299000D7CF20913E0930913F09232B41F420915C
:1029A00006023091070230933F0920933E0920919F
:1029B0000402309105022115310541F42DB73EB7CF
:1029C0004091080250910902241B350BE0913E0909
:1029D000F0913F09E217F307A0F42E1B3F0B2817D5
:1029E000390778F0AC014E5F5F4F2417350748F088
:1029F0004E0F5F1F50933F0940933E09819391937F
:102A00009FCFF0E0E0E09CCFCF93DF930097E9F019
:102A1000FC01329713821282A0914009B0914109C2
:102A2000ED0130E020E01097A1F420813181820F88
:102A3000931F20913E0930913F092817390709F06B
:102A400061C0F0933F09E0933E09DF91CF91089573
:102A5000EA01CE17DF07E8F54A815B819E01411547
:102A60005105B1F7E901FB83EA8349915991C40FFC
:102A7000D51FEC17FD0761F4808191810296840FC8
:102A8000951FE90199838883828193819B838A833F
:102A9000F0E0E0E012968D919C9113970097B9F5C4
:102AA0002D913C911197CD010296820F931F209199
:102AB0003E0930913F092817390739F6309751F50B
:102AC0001092410910924009B0933F09A0933E092A
:102AD000BCCFD383C28340815181840F951FC81717
:102AE000D90761F44E5F5F4F88819981480F591F64
:102AF000518340838A819B81938382832115310591
:102B000009F0B0CFF0934109E09340099ECFFD0159
:0E2B1000DC01C0CF13821282D7CFF894FFCF22
:102B1E0064006400000042098000726F7373657276
:102B2E0069616C5F6D7367732F5265717565737430
:102B3E00506172616D0000000000C30F6C086908DF
:102B4E00660800000000A909630960095D0900001C
:102B5E000000930F10080D080A0800000000E202A2
:102B6E004C0279022F03AA0288029C020000000088
:102B7E00B00ECD0907080408000000005405500BE4
:102B8E00450500000000F007CF074D054A0500007F
:102B9E000000DC0750054D054A05646135393039B2
:102BAE006662653337386165616638356535343749
:102BBE0065383330636331626237007374645F6DFE
:102BCE007367732F496E743332004D65737361678B
:102BDE00652066726F6D2064657669636520647228
:102BEE006F707065643A206D657373616765206CF4
:102BFE006172676572207468616E206275666665C3
:102C0E00722E00396630653938626461363539386E
:102C1E003139383664646635336166613761343014
:102C2E00653439003131616264373331633235399D
:102C3E003333323631636436313833626431326461
:102C4E003632393500726F7373657269616C5F6D00
:102C5E007367732F4C6F6700306164353166383897
:102C6E00666334343839326638633130363834304E
:102C7E00373736343630303500726F73736572699C
:102C8E00616C5F6D7367732F546F706963496E6605
:102C9E006F006364373136366337346335353263EC
:102CAE003331316662636332666535613762633232
:102CBE003839007374645F6D7367732F54696D6573
:102CCE0000746F41726475696E6F0063686174742D
:042CDE00657200001B
:00000001FF
