:100000000C94BA010C9441180C9416180C94EB172C
:100010000C94C0170C9495170C946A170C943F1706
:100020000C9414170C94EB010C94EB010C94EB0161
:100030000C94EB010C94EB010C94EB010C946C18F8
:100040000C94EB010C94EB010C94EB010C94EB0180
:100050000C94EB010C94EB010C94EB010C94CA167C
:100060000C94EB010C9494160C946A160C94EB010E
:100070000C94EB010C94EB010C94EB010C94EB0150
:100080000C94EB010C94EB010C94EB010C94EB0140
:100090000C94EB010C94EB010C94EB010C94EB0130
:1000A0000C94EB010C94EB010C94EB010C94EB0120
:1000B0000C94EB010C94EB010C94EB010C94EB0110
:1000C0000C94EB010C94EB010C94EB010C94EB0100
:1000D0000C94EB010C94EB010C94EB010C94EB01F0
:1000E0000C94EB010C9407040C94550C0C94A9048B
:1000F0000C94F30B0C94460D0C94F5030C94300700
:100100000C9485070C947D100C94EC070C94520C05
:100110000C949F0A0C94F60B0C94E8040C947E0546
:100120000C94F00B0C94C60F0C94A9070C94610A64
:100130000C94F2040C9450070C94DD030C9487117A
:100140000C94B1040C94EB030C94490D0C949D0297
:100150000C94B1030C94AB020C94BB040C94F90BFB
:100160000C944F0C0C9475070C94E30E0C949C0AA1
:100170000C9426080C94A1040C94E7030C94A20A96
:100180000C94480E0C94ED0B0C94920D0C944D02B3
:100190000C94D4030C9430030C9410050C947A0244
:1001A0000C94D7030C94550B0C949F080C940A13D1
:1001B0000C9488050C94E1030C9403040C94960AA7
:1001C0000C9483040C94990A0C94C8030C94010BAE
:1001D0000C94CC030C9460070C94E3070C94F60F7A
:1001E0000C94520B0C9406050C9484050C94D003CB
:1001F0000C94E7070C9406110C9497040C94FD03DF
:100200000C94E3020C94CF040C94C5040C947D0769
:100210000C94FC040C947E040C946E0A0C94820AD8
:100220000C9481050C9465070C94A60E0C94E218AE
:100230000C94F9030C946D070C9480090C942A0813
:100240000C94EF030C944C0D0C94B6030C947905AC
:100250000C9489020C94580B0C9454070C94DE04F3
:100260000C9476040C9478050C948D040000210005
:10027000240027002A002D00300033000101000077
:10028000040107010A0100002200250028002B00BC
:100290002E003100340002010000050108010B01AD
:1002A00005050505070508080808020202020A0AF2
:1002B0000808040404040101010101010101030310
:1002C000030303030303040707070C0C0C0C0C0CBB
:1002D0000C0C0202020206060606060606060B0BB8
:1002E0000B0B0B0B0B0B01021020200808102040F9
:1002F00010204080020102010804020101020408EA
:100300001020408080402010080402018004020177
:1003100080402010080402010804020101020408C0
:1003200010204080010204081020408000000A0BC9
:1003300002090C0D0E080703040100000000000074
:1003400000000000000000000000000000000000AD
:10035000000000000000000012111000000000006A
:10036000000000000000000000000000000000008D
:100370000000E21811241FBECFEFD1E2DEBFCDBFD7
:1003800000E00CBF14E0A0E0B2E0E6ECF0E400E036
:100390000BBF02C007900D92A43CB107D9F72AE029
:1003A000A4ECB4E001C01D92AD3AB207E1F711E050
:1003B000CAEBD1E000E006C021970109802FFE01C1
:1003C0000E941C1EC93BD10780E00807A9F70E94C4
:1003D0000E1A0C9461200C940000CF92DF92EF92E1
:1003E000FF92CF93DF93EC016A017B01E889F989E1
:1003F00082E08083C11481EED806E104F104A1F00B
:1004000060E079E08DE390E0A70196010E94FA1D7B
:10041000215031094109510956954795379527953E
:10042000211580E1380798F0E889F989108260E8A1
:1004300074E88EE190E0A70196010E94FA1D215018
:100440003109410951095695479537952795EC850E
:10045000FD853083EE85FF852083188EEC89FD892C
:1004600086E08083EA89FB89808180618083EA89D4
:10047000FB89808188608083EA89FB89808180682C
:100480008083EA89FB8980818F7D8083DF91CF9192
:10049000FF90EF90DF90CF900895AF92BF92CF92F0
:1004A000DF92EF92FF920F931F93CF93DF936C0134
:1004B0007B018B01040F151FEB015E01AE18BF0815
:1004C000C017D10759F06991D601ED91FC910190C7
:1004D000F081E02DC6011995892B79F7C501DF91CF
:1004E000CF911F910F91FF90EF90DF90CF90BF9031
:1004F000AF900895FC01538D448D252F30E0842F5B
:1005000090E0821B930B541710F0CF96089501973B
:100510000895FC01918D828D981761F0A28DAE0F28
:10052000BF2FB11D5D968C91928D9F5F9F73928FAF
:1005300090E008958FEF9FEF0895FC01918D828DDB
:10054000981731F0828DE80FF11D858D90E00895A8
:100550008FEF9FEF0895FC01918D228D892F90E000
:10056000805C9F4F821B91098F73992708958CE1BE
:1005700095E00E94AB0221E0892B09F420E0822F54
:100580000895FC01A48DA80FB92FB11DA35ABF4F28
:100590002C91848D90E001968F739927848FA68982
:1005A000B7892C93A089B1898C91837080648C93D6
:1005B000938D848D981306C00288F389E02D808185
:1005C0008F7D80830895EF92FF920F931F93CF93B7
:1005D000DF93EC0181E0888F9B8D8C8D98131AC07E
:1005E000E889F989808185FF15C09FB7F894EE8965
:1005F000FF896083E889F9898081837080648083C2
:100600009FBF81E090E0DF91CF911F910F91FF900C
:10061000EF900895F62E0B8D10E00F5F1F4F0F73B4
:100620001127E02E8C8D8E110CC00FB607FCFACF6F
:10063000E889F989808185FFF5CFCE010E94C1024A
:10064000F1CFEB8DEC0FFD2FF11DE35AFF4FF08240
:100650009FB7F8940B8FEA89FB8980818062CFCFA6
:10066000CF93DF93EC01888D8823B9F0AA89BB89E9
:10067000E889F9898C9185FD03C0808186FD0DC0D4
:100680000FB607FCF7CF8C9185FFF2CF808185FFF5
:10069000EDCFCE010E94C102E9CFDF91CF91089545
:1006A00080E090E0892B29F00E94B70281110E941E
:1006B000000080E090E0892B49F080E090E0892BF9
:1006C00029F00E94000081110E94000080E090E06B
:1006D000892B49F080E090E0892B29F00E940000EE
:1006E00081110E94000080E090E0892B49F080E0B9
:1006F00090E0892B29F00E94000081110C940000E9
:100700000895282F30E0F901E45DFC4F9491F90140
:10071000EA51FD4F449120563D4FF9012491222387
:1007200009F435C0992311F191509231F8F4E92F71
:10073000F0E08827E156FC4F8F4F0C941C1ED0032D
:10074000D403B103C803CC03B603D703DD03E1032D
:10075000E703EB03EF03F503F903B603FD0303041B
:100760000704809180008F7780938000E22FF0E073
:10077000EE0FFF1FEA57FD4FA591B4918FB7F89484
:10078000EC91611148C040954E234C938FBF089562
:10079000809180008F7DE8CF80918000877FE4CFBB
:1007A00084B58F7784BDE2CF84B58F7DFBCF8091F8
:1007B000B0008F778093B000D9CF8091B0008F7D4B
:1007C000F9CF809190008F7780939000CFCF809168
:1007D00090008F7DF9CF80919000877FF5CF809139
:1007E000A0008F778093A000C1CF8091A0008F7D63
:1007F000F9CF8091A000877FF5CF809120018F777E
:1008000080932001B3CF809120018F7DF9CF80911B
:100810002001877FF5CF4E2BB8CFCF93DF9390E0A9
:10082000FC01EA51FD4F249180569D4FFC018491BB
:100830008823D1F090E0880F991FFC01E459FD4F07
:10084000A591B491FC01EA57FD4FC591D491611176
:100850000EC09FB7F8948C91E22FE0958E238C9375
:100860002881E223E8839FBFDF91CF9108958FB75E
:10087000F894EC91E22BEC938FBFF6CF1F93CF93BC
:10088000DF93182FEB0161E00E940D04209739F4EB
:1008900060E0812FDF91CF911F910C948103CF3FB6
:1008A000D10511F461E0F5CFE12FF0E0E45DFC4FFC
:1008B000E491E150E23108F0B3C0F0E08827EC5950
:1008C000FB4F8F4F0C941C1E76047E0483048D0412
:1008D00097041005A104A904B104BB04C504CF0406
:1008E000DE04E8041005F204FC04060584B5806803
:1008F00084BDC7BDDF91CF911F91089584B58062FB
:1009000084BDC8BDF7CF809180008068809380004F
:10091000D0938900C0938800EDCF809180008062E1
:1009200080938000D0938B00C0938A00E3CF8091A6
:100930008000886080938000D0938D00C0938C00ED
:10094000D9CF8091B00080688093B000C093B3008D
:10095000D1CF8091B00080628093B000C093B4008A
:10096000C9CF80919000806880939000D0939900C7
:10097000C0939800BFCF80919000806280939000D8
:10098000D0939B00C0939A00B5CF8091900088606F
:1009900080939000D0939D00C0939C00ABCF80913A
:1009A000A00080688093A0008091A0008F7B80933E
:1009B000A000D093A900C093A8009CCF8091A00074
:1009C00080628093A000D093AB00C093AA0092CF26
:1009D0008091A00088608093A000D093AD00C09368
:1009E000AC0088CF80912001806880932001D09353
:1009F0002901C09328017ECF8091200180628093DD
:100A00002001D0932B01C0932A0174CF8091200143
:100A1000886080932001D0932D01C0932C016ACF70
:100A2000C038D1050CF03ECF33CF3FB7F89480915A
:100A3000070590910805A0910905B0910A0526B512
:100A4000A89B05C02F3F19F00196A11DB11D3FBF06
:100A5000BA2FA92F982F8827BC01CD01620F711DD5
:100A6000811D911D42E0660F771F881F991F4A95CF
:100A7000D1F708958F929F92AF92BF92CF92DF925B
:100A8000EF92FF924B015C010E9415056B017C0106
:100A90000E9415056C197D098E099F09683E7340F7
:100AA00081059105A8F321E0821A9108A108B108F7
:100AB00088EEC80E83E0D81EE11CF11C811491045D
:100AC000A104B10429F7FF90EF90DF90CF90BF9081
:100AD000AF909F908F9008952FB7F8946091030581
:100AE0007091040580910505909106052FBF08952A
:100AF00008958A579B4FFC01808108958EEB92E008
:100B000008958FED92E00895FC01868597850895FC
:100B1000AF92BF92CF92DF92EF92FF920F931F930B
:100B2000CF93DF9300D01F921F92CDB7DEB764360C
:100B300071054CF0FC01EA57FB4F2081F12CE12CB0
:100B4000222309F476C0DA017B018C01BC01615ECD
:100B50007D4FED91FC910190F081E02DCA01199536
:100B6000680128EEC21A2DEFD20A2FEFD6012C937E
:100B7000F801E75EFD4F2EEF20833196808331969A
:100B800090833196292F280F209520833196E0827B
:100B90001696FC9245E050E030E020E0DC0116962D
:100BA000A417B50734F06191260F311D4F5F5F4FD9
:100BB000F7CF7C01B8E0EB0EF11C800F911FFC0118
:100BC000E15EFD4F20952083E1E0EE16E2E0FE06B7
:100BD000B4F45601C5018C199D098E159F054CF57D
:100BE000D80112968D919C91F50161915F01DC0114
:100BF000ED91FC910190F081E02D1995EBCF82E50C
:100C000092E09A83898383E08B838EEE92E09D83CA
:100C10008C83D801ED91FC910190F081E02DAE0123
:100C20004F5F5F4F67E070E0C8011995EE24EA94CA
:100C3000FE2CC7010F900F900F900F900F90DF9137
:100C4000CF911F910F91FF90EF90DF90CF90BF90C9
:100C5000AF9008950F931F93CF93DF9300D000D0F0
:100C600000D01F92CDB7DEB78C0186E492E09A8364
:100C700089831B821C821D821E821F821886198610
:100C80001A86D801ED91FC910190F081E02DAE0122
:100C90004F5F5F4F6AE070E0C80119950E946C05D4
:100CA000F80160877187828793872A960FB6F89438
:100CB000DEBF0FBECDBFDF91CF911F910F91089581
:100CC000CF92DF92EF92FF92DC011D921D921D9256
:100CD0001C921397FB0130E020E0419150E0022E7E
:100CE00002C0440F551F0A94E2F7052E000C660B54
:100CF000770BCD90DD90ED90FC9013974C295D29FA
:100D00006E297F294D935D936D937C931397285F94
:100D10003F4F2032310509F7FF90EF90DF90CF90E1
:100D20000895FC0140835183128213820895CF936A
:100D3000DF93EB019093FF048093FE047093FD0416
:100D40006093FC04BC018DE00E943E04BE0188E07B
:100D5000DF91CF910C943E046091100270911102CA
:100D6000605B7F4F80911202909113020C94970662
:100D70006091100270911102809112029091130201
:100D8000805B9F4F0C949706609110027091110246
:100D9000605B7F4F80911202909113020C94970632
:100DA000CF93DF93EC0160E08BE00E94810361E070
:100DB0008CE00E94810360E089E00E94810361E091
:100DC0008AE00E948103C730D10599F46091100236
:100DD000709111026E5C7F4F80911202909113020C
:100DE000C2960E94970664EF71E080E090E00E9456
:100DF0003A05D0930105C0930005DF91CF91089586
:100E0000CF93DF93EC0161E08BE00E94810360E00F
:100E10008CE00E94810361E089E00E94810360E030
:100E20008AE00E948103C730D10599F460911002D5
:100E3000709111026E5C7F4F8091120290911302AB
:100E4000C2960E94970664EF71E080E090E00E94F5
:100E50003A05D0930105C0930005DF91CF91089525
:100E6000CF93DF93FC0182819381A481B5810197A7
:100E7000A109B10989309105A105B10508F066C045
:100E8000FC018827E95BF84F8F4F0C941C1E50071C
:100E9000600765076D0775077D078507A907EC07DC
:100EA00081E090E00E9400076091100270911102B1
:100EB0008091120290911302DF91CF910C949706CA
:100EC00082E090E00E94D006EFCF83E090E00E94A5
:100ED0000007DF91CF910C94C40684E090E00E945B
:100EE0000007DF91CF910C94B80685E090E00E9456
:100EF000D006DF91CF910C94C40686E090E00E946A
:100F0000D006DF91CF910C94B80680911002909199
:100F10001102C0911202D0911302C817D9070CF424
:100F2000EC011C161D0664F4BE01CE010E9497065A
:100F300064EF71E080E090E00E943A052A97F1CFDB
:100F400087E090E09093010580930005DF91CF91B9
:100F50000895E0910005F091010520911202309171
:100F60001302265F3F4F30931302209312028091A9
:100F70001002909111020A96909311028093100230
:100F80002B3F310534F02AEF30E0309313022093E9
:100F900012028B3F910534F08AEF90E0909311029A
:100FA000809310023197E730F10580F68827E452EC
:100FB000F84F8F4F0C941C1E54075407E307E307A8
:100FC0002A082A08E707DF91CF910C94AC0670E05D
:100FD00060E090E080E070CFE0910005F0910105C5
:100FE00020911202309113022A50310930931302DA
:100FF0002093120280911002909111020A9790930F
:101000001102809310022832310534F428E230E0D6
:101010003093130220931202889734F488E290E010
:1010200090931102809310023197E730F10508F098
:101030008DCF8827E15EF74F8F4F0C941C1E54070D
:101040005407260826082A082A08E707DF91CF91C7
:101050000C94AC0660911002709111028091120202
:1010600090911302805B9F4F27CF83339105ECF162
:101070008C339105E9F186349105E9F180359105CC
:10108000E9F18A359105E9F184369105E9F18E3669
:101090009105E9F188379105E9F182389105E9F187
:1010A0008C389105D1F186399105D1F1803A9105BD
:1010B000B9F18A3A9105B9F1843B9105A1F18E3BD2
:1010C000910589F1883C910589F1823D910571F185
:1010D0008C3D910559F1863E910559F1803F91056E
:1010E00041F18A3F910541F108958CE390E0089524
:1010F00080EF90E0089588E691E0089584EA91E019
:1011000008958CE192E0089588E592E0089584E9DD
:1011100092E0089580ED92E008958CE093E00895C8
:1011200088E493E0089584E893E0089580EC93E0E8
:1011300008958CEF93E0089588E394E00895CF92AA
:10114000DF92EF92FF928091FA049091FB04019656
:101150009093FB048093FA048091FC049091FD0429
:101160000E9435082091180530911905821B930BB8
:101170009093F9048093F8046091F8047091F90455
:10118000C090F404D090F504E090F604F090F704D9
:10119000072E000C880B990B0E94DD1C2FE632E114
:1011A00043E85BE30E94691DA70196010E94C71BEB
:1011B0006093F4047093F5048093F6049093F7041D
:1011C0006091F8047091F904072E000C880B990BBC
:1011D0000E94DD1C6093F0047093F1048093F2048C
:1011E0009093F3048091F4049091F504A091F60497
:1011F000B091F7048093EC049093ED04A093EE0477
:10120000B093EF046091F8047091F904C090E80481
:10121000D090E904E090EA04F090EB04072E000C73
:10122000880B990B0E94DD1CA70196010E94C61B2A
:101230006093E4047093E5048093E6049093E704DC
:101240006091F0047091F1048091F2049091F304A4
:101250002091EC043091ED044091EE045091EF04A4
:10126000C090E404D090E504E090E604F090E70438
:101270000E94C71BA70196010E94C71B6093E00450
:101280007093E1048093E2049093E3046091E0049E
:101290007091E1048091E2049091E30420E030E059
:1012A0004FE753E40E94691D20E030E047E854E432
:1012B0000E94331C0E94A51C209110023091110243
:1012C000620F731F709311026093100288E00E94F6
:1012D0003E046091F8047091F904072E000C880B0D
:1012E000990B0E94DD1C6093E8047093E9048093DD
:1012F000EA049093EB04FF90EF90DF90CF90089575
:10130000CF92DF92EF92FF928091DE049091DF0402
:1013100001969093DF048093DE048091FE04909107
:10132000FF040E94350820911A0530911B05821B8D
:10133000930B9093DD048093DC046091DC04709146
:10134000DD04C090D804D090D904E090DA04F09085
:10135000DB04072E000C880B990B0E94DD1C2FE686
:1013600032E143E85BE30E94691DA70196010E94F8
:10137000C71B6093D8047093D9048093DA049093C8
:10138000DB046091DC047091DD04072E000C880BF7
:10139000990B0E94DD1C6093D4047093D504809354
:1013A000D6049093D7048091D8049091D904A09149
:1013B000DA04B091DB048093D0049093D104A0931D
:1013C000D204B093D3046091DC047091DD04C0902A
:1013D000CC04D090CD04E090CE04F090CF04072E42
:1013E000000C880B990B0E94DD1CA70196010E943E
:1013F000C61B6093C8047093C9048093CA04909379
:10140000CB046091D4047091D5048091D60490915E
:10141000D7042091D0043091D1044091D20450914E
:10142000D304C090C804D090C904E090CA04F090DE
:10143000CB040E94C71BA70196010E94C71B6093A3
:10144000C4047093C5048093C6049093C70460914C
:10145000C4047091C5048091C6049091C70420E033
:1014600030E04FE753E40E94691D20E030E047E898
:1014700054E40E94331C0E94A51C2091120230915A
:101480001302620F731F70931302609312028DE0B8
:101490000E943E046091DC047091DD04072E000C74
:1014A000880B990B0E94DD1C6093CC047093CD04D3
:1014B0008093CE049093CF04FF90EF90DF90CF9075
:1014C0000895FB014081518162817381FC01428357
:1014D00053836483758384E090E008950F931F9392
:1014E000CF93DF938C01EC012696CE010E94610A16
:1014F000D8011C96ED91FC91CE01DF91CF911F9107
:101500000F911994DC01FB0112964C9112971396DE
:101510002C91139714969C91149715968C91408357
:1015200021839283838384E090E0089587E293E0AF
:10153000089588E493E0089581E693E0089582E8B1
:1015400093E008958F929F92AF92BF92CF92DF92D5
:10155000EF92FF920F931F93CF93DF93EC018B01D8
:101560008A81FB0180838B8181838C8182838D8141
:101570008383D12CC12C812C912C540184E0E82E42
:10158000F12CD801AE0DBF1D4A815B816C817D813C
:1015900084169506A606B706C0F48A899B898C0D29
:1015A0009D1DFC0120813181F90120813181BD0126
:1015B000F9011995E80EF91EFFEF8F1A9F0AAF0A7D
:1015C000BF0A8CE0C80ED11CDCCF8C898C938D892E
:1015D00011968C9311978E8912968C9312978F89FE
:1015E00013968C93C7010496DF91CF911F910F91B1
:1015F000FF90EF90DF90CF90BF90AF909F908F9033
:101600000895AF92BF92DF92EF92FF920F931F93D4
:10161000CF93DF93EC018B0102960E94A20A58013E
:10162000A80EB91E2A8DF50120832B8D21832C8DC8
:1016300022832D8D23830496D50140E050E0BA012A
:101640000A8D1B8D2C8D3D8D401751076207730746
:10165000F8F49D012A193B09EAA0FBA0E20EF31E53
:10166000F701D0801181328123811496DC92149786
:1016700015961C93159716963C93169717962C93D0
:10168000179704964F5F5F4F6F4F7F4F1496D8CFD9
:10169000DF91CF911F910F91FF90EF90DF90BF905E
:1016A000AF9008958CE993E008958DEB93E0089551
:1016B0004F925F926F927F928F929F92AF92BF9262
:1016C000EF92FF920F931F93CF93DF9300D01F925F
:1016D000CDB7DEB78C017B01CE0101960E9460067A
:1016E00089819A81AB81BC814C015D0124E0820E2D
:1016F000911CA11CB11CA7014D5F5F4FFA0124E0B2
:1017000030E02901712C612C481459046A047B04CF
:1017100028F4618161932F5F3F4FF3CFE80EF91EEC
:10172000F7011382F80153834283F701448150E0AB
:1017300070E060E0F8014483558366837783F701A6
:101740002581522BF8014483558366837783F70103
:101750002681622BF8014483558366837783F701E2
:101760002781722BF8014483558366837783F701C1
:10177000408550E070E060E0F80140875187628763
:101780007387F7012185522BF801408751876287C3
:101790007387F7012285622BF801408751876287A2
:1017A0007387F7012385722BF80140875187628781
:1017B00073870C960F900F900F900F90DF91CF9141
:1017C0001F910F91FF90EF90BF90AF909F908F90DF
:1017D0007F906F905F904F9008958AED93E0089509
:1017E0008AE192E008958BEF93E008958CE194E014
:1017F00008954F925F926F927F928F929F92AF92D5
:10180000BF92EF92FF920F931F93CF93DF9300D07D
:101810001F92CDB7DEB77C018B01FB018191BF0127
:10182000F7018283CE0101960E94600689819A8128
:10183000AB81BC814C015D01F5E08F0E911CA11CB8
:10184000B11CA8014C5F5F4FFA0125E030E029018F
:10185000712C612C481459046A047B0428F46181BA
:1018600061932F5F3F4FF3CFF801E80FF91F148208
:10187000F7015483438305960F900F900F900F90BC
:10188000DF91CF911F910F91FF90EF90BF90AF909C
:101890009F908F907F906F905F904F9008958FE210
:1018A00094E0089580E594E008954F925F926F92DE
:1018B0007F928F929F92AF92BF92CF92DF92EF92E0
:1018C000FF920F931F93CF93DF93CDB7DEB72C9783
:1018D0000FB6F894DEBF0FBECDBF7C018B01DB01DC
:1018E0008C9190E0F7019383828311962C91922B37
:1018F000938382836E5F7F4FCE0101960E946006C4
:1019000089809A80AB80BC8024013501F6E04F0EBF
:10191000511C611C711C98012B5F3F4FF90186E03F
:1019200090E0AC0170E060E0441555056605770570
:1019300020F4418141930196F4CFB4016A5F7F4F57
:10194000F801E80DF91D1582D70115963C932E93E9
:101950001497600F711FCE0105960E946006BAE0D1
:101960008B0E911C4D805E806F807884C401092CA1
:10197000000CAA0BBB0B5C016D01A40CB51CC61CB2
:10198000D71CF801E80DF91DAF01401B510B70E0A9
:1019900060E04A155B056C057D0538F42191AF01C7
:1019A00042505109DA012C93EFCF480C591CB80171
:1019B000640D751DFB0131971082C4010197800FE2
:1019C000911FF70197838683CE0109960E946006D6
:1019D00092012C5F3F4F89849A84AB84BC84A90117
:1019E000032E000C660B770B480D591D6A1D7B1DDD
:1019F000F801E20FF31FCF01801B910BB0E0A0E0D4
:101A000084179507A607B70728F48191DF0112977D
:101A10008C93F1CFC901880D991DF801E80FF91FCA
:101A2000DF0111971C9221503109020F131FD701BA
:101A300019961C930E9318972181428150E070E013
:101A400060E0BA0155274427522B2081422B238185
:101A5000722BF701428753876487758704962C960B
:101A60000FB6F894DEBF0FBECDBFDF91CF911F91AF
:101A70000F91FF90EF90DF90CF90BF90AF909F902D
:101A80008F907F906F905F904F90089589E694E0DB
:101A900008958AE894E00895FC01DB014C9150E040
:101AA00070E060E0428353836483758311968C9168
:101AB0001197582B428353836483758312968C91BC
:101AC0001297682B428353836483758313968C919A
:101AD0001397782B428353836483758314964C91B8
:101AE000149750E070E060E0468357836087718709
:101AF00015968C911597582B46835783608771876D
:101B000016968C911697682B46835783608771874A
:101B100017968C91782B468357836087718788E06E
:101B200090E00895DC01FB0112968C91129780835E
:101B300013968C911397818314968C9114978283BA
:101B400015968C911597838316968C91169784839E
:101B500017968C911797858318968C911897868382
:101B600019968C91878388E090E00895FC0101909C
:101B70000020E9F73197AF01481B590BBC018CE1FC
:101B800095E00C944D028F929F92AF92BF92CF92AC
:101B9000DF92EF92FF920F931F93CF93DF93CDB716
:101BA000DEB7A1970FB6F894DEBF0FBECDBF6C01B4
:101BB000990FEE08FF08F7FE47C06DE28CE195E053
:101BC0000E94E3028C0122273327A9012C193D0929
:101BD0004E095F0919A2CE0181967C019AE0892EF7
:101BE000912CA12CB12CCA01B901A50194010E942C
:101BF000FA1D605DF70162937F01211531054105F2
:101C0000510589F790E080E0309719F0CF010E94EC
:101C1000B60D080F191F88E994E00E94B60D800FD9
:101C2000911FA1960FB6F894DEBF0FBECDBFDF9116
:101C3000CF911F910F91FF90EF90DF90CF90BF90C9
:101C4000AF909F908F900895A701960119A28E01E1
:101C50000F5D1F4F8AE0C82ED12CE12CF12CCA0158
:101C6000B901A70196010E94FA1D605DF801629317
:101C70008F01211531054105510589F7309729F06C
:101C8000CF010E94B60D8C01C6CF10E000E0C3CF9B
:101C9000CF936091DE047091DF04072E000C880B57
:101CA000990B0E94DD1C9B01AC010E94C71B20E028
:101CB00030E048E452E40E94331C0E94A51CCCE3AF
:101CC000C69F9001C79F300D112430931B052093B0
:101CD0001A056091FA047091FB04072E000C880B22
:101CE000990B0E94DD1C9B01AC010E94C71B20E0E8
:101CF00030E048E452E40E94331C0E94A51CC69FB9
:101D00009001C79F300D11243093190520931805B9
:101D10008BE994E00E94B60D80911A0590911B0505
:101D20000E94C30D86EA94E00E94B60D80911805CA
:101D3000909119050E94C30D1092DF041092DE04E9
:101D40001092FB041092FA04CF910895EF92FF9243
:101D50000F931F93CF93DF938C01EB01FC01A281C2
:101D6000B381FD0101900020E9F731977F01EA1A64
:101D7000FB0AA70170E060E0CE010E949106F80125
:101D800062817381A701CE0104960E94331FCE0D9C
:101D9000DF1DF80184818C8385818D8386818E830C
:101DA00087818F83808588878185898782858A87D7
:101DB00083858B87C7010C96DF91CF911F910F917F
:101DC000FF90EF9008954F925F926F927F928F9263
:101DD0009F92AF92BF92CF92DF92EF92FF920F93BA
:101DE0001F93CF93DF93EC017B018A81FB018083FA
:101DF0008B8181838C8182838D8183833496412C76
:101E0000512C320104E010E09F012F5F3F4FCF01C2
:101E10000296DF011396A8010C5F1F4F8A809B80FA
:101E2000AC80BD80481459046A047B04C8F4AA85B8
:101E3000BB85A40FB51F14974C9111962C91119747
:101E400012969C91129713968C91408321839283D2
:101E500083838FEF481A580A680A780A3496D4CFD9
:101E60004C8540834D85F90140832E85FC012083FC
:101E70008F858C93F701E00FF11F412C512C32011B
:101E8000AF019F012F5F3F4FCF010296DF011396F5
:101E90000C5F1F4F8C849D84AE84BF84481459040A
:101EA0006A047B04D8F4CF01841B950BAC89BD89EF
:101EB000A80FB91F3C9111962C91119712969C91E5
:101EC000129713968C9130832183928383838FEFB3
:101ED000481A580A680A780A3496D3CF4E89408344
:101EE0004F89F9014083288DFC012083898D8C93D3
:101EF000412C512C32018E899F89A88DB98D4816AD
:101F000059066A067B0680F55201AA0CBB1CEC8DB3
:101F1000FD8DEA0DFB1DA081B181FD010190002026
:101F2000E9F731976F01CA1ADB0AA60170E060E099
:101F3000C701800F911F0E9491060C5F1F4F8C8D6F
:101F40009D8DA80EB91EF50160817181A601C701A2
:101F5000800F911F0E94331F0C0D1D1DFFEF4F1AA4
:101F60005F0A6F0A7F0AC7CFC801DF91CF911F9127
:101F70000F91FF90EF90DF90CF90BF90AF909F9028
:101F80008F907F906F905F904F900895EF92FF92A7
:101F90000F931F93CF93DF938C017B01DC0112968B
:101FA0002C911297FB012193CF011396ED91FC9197
:101FB000EF0109900020E9F72197CE1BDF0BAE015E
:101FC00070E060E00E949106D80113966D917C91BB
:101FD000AE01C70105960E94331FCE010596DF9121
:101FE000CF911F910F91FF90EF900895CF92DF92C4
:101FF000EF92FF920F931F93CF93DF936C01EB014E
:10200000DC0112968C911297888313968C9113970A
:1020100089831496ED91FC91DF010D900020E9F782
:102020008D01015011090E1B1F0BA80170E060E02B
:10203000CE0102960E949106F60164817581A80185
:10204000CE0106960E94331FC8010696F601A681AE
:10205000B781FD0101900020E9F731977F01EA1A6D
:10206000FB0AA70170E060E08C0F9D1F0E949106A3
:10207000065F1F4FD60116966D917C91A701CE0188
:10208000800F911F0E94331F0E0D1F1DF601A085AA
:10209000B185FD0101900020E9F731977F01EA1A2F
:1020A000FB0AA70170E060E0CE01800F911F0E9443
:1020B00091060C5F1F4FD60118966D917C91A70178
:1020C000CE01800F911F0E94331FC701800F911F07
:1020D000F6016285438534852585C80FD91F68833D
:1020E00049833A832B830496DF91CF911F910F91FF
:1020F000FF90EF90DF90CF9008954F925F926F9294
:102100007F92AF92BF92CF92DF92EF92FF920F93A6
:102110001F93CF93DF93EC015B01FB01C080D18063
:10212000E280F3808A819B81AC81BD818C159D0505
:10213000AE05BF0560F48CE08C9DB0018D9D700DE7
:1021400011248A899B890E94521E9B8B8A8BCA828A
:10215000DB82EC82FD82F12CE12C412C512C3201EE
:1021600004E010E06E01F6E0CF0ED11CF501E00FA7
:10217000F11F8A819B81AC81BD81481659066A0690
:102180007B06C8F4BF01C6010E94580B080F191F37
:10219000AA89BB89AE0DBF1D8CE0F60101900D929E
:1021A0008A95E1F78FEF481A580A680A780AECE036
:1021B000EE0EF11CDBCF808190E0B0E0A0E08C8BD4
:1021C0009D8BAE8BBF8B2181922B8C8B9D8BAE8B8D
:1021D000BF8B2281A22B8C8B9D8BAE8BBF8B2381DF
:1021E000B22B8C8B9D8BAE8BBF8BC8010496DF917D
:1021F000CF911F910F91FF90EF90DF90CF90BF9004
:10220000AF907F906F905F904F900895AF92BF9284
:10221000CF92DF92EF92FF920F931F93CF93DF93B2
:10222000EC018B0102960E947D10080F191FF80126
:1022300020813181C280D12CF12CE12C7601DD246A
:10224000CC24D32AC22A2381F22A5C01F4E0AF0E07
:10225000B11C8A8D9B8DAC8DBD8D8C159D05AE05F9
:10226000BF0558F4B601660F771F660F771F8AA166
:102270009BA10E94521E9BA38AA3CA8EDB8EEC8E6A
:10228000FD8E9801C12CD12C7601AE01425E5F4FCC
:102290008A8D9B8DAC8DBD8DC816D906EA06FB06CE
:1022A00050F5F9016581868190E0B0E0A0E0DC01A5
:1022B00099278827962B6481862B6781B62B8E8F72
:1022C0009F8FA8A3B9A3F4E0AF0EB11CC901801B76
:1022D000910BAAA1BBA1A80FB91F84E0FA0101903C
:1022E0000D928A95E1F78FEFC81AD80AE80AF80A22
:1022F0002C5F3F4FCDCFC501DF91CF911F910F9143
:10230000FF90EF90DF90CF90BF90AF9008952F9205
:102310003F924F925F926F927F928F929F92AF9275
:10232000BF92CF92DF92EF92FF920F931F93CF93C2
:10233000DF93CDB7DEB72E970FB6F894DEBF0FBE92
:10234000CDBF8C016B01DB018D909D90AD90BC9059
:10235000FC0182819381A481B58188159905AA0524
:10236000BB0570F4B401660F771F660F771F828577
:1023700093850E94521ED8011B969C938E931A97A8
:10238000F80182829382A482B582C60140E050E0C7
:10239000BA01A4E0EA2EF12C98012A5F3F4FDC013C
:1023A0001596EC91159716964C901697512C712C0A
:1023B000612C3201552444245E2A1496EC91149722
:1023C0004E2A1796EC917E2AD7011701E4E02E0ED3
:1023D000311C71010496F80182809380A480B5803D
:1023E000481559056A057B05A8F446825782608620
:1023F00071861497A284B384AA0DBB1DE4E0BE2E9F
:10240000F90101900D92BA94E1F74F5F5F4F6F4F62
:102410007F4FC5CF84859585A685B785841595059D
:10242000A605B70570F4B201660F771F660F771F18
:10243000848995890E94521ED80155969C938E934B
:102440005497F8014486558666867786C601820DC4
:10245000931D412C512C32011C019801205F3F4FEC
:10246000DC0111966C91119712968C901297912C19
:10247000B12CA12C540199248824962A6C91862A87
:1024800013966C91B62AB4E0EB0EF11CF80144856A
:102490005585668577854416550666067706C0F429
:1024A000808A918AA28AB38ABC0162197309A489BD
:1024B000B589A60FB71F64E0F90101900D926A95E6
:1024C000E1F7BFEF4B1A5B0A6B0A7B0A0496C8CF91
:1024D00086899789A08DB18D88159905AA05BB05B8
:1024E00060F4B401660F771F848D958D0E94521E93
:1024F000D8015D969C938E935C97F801868A978AA3
:10250000A08EB18E412C512C32011801FAE12F0E10
:10251000311CF80186899789A08DB18D481659061E
:102520006A067B0608F05CC0B6016E0D7F1DCE0109
:1025300001960E94600697012C5F3F4F3E872D87D2
:1025400089809A80AB80BC80C901032E000CAA0B45
:10255000BB0BAC01BD01480D591D6A1D7B1D498790
:102560005A876B877C87F901EC0DFD1D9F012C19A3
:102570003D09B90190E080E029853A854B855C856D
:10258000621773078407950728F42191DF011297DA
:102590002C93ECCFED84FE84E80CF91CF601EE0DD3
:1025A000FF1D319710828D859E8501978C0D9D1D95
:1025B000D8015B969C938E935A97C201880F991FFE
:1025C0005C96ED91FC91E80FF91FD1018D919C91E2
:1025D00091838083BFEF4B1A5B0A6B0A7B0A99CF0A
:1025E000C7012E960FB6F894DEBF0FBECDBFDF91A8
:1025F000CF911F910F91FF90EF90DF90CF90BF9000
:10260000AF909F908F907F906F905F904F903F9092
:102610002F9008952F923F924F925F926F927F92E8
:102620008F929F92AF92BF92CF92DF92EF92FF92E2
:102630000F931F93CF93DF93CDB7DEB7A6970FB657
:10264000F894DEBF0FBECDBF8C010E946C054B011C
:102650005C01980125573B4F3E8B2D8BF901808102
:102660009181A281B38175016401C81AD90AEA0A6D
:10267000FB0AD701C601893F9A42A105B10510F0B6
:1026800035971082180134E8231A3BEF330AD10141
:102690008D919C91892B79F0F801E157FB4F808156
:1026A0009181A281B38188159905AA05BB0518F40B
:1026B000F1011182108298012C573B4F3A8B298BE4
:1026C000A80140585B4F5C8B4B8BC8014896988F94
:1026D0008F8BD801AA57BB4FBC8FAB8FF801EC563C
:1026E000FB4FFE8FED8F215F3F4F38A32F8F42505E
:1026F0005109588B4F8786599B4F9A8F898F19960E
:10270000BAA3A9A3A50194012C5E3F4F4F4F5F4F81
:102710002BA33CA34DA35EA3F80184899589A689C8
:10272000B789892B8A2B8B2BB9F5D80112968D91FD
:102730009C91DC01ED91FC910284F385E02D1995CB
:102740009C0197FF3DC0F801EA57FB4F8081882329
:1027500001F17801B9E7EB1ABBEFFB0AF7018081C1
:102760009181A281B381A5019401281B390B4A0BE9
:102770005B0BDA01C901853C9940A105B10548F020
:10278000C8010E942A06D7018D929D92AD92BC92FB
:10279000139790E080E0B6C10E946C056819790932
:1027A0008A099B09F801C488D588E688F788C61687
:1027B000D706E806F90608F0B8CF8EEF9FEFA2C162
:1027C000A989BA898D919C911197820F931F8D933E
:1027D0009C93F1014081518147305105F9F4A98D55
:1027E000BA8D8D919C911197AC014F5F5F4F4D93C6
:1027F0005C93800F911FFC01208FAF85B8898D916C
:102800009C91119701978D939C93892B09F084CF0C
:1028100088E090E0F101918380837ECF41155105DE
:1028200021F52F3F310581F481E090E09183808391
:10283000CBA0DCA0EDA0FEA0A9A1BAA1CD92DD9213
:10284000ED92FC92139768CF0E946C056819790984
:102850008A099B09693873418105910508F45CCFA9
:10286000F801EA57FB4F1082A8CF4130510589F497
:102870002E3F310519F482E090E0CCCF1182108216
:10288000EB8DFC8D8081811147CFC8010E942A0603
:1028900043CF4230510591F4AF85B8892D933C93D5
:1028A000E98DFA8D1182108283E090E0D1018D9341
:1028B0009C93E989FA89318320832ECF43305105D7
:1028C00071F4322F2227AF85B8898D919C91119791
:1028D000280F391F2D933C9384E090E09BCF443028
:1028E000510579F460E071E00E94E61D8F3F91058B
:1028F00029F485E090E0918380830ECF11821082CD
:102900000BCF4530510569F4AB89BC892D933C93BD
:1029100086E090E091838083A989BA892D933C93C6
:10292000FBCE46305105A1F4322F2227EB89FC89DA
:1029300080819181280F391F3183208387E090E0C7
:10294000D1018D939C93EF85F889808191815DCF32
:102950004830510509F0E0CE1182108260E071E04C
:102960000E94E61D8F3F910509F0D6CEAB89BC8948
:10297000ED91FC91309709F0DEC0C8010E942A0653
:102980008AE392E09A8389831C821B828AE994E01D
:102990009E838D8398878F839A8789871B861C8661
:1029A0001D861E866801B8EECB1ABBEFDB0A7801E4
:1029B000E6EBEE1AEBEFFE0A412C22E0522E612CE0
:1029C000712CD601ED91FC913097A9F1848195810C
:1029D0009C838B83808191819E838D83828193816F
:1029E000DC01ED91FC910480F581E02D199598872B
:1029F0008F83D601ED91FC9182819381DC01ED9171
:102A0000FC910680F781E02D19959A8789874B867E
:102A10005C866D867E86D601ED91FC916085718520
:102A2000D801ED91FC910190F081E02DAE014F5F56
:102A30005F4FC8011995B2E0CB0ED11CEC14FD0418
:102A400009F0BFCF412C92E0592E612C712CF70177
:102A5000A081B1811097E1F112968D919C9113970D
:102A60009C838B8314968D919C9115979E838D8367
:102A7000ED91FC9111970480F581E02DCD01199520
:102A800098878F83D7018D919C91DC01ED91FC910A
:102A90000680F781E02D19959A8789874B865C8699
:102AA0006D867E86D801ED91FC91C080D180F701C2
:102AB00080819181DC01ED91FC910280F381E02D18
:102AC0001995AE014F5F5F4FBC01C801F601199522
:102AD000F2E0EF0EF11CE214F30409F0B8CFF801B4
:102AE000EA57FB4F81E08083319680829182A282F7
:102AF000B382AD89BE898D929D92AD92BC9213979F
:102B00008FEF9FEFA6960FB6F894DEBF0FBECDBF36
:102B1000DF91CF911F910F91FF90EF90DF90CF90B9
:102B2000BF90AF909F908F907F906F905F904F90ED
:102B30003F902F900895EA30F10509F0A1C086E496
:102B400092E09A8389831B821C821D821E821F82CF
:102B5000188619861A860E946C05F801C084D184F3
:102B6000E284F3849B01AC012C193D094E095F09F5
:102B700069017A016F89788DCE0101960E944C0D12
:102B8000C701B60128EE33E040E050E00E94FA1D94
:102B900069017A019B01AC018B819C81AD81BE8171
:102BA0008C0D9D1DAE1DBF1D8B839C83AD83BE838D
:102BB00060E472E48FE090E00E94D61DCF80D8845C
:102BC000E984FA84DC01CB018C0D9D1DAE1DBF1D77
:102BD0008F839887A987BA870E946C05CF80D88495
:102BE000E984FA8436E3D31A35E6E30A34ECF30ACF
:102BF00028EE33E040E050E00E94FA1D29013A013E
:102C00009B01AC0160E472E48FE090E00E94D61D6D
:102C1000A7019601261B370B480B590BCA01B901B6
:102C20002B813C814D815E8121503109410951093F
:102C300069017A01C418D508E608F70826013701AA
:102C400020E03AEC4AE95BE30E94FA1D420E531E73
:102C5000641E751ED8011C964D925D926D927C92F9
:102C60001F97F801608B718B828B938B0E946C0590
:102C7000AD89BE896D937D938D939C9313974CCDB5
:102C8000E630F10559F46F89788D8D8D9E8D0E9407
:102C9000871181E0EF8DF8A180833ECDEB30F10507
:102CA00021F4AB8DBC8D1C9237CDEF53FE4FEE0F50
:102CB000FF1FE00FF11F80819181009709F42CCD57
:102CC000DC01ED91FC910190F081E02D6F89788D10
:102CD000199522CD1F920F920FB60F9211240BB6A9
:102CE0000F922F933F934F935F936F937F938F93A5
:102CF0009F93AF93BF93EF93FF938CE195E00E9476
:102D0000C102FF91EF91BF91AF919F918F917F9100
:102D10006F915F914F913F912F910F900BBE0F904C
:102D20000FBE0F901F9018951F920F920FB60F9223
:102D300011240BB60F922F938F939F93EF93FF93D2
:102D4000E0912C05F0912D058081E0913205F09104
:102D5000330582FD1DC09081809135058F5F8F7393
:102D600020913605821741F0E0913505F0E0E45EF0
:102D7000FA4F958F80933505FF91EF919F918F9139
:102D80002F910F900BBE0F900FBE0F901F901895B4
:102D90008081F2CF1F920F920FB60F9211242F93C2
:102DA0003F938F939F93AF93BF938091030590912F
:102DB0000405A0910505B09106053091020523E0B8
:102DC000230F2D3758F50196A11DB11D2093020543
:102DD0008093030590930405A0930505B093060521
:102DE0008091070590910805A0910905B0910A0509
:102DF0000196A11DB11D8093070590930805A0932E
:102E00000905B0930A05BF91AF919F918F913F91B2
:102E10002F910F900FBE0F901F90189526E8230F4B
:102E20000296A11DB11DD2CF1F920F920FB60F9225
:102E300011240BB60F922F933F934F935F936F9391
:102E40007F938F939F93AF93BF93EF93FF93E09103
:102E50000E02F0910F021995FF91EF91BF91AF9182
:102E60009F918F917F916F915F914F913F912F91A2
:102E70000F900BBE0F900FBE0F901F9018951F92D2
:102E80000F920FB60F9211240BB60F922F933F9310
:102E90004F935F936F937F938F939F93AF93BF9362
:102EA000EF93FF93E0910C02F0910D021995FF91C1
:102EB000EF91BF91AF919F918F917F916F915F91B2
:102EC0004F913F912F910F900BBE0F900FBE0F901F
:102ED0001F9018951F920F920FB60F9211240BB6E8
:102EE0000F922F933F934F935F936F937F938F93A3
:102EF0009F93AF93BF93EF93FF93E0910202F09102
:102F000003021995FF91EF91BF91AF919F918F911E
:102F10007F916F915F914F913F912F910F900BBED9
:102F20000F900FBE0F901F9018951F920F920FB623
:102F30000F9211240BB60F922F933F934F935F93F1
:102F40006F937F938F939F93AF93BF93EF93FF9371
:102F5000E0910002F09101021995FF91EF91BF916C
:102F6000AF919F918F917F916F915F914F913F9121
:102F70002F910F900BBE0F900FBE0F901F901895C2
:102F80001F920F920FB60F9211240BB60F922F9330
:102F90003F934F935F936F937F938F939F93AF93E1
:102FA000BF93EF93FF93E0910A02F0910B02199502
:102FB000FF91EF91BF91AF919F918F917F916F9111
:102FC0005F914F913F912F910F900BBE0F900FBECD
:102FD0000F901F9018951F920F920FB60F92112409
:102FE0000BB60F922F933F934F935F936F937F9303
:102FF0008F939F93AF93BF93EF93FF93E09108025A
:10300000F09109021995FF91EF91BF91AF919F91B6
:103010008F917F916F915F914F913F912F910F9081
:103020000BBE0F900FBE0F901F9018951F920F921E
:103030000FB60F9211240BB60F922F933F934F931D
:103040005F936F937F938F939F93AF93BF93EF9310
:10305000FF93E0910602F09107021995FF91EF911D
:10306000BF91AF919F918F917F916F915F914F91A0
:103070003F912F910F900BBE0F900FBE0F901F909E
:1030800018951F920F920FB60F9211240BB60F9244
:103090002F933F934F935F936F937F938F939F9360
:1030A000AF93BF93EF93FF93E0910402F091050279
:1030B0001995FF91EF91BF91AF919F918F917F9162
:1030C0006F915F914F913F912F910F900BBE0F9099
:1030D0000FBE0F901F9018951F920F920FB60F9270
:1030E00011240BB60F922F933F934F935F936F93DF
:1030F0007F938F939F93AF93BF93EF93FF938091B1
:103100001105909112058093B20080911405909161
:103110001505A0911605B09117050196A11DB11DC9
:103120008093140590931505A0931605B093170589
:103130008091140590911505A0911605B091170581
:1031400040910D0550910E0560910F05709110058D
:1031500084179507A607B70710F180911305811111
:103160001EC081E080931305809114059091150590
:10317000A0911605B0911705841B950BA60BB70BF4
:103180008093140590931505A0931605B093170529
:10319000E0910B05F0910C05199510921305FF9124
:1031A000EF91BF91AF919F918F917F916F915F91BF
:1031B0004F913F912F910F900BBE0F900FBE0F902C
:1031C0001F90189510921F0510921E0588EE93E02F
:1031D000A0E0B0E08093200590932105A093220504
:1031E000B09323058EE592E090931D0580931C0516
:1031F00085EC90E0909329058093280584EC90E07D
:1032000090932B0580932A0580EC90E090932D05F8
:1032100080932C0581EC90E090932F0580932E05F0
:1032200082EC90E0909331058093300586EC90E03D
:103230009093330580933205109235051092360530
:10324000109237051092380580EA92E09093F805C5
:103250008093F7058CE195E09093FA058093F9054A
:1032600080E091EEA0E0B0E08093FB059093FC0538
:10327000A093FD05B093FE0510927D0A84E992E0CB
:1032800090938C0A80938B0A1092A10A1092A20A42
:103290001092A30A1092A40A1092A80A1092A70AE8
:1032A000EFE0FAE0119211928AE0E134F807D1F7E9
:1032B000E1E4FAE0119211928AE0E337F807D1F7DE
:1032C000EFE0F6E08FE098E011928E179F07E1F7AC
:1032D000EFE0F8E011928AE0EF30F807D9F71092AA
:1032E0008D0A10928E0A10928F0A1092900A1092F4
:1032F000960A1092950A1092970A1092980A1092C4
:10330000990A10929A0A1092A00A10929F0A10929B
:103310000B0610920C0610920D0610920E0688E80D
:1033200092E09093D4058093D3058CE792E090933C
:10333000D6058093D5051092D7051092D805109226
:10334000D9051092DA0580E792E09093DC0580932E
:10335000DB058AE994E09093DE058093DD05109209
:10336000DF051092E0051092E1051092E20510923F
:10337000E3051092E4051092E5051092E60510921F
:10338000E8051092E7051092E9051092EA051092FF
:10339000EB051092EC051092ED051092EE051092DF
:1033A000EF051092F0051092F6051092F50582EBEC
:1033B00094E09093CA058093C90583ED95E09093BE
:1033C000CC058093CB051092D2051092D10586EBE7
:1033D00092E09093BA058093B9058AEA92E09093BF
:1033E000C0058093BF051092C1051092C2051092CE
:1033F000C3051092C40580E397E09093C6058093BF
:10340000C50581E090E09093C8058093C7058AEBDD
:1034100094E09093BE058093BD050895789484B59B
:10342000826084BD84B5816084BD85B5826085BDC0
:1034300085B5816085BD80916E00816080936E004E
:103440001092810080918100826080938100809140
:1034500081008160809381008091800081608093F1
:1034600080008091B10084608093B1008091B000B1
:1034700081608093B0008091910082608093910080
:103480008091910081608093910080919000816093
:10349000809390008091A10082608093A100809130
:1034A000A10081608093A1008091A0008160809341
:1034B000A0008091210182608093210180912101EF
:1034C000816080932101809120018160809320019F
:1034D00080917A00846080937A0080917A00826083
:1034E00080937A0080917A00816080937A00809145
:1034F0007A00806880937A001092C1004091FB05A9
:103500005091FC056091FD057091FE058091F905D3
:103510009091FA050E94ED011092740A1092730ABC
:103520001092760A1092750A10927A0A1092790A0D
:103530001092780A1092770AEFE0FAE090E080E0CB
:1035400021913191232B09F015C1FC01EE0FFF1FD2
:10355000E15FF54F29EC35E03183208383589F4F9D
:103560009093CE058093CD0587EF95E09093D0059D
:103570008093CF05E1E4FAE090E080E02191319181
:10358000232B09F0FDC0FC01EE0FFF1FEF5BF54F91
:1035900029EB35E0318320838C599F4F9093BC05F4
:1035A0008093BB0560E082E00E940D0461E08DE045
:1035B0000E940D0461E08BE00E940D0461E08CE04C
:1035C0000E940D0460E085E10E940D0461E088E046
:1035D0000E940D0461E08AE00E940D0461E089E030
:1035E0000E940D0480E899E090930102809300020C
:1035F00080916A00836080936A00EC9A8FE998E07A
:103600009093050280930402809169008360809307
:103610006900E89A84EF91E0A0E0B0E080930D05A6
:1036200090930E05A0930F05B093100588E49EE0DB
:1036300090930C0580930B05809170008E7F809392
:1036400070008091B0008C7F8093B0008091B100B9
:10365000877F8093B1008091B6008F7D8093B60004
:10366000809170008D7F809370008091B1008460A4
:103670008093B1008091B1008C7F8093B10086E08F
:1036800090E090931205809311051092140510920A
:1036900015051092160510921705109213058091CA
:1036A0001105909112058093B200809170008160A5
:1036B0008093700040E051EE60E070E08CE195E0B6
:1036C0000E94ED0170E060E090E080E00E949706CB
:1036D000E091F505F091F6058091120290911302A8
:1036E000092E000CAA0BBB0B80839183A283B383AA
:1036F0008091100290911102092E000CAA0BBB0BB5
:1037000084839583A683B78380911A0590911B05C6
:10371000092E000CAA0BBB0B80879187A287B38769
:103720008091180590911905092E000CAA0BBB0B6E
:1037300084879587A687B7878091CF059091D0051C
:103740006091CD057091CE05DC01ED91FC91019069
:10375000F081E02D43ED55E0199587EF95E00E944B
:103760000A1364E670E080E090E00E943A050E944F
:103770005003AECF01968931910509F0E1CEFACE22
:1037800001968931910509F0F9CE0CCF5058BB272D
:10379000AA270E94DE1B0C942F1D0E94211D38F0C9
:1037A0000E94281D20F039F49F3F19F426F40C9450
:1037B0001E1D0EF4E095E7FB0C94181DE92F0E94E6
:1037C000401D58F3BA17620773078407950720F066
:1037D00079F4A6F50C94621D0EF4E0950B2EBA2F29
:1037E000A02D0B01B90190010C01CA01A001112407
:1037F000FF27591B99F0593F50F4503E68F11A16B3
:10380000F040A22F232F342F4427585FF3CF469543
:1038100037952795A795F0405395C9F77EF41F1665
:10382000BA0B620B730B840BBAF09150A1F0FF0F2F
:10383000BB1F661F771F881FC2F70EC0BA0F621F1B
:10384000731F841F48F4879577956795B795F7950B
:103850009E3F08F0B0CF9395880F08F09927EE0FA0
:103860009795879508950E94471C0C942F1D0E94E0
:10387000281D58F00E94211D40F029F45F3F29F0D7
:103880000C94181D51110C94631D0C941E1D0E9464
:10389000401D68F39923B1F3552391F3951B550B04
:1038A000BB27AA2762177307840738F09F5F5F4F13
:1038B000220F331F441FAA1FA9F335D00E2E3AF052
:1038C000E0E832D091505040E695001CCAF72BD06A
:1038D000FE2F29D0660F771F881FBB1F26173707BB
:1038E0004807AB07B0E809F0BB0B802DBF01FF27ED
:1038F00093585F4F3AF09E3F510578F00C94181D95
:103900000C94631D5F3FE4F3983ED4F3869577955E
:103910006795B795F7959F5FC9F7880F911D9695A5
:10392000879597F90895E1E0660F771F881FBB1F01
:10393000621773078407BA0720F0621B730B840BAE
:10394000BA0BEE1F88F7E09508950E94AC1C6894AE
:10395000B1110C94631D08950E94481D88F09F5773
:1039600098F0B92F9927B751B0F0E1F0660F771FA3
:10397000881F991F1AF0BA95C9F714C0B13091F099
:103980000E94621DB1E008950C94621D672F782F8C
:103990008827B85F39F0B93FCCF38695779567955E
:1039A000B395D9F73EF490958095709561957F4FCA
:1039B0008F4F9F4F0895E89409C097FB3EF4909570
:1039C0008095709561957F4F8F4F9F4F9923A9F0F8
:1039D000F92F96E9BB279395F69587957795679587
:1039E000B795F111F8CFFAF4BB0F11F460FF1BC0CB
:1039F0006F5F7F4F8F4F9F4F16C0882311F096E95E
:103A000011C0772321F09EE8872F762F05C066230B
:103A100071F096E8862F70E060E02AF09A95660FC4
:103A2000771F881FDAF7880F9695879597F908957D
:103A300097F99F6780E870E060E008959FEF80EC61
:103A4000089500240A941616170618060906089504
:103A500000240A9412161306140605060895092E6A
:103A60000394000C11F4882352F0BB0F40F4BF2BD9
:103A700011F460FF04C06F5F7F4F8F4F9F4F089519
:103A800057FD9058440F551F59F05F3F71F047950F
:103A9000880F97FB991F61F09F3F79F087950895F4
:103AA000121613061406551FF2CF4695F1DF08C013
:103AB000161617061806991FF1CF86957105610530
:103AC00008940895E894BB2766277727CB0197F9D8
:103AD00008950E947C1D0C942F1D0E94211D38F01A
:103AE0000E94281D20F0952311F00C94181D0C94B1
:103AF0001E1D11240C94631D0E94401D70F3959FA0
:103B0000C1F3950F50E0551F629FF001729FBB27D4
:103B1000F00DB11D639FAA27F00DB11DAA1F649F70
:103B20006627B00DA11D661F829F2227B00DA11D23
:103B3000621F739FB00DA11D621F839FA00D611DA9
:103B4000221F749F3327A00D611D231F849F600DCA
:103B5000211D822F762F6A2F11249F5750409AF0F3
:103B6000F1F088234AF0EE0FFF1FBB1F661F771F7F
:103B7000881F91505040A9F79E3F510580F00C944A
:103B8000181D0C94631D5F3FE4F3983ED4F38695B3
:103B900077956795B795F795E7959F5FC1F7FE2BEA
:103BA000880F911D9695879597F90895DB018F935E
:103BB0009F930E94241EBF91AF91A29F800D911DE3
:103BC000A39F900DB29F900D1124089597FB072E8F
:103BD00016F4009407D077FD09D00E942F1E07FC31
:103BE00005D03EF4909581959F4F0895709561950D
:103BF0007F4F0895A1E21A2EAA1BBB1BFD010DC029
:103C0000AA1FBB1FEE1FFF1FA217B307E407F5078C
:103C100020F0A21BB30BE40BF50B661F771F881F68
:103C2000991F1A9469F760957095809590959B01FE
:103C3000AC01BD01CF010895EE0FFF1F881F8BBFA0
:103C40000790F691E02D19940E94431EA59F900DB8
:103C5000B49F900DA49F800D911D11240895AA1B5F
:103C6000BB1B51E107C0AA1FBB1FA617B70710F067
:103C7000A61BB70B881F991F5A95A9F78095909599
:103C8000BC01CD010895A29FB001B39FC001A39FC5
:103C9000700D811D1124911DB29F700D811D112485
:103CA000911D08954F925F926F927F928F929F9293
:103CB000AF92BF92CF92DF92EF92FF920F931F933A
:103CC000CF93DF938C01009799F4CB01DF91CF91D3
:103CD0001F910F91FF90EF90DF90CF90BF90AF902A
:103CE0009F908F907F906F905F904F900C943C1FAF
:103CF000FC01E60FF71F9C0122503109E217F30780
:103D000008F4AEC0D901CD91DC911197C617D70741
:103D100020F1C530D10578F0CE01049786179707BA
:103D200050F0C61BD70B2297C193D1936D937C9310
:103D3000CF010E94D81FC801DF91CF911F910F9131
:103D4000FF90EF90DF90CF90BF90AF909F908F90BB
:103D50007F906F905F904F9008955B01AC1ABD0A01
:103D60004C018C0E9D1EA091AB0AB091AC0A512C57
:103D7000412CF12CE12C109731F58091A90A9091FA
:103D8000AA0A8815990509F05CC04616570608F07E
:103D900058C08091140290911502009741F48DB79C
:103DA0009EB74091180250911902841B950BE81799
:103DB000F90708F055C0F093AA0AE093A90AF9019F
:103DC00071836083B8CF8D919C91119712966C90FE
:103DD000129713967C901397A815B90559F56C01A5
:103DE00042E0C40ED11CCA14DB0420F1AC014A1914
:103DF0005B09DA011296159780F062827382518313
:103E00004083D9016D937C93E114F10471F0D701E3
:103E10001396FC93EE9312978ECF22968C0F9D1FD4
:103E2000F90191838083F301EFCFF093AC0AE09323
:103E3000AB0A81CF4816590608F42C017D01D30145
:103E40009ACFCB010E943C1F7C01009749F0AE0144
:103E5000B8010E94331FC8010E94D81F87016BCF91
:103E600010E000E068CFFB01DC0102C001900D9280
:103E700041505040D8F708950F931F93CF93DF938D
:103E80008230910510F482E090E0E091AB0AF0916D
:103E9000AC0A30E020E0B0E0A0E0309799F42115C2
:103EA000310509F44AC0281B390B24303105D8F5F7
:103EB0008A819B816115710589F1FB01938382835E
:103EC000FE0111C0408151810281138148175907B9
:103ED000E0F04817590799F4109761F012960C9387
:103EE000129713961C933296CF01DF91CF911F91B9
:103EF0000F9108950093AB0A1093AC0AF4CF2115EB
:103F0000310551F04217530738F0A901DB019A013E
:103F1000BD01DF01F801C1CFEF01F9CF9093AC0AE9
:103F20008093AB0ACDCFFE01E20FF31F81939193F3
:103F30002250310939832883D7CF2091A90A3091A3
:103F4000AA0A232B41F420911602309117023093D4
:103F5000AA0A2093A90A2091140230911502211572
:103F6000310541F42DB73EB7409118025091190226
:103F7000241B350BE091A90AF091AA0AE217F30776
:103F8000A0F42E1B3F0B2817390778F0AC014E5FC9
:103F90005F4F2417350748F04E0F5F1F5093AA0A52
:103FA0004093A90A819391939FCFF0E0E0E09CCFEA
:103FB000CF93DF930097E9F0FC01329713821282CE
:103FC000A091AB0AB091AC0AED0130E020E010976F
:103FD000A1F420813181820F931F2091A90A309191
:103FE000AA0A2817390709F061C0F093AA0AE093DA
:103FF000A90ADF91CF910895EA01CE17DF07E8F50E
:104000004A815B819E0141155105B1F7E901FB83AE
:10401000EA8349915991C40FD51FEC17FD0761F44C
:10402000808191810296840F951FE901998388838D
:10403000828193819B838A83F0E0E0E012968D91E8
:104040009C9113970097B9F52D913C911197CD0153
:104050000296820F931F2091A90A3091AA0A28176D
:10406000390739F6309751F51092AC0A1092AB0A25
:10407000B093AA0AA093A90ABCCFD383C28340817C
:104080005181840F951FC817D90761F44E5F5F4FA8
:1040900088819981480F591F518340838A819B8170
:1040A000938382832115310509F0B0CFF093AC0AD8
:1040B000E093AB0A9ECFFD01DC01C0CF13821282D8
:0640C000D7CFF894FFCFFA
:1040C6007805780578057805780578057805780502
:1040D600640064000000AD0A8000726F737365723D
:1040E60069616C5F6D7367732F5265717565737463
:1040F600506172616D0000000000F60F550C520C05
:104106004F0C00000000920D4C0D490D460D0000AD
:104116000000C60FF90BF60BF30B00000000E302DC
:104126004D027A023003AB0289029D0200000000B4
:10413600A60E580B550B520B00000000A20A7D106C
:104146009F0A9C0A00000000010B0611990A960AB4
:1041560000000000E30E8711F00BED0B00000000DD
:1041660088050A13790500000000820A610A8105A4
:104176007E05000000006E0A840581057E056461E7
:104186003539303966626533373861656166383589
:1041960065353437653833306363316262370073AF
:1041A60074645F6D7367732F496E743332004D65A7
:1041B60073736167652066726F6D206465766963E7
:1041C600652064726F707065643A206D6573736103
:1041D6006765206C6172676572207468616E206223
:1041E60075666665722E0031643939663739663808
:1041F600623332356234346665653930383035338A
:1042060065396339343562007374645F6D7367733F
:104216002F496E7433324D756C74694172726179CF
:104226000030666564326131316331336531316343
:104236003535373162346532613939356139316145
:1042460033007374645F6D7367732F4D756C746997
:1042560041727261794C61796F75740034636430B0
:104266006338336138363833646561653430656385
:104276006461633630653533626661380073746431
:104286005F6D7367732F4D756C74694172726179D6
:1042960044696D656E73696F6E00396630653938CD
:1042A6006264613635393831393836646466353397
:1042B6006166613761343065343900313161626479
:1042C600373331633235393333323631636436311D
:1042D600383362643132643632393500726F737343
:1042E600657269616C5F6D7367732F4C6F67003021
:1042F6006164353166383866633434383932663845
:10430600633130363834303737363436303035006E
:10431600726F7373657269616C5F6D7367732F5427
:104326006F706963496E666F006364373136366352
:1043360037346335353263333131666263633266EF
:10434600653561376263323839007374645F6D7343
:1043560067732F54696D65000D0A004C65667420FD
:1043660072706D3A200052696768742072706D3AF7
:1043760020006368617474657200746F41726475BD
:04438600696E6F00ED
:00000001FF
