:100000000C945F010C9426080C94FB070C94D00709
:100010000C94A5070C947A070C944F070C942407B2
:100020000C94F9060C9490010C9490010C9490019E
:100030000C9490010C9490010C9490010C94510834
:100040000C9490010C9490010C9490010C949001EC
:100050000C9490010C9490010C9490010C94AF06B8
:100060000C9490010C9479060C944F060C9490011A
:100070000C9490010C9490010C9490010C949001BC
:100080000C9490010C9490010C9490010C949001AC
:100090000C9490010C9490010C9490010C9490019C
:1000A0000C9490010C9490010C9490010C9490018C
:1000B0000C9490010C9490010C9490010C9490017C
:1000C0000C9490010C9490010C9490010C9490016C
:1000D0000C9490010C9490010C9490010C9490015C
:1000E0000C9490010C94D3010C9402030C94040220
:1000F0000C9438030C9413030C940A030C943D03E2
:100100000C94350A0C9434040C943C040C94F704BD
:100110000C940E040C947D040C9417030C9425038A
:100120000C940D030C9439030C9446040C94330383
:100130000C94E2010C9492010C942B030C94890210
:100140000C9422040C9469040C94FE020C94910407
:100150000C948A050C941D030C942F030C94180422
:100160000C9406030C9421030C9473040C945A040D
:100170000C943C020C9401040C942C040C94A601E5
:100180000C9409040C949B040C94F6010C949C01AF
:100190000C9450040C9487040C94F8020000210085
:1001A000240027002A002D00300033000101000048
:1001B000040107010A0100002200250028002B008D
:1001C0002E003100340002010000050108010B017E
:1001D000000020002300260029002C002F00320000
:1001E00000010000030106010901050505050705D9
:1001F00008080808020202020A0A080804040404A3
:1002000001010101010101010303030303030303CE
:10021000040707070C0C0C0C0C0C0C0C020202025D
:1002200006060606060606060B0B0B0B0B0B0B0B46
:1002300001021020200808102040102040800201F8
:1002400002010804020101020408102040808040DD
:1002500020100804020180040201804020100804DC
:10026000020108040201010204081020408001027A
:1002700004081020408000000A0B02090C0D0E0833
:10028000070304010000000000000000000000005F
:10029000000000000000000000000000000000005E
:1002A000000012111000000000000000000000001B
:1002B000000000000000000000000000350A1124CA
:1002C0001FBECFEFD1E2DEBFCDBF00E00CBF12E01A
:1002D000A0E0B2E0E8E5F8E100E00BBF02C0079063
:1002E0000D92AE32B107D9F722E0AEE2B2E001C022
:1002F0001D92A53FB207E1F711E0CFE5D1E000E0A4
:1003000006C021970109802FFE010E94220CCE35E4
:10031000D10780E00807A9F70E94C7080C942A0CAF
:100320000C940000809130029091310201969093DC
:10033000310280933002089580912E0290912F0215
:10034000019690932F0280932E020895AF92BF9250
:10035000CF92DF92EF92FF920F931F93CF93DF9391
:100360006C017B018B01040F151FEB015E01AE18C0
:10037000BF08C017D10759F06991D601ED91FC91E2
:100380000190F081E02DC6011995892B79F7C501FF
:10039000DF91CF911F910F91FF90EF90DF90CF9061
:1003A000BF90AF900895FC01538D448D252F30E010
:1003B000842F90E0821B930B541710F0CF96089572
:1003C00001970895FC01918D828D981761F0A28D9F
:1003D000AE0FBF2FB11D5D968C91928D9F5F9F7365
:1003E000928F90E008958FEF9FEF0895FC01918D1B
:1003F000828D981731F0828DE80FF11D858D90E088
:1004000008958FEF9FEF0895FC01918D228D892F24
:1004100090E0805C9F4F821B91098F73992708950C
:1004200088E592E00E94040221E0892B09F420E093
:10043000822F0895FC01A48DA80FB92FB11DA35AD6
:10044000BF4F2C91848D90E001968F739927848FF4
:10045000A689B7892C93A089B1898C918370806417
:100460008C93938D848D981306C00288F389E02DB8
:1004700080818F7D80830895EF92FF920F931F9369
:10048000CF93DF93EC0181E0888F9B8D8C8D981347
:100490001AC0E889F989808185FF15C09FB7F89453
:1004A000EE89FF896083E889F9898081837080649F
:1004B00080839FBF81E090E0DF91CF911F910F91EA
:1004C000FF90EF900895F62E0B8D10E00F5F1F4FF9
:1004D0000F731127E02E8C8D8E110CC00FB607FC08
:1004E000FACFE889F989808185FFF5CFCE010E9496
:1004F0001A02F1CFEB8DEC0FFD2FF11DE35AFF4FE8
:10050000F0829FB7F8940B8FEA89FB898081806223
:10051000CFCFCF93DF93EC01888D8823B9F0AA89E0
:10052000BB89E889F9898C9185FD03C0808186FDAE
:100530000DC00FB607FCF7CF8C9185FFF2CF8081FD
:1005400085FFEDCFCE010E941A02E9CFDF91CF9156
:10055000089580E090E0892B29F00E94100281111B
:100560000E94000080E090E0892B49F080E090E05C
:10057000892B29F00E94000081110E94000080E078
:1005800090E0892B49F080E090E0892B29F00E94CF
:10059000000081110E94000080E090E0892B49F06A
:1005A00080E090E0892B29F00E94000081110C94DA
:1005B000000008958150823108F05AC0E82FF0E021
:1005C0008827EA51FD4F8F4F0C94220C06030A0333
:1005D000F802FE02020338030D03130317031D0381
:1005E000210325032B032F033803330339033D0372
:1005F000809180008F7780938000089580918000A3
:100600008F7DF9CF80918000877FF5CF84B58F777C
:1006100084BD089584B58F7DFBCF8091B0008F7726
:100620008093B00008958091B0008F7DF9CF8091C4
:1006300090008F77809390000895809190008F7D37
:10064000F9CF80919000877FF5CF8091A0008F77C0
:100650008093A00008958091A0008F7DF9CF8091B4
:10066000A000877FF5CF809120018F7780932001B4
:100670000895809120018F7DF9CF80912001877F9F
:10068000F5CFCF93DF93282F30E0F901EA58FD4FE3
:100690008491F901E05DFD4FD491F901E651FE4FDF
:1006A000C491CC23A1F081110E94DA02EC2FF0E07A
:1006B000EE0FFF1FE053FE4FA591B491EC91ED2397
:1006C00081E090E009F480E0DF91CF91089580E02F
:1006D00090E0FACF1F93CF93DF93282F30E0F901FA
:1006E000EA58FD4F8491F901E05DFD4FD491F90185
:1006F000E651FE4FC491CC23A9F0162F81110E9420
:10070000DA02EC2FF0E0EE0FFF1FEA54FE4FA59146
:10071000B4918FB7F894EC91111108C0D095DE23F5
:10072000DC938FBFDF91CF911F910895DE2BF8CF1F
:10073000CF93DF9390E0FC01E05DFD4F2491865163
:100740009E4FFC0184918823D1F090E0880F991F7F
:10075000FC01E456FE4FA591B491FC01EA54FE4F12
:10076000C591D491623071F49FB7F8943C91822F77
:10077000809583238C93E8812E2B28839FBFDF9164
:10078000CF9108958FB7F894EC912E2B2C938FBFB7
:10079000F6CF1F93CF93DF93182FEB0161E00E94F8
:1007A0009803209739F460E0812FDF91CF911F915A
:1007B0000C946A03CF3FD10511F461E0F5CFE12F2E
:1007C000F0E0EA58FD4FE491E150E23108F0B3C0A7
:1007D000F0E08827E151FC4F8F4F0C94220C01046C
:1007E00009040E04180422049B042C0434043C0461
:1007F000460450045A04690473049B047D0487046E
:10080000910484B5806884BDC7BDDF91CF911F91ED
:10081000089584B5806284BDC8BDF7CF8091800003
:10082000806880938000D0938900C0938800EDCFCA
:1008300080918000806280938000D0938B00C09371
:100840008A00E3CF80918000886080938000D093FD
:100850008D00C0938C00D9CF8091B00080688093C8
:10086000B000C093B300D1CF8091B000806280937C
:10087000B000C093B400C9CF80919000806880938D
:100880009000D0939900C0939800BFCF80919000C2
:10089000806280939000D0939B00C0939A00B5CF64
:1008A00080919000886080939000D0939D00C093C9
:1008B0009C00ABCF8091A00080688093A0008091C5
:1008C000A0008F7B8093A000D093A900C093A800C4
:1008D0009CCF8091A00080628093A000D093AB0059
:1008E000C093AA0092CF8091A00088608093A0005E
:1008F000D093AD00C093AC0088CF80912001806878
:1009000080932001D0932901C09328017ECF80914C
:100910002001806280932001D0932B01C0932A0193
:1009200074CF80912001886080932001D0932D01A5
:10093000C0932C016ACFC038D1050CF03ECF33CF25
:100940003FB7F8948091410290914202A0914302F6
:10095000B091440226B5A89B05C02F3F19F001961F
:10096000A11DB11D3FBFBA2FA92F982F8827BC0109
:10097000CD01620F711D811D911D42E0660F771F31
:10098000881F991F4A95D1F708958F929F92AF9231
:10099000BF92CF92DF92EF92FF924B015C010E94D7
:1009A000A0046B017C010E94A0046C197D098E09D2
:1009B0009F09683E734081059105A8F321E0821AE2
:1009C0009108A108B10888EEC80E83E0D81EE11C8A
:1009D000F11C81149104A104B10429F7FF90EF9058
:1009E000DF90CF90BF90AF909F908F900895089523
:1009F000FC0101900020E9F73197AF01481B590B2A
:100A0000BC0188E592E00C94A6018F929F92AF9270
:100A1000BF92CF92DF92EF92FF920F931F93CF93EB
:100A2000DF93CDB7DEB7A1970FB6F894DEBF0FBE48
:100A3000CDBF6C01990FEE08FF08F7FE47C06DE2CD
:100A400088E592E00E943C028C0122273327A9010D
:100A50002C193D094E095F0919A2CE0181967C012E
:100A60009AE0892E912CA12CB12CCA01B901A501C3
:100A700094010E94000C605DF70162937F012115D3
:100A800031054105510589F790E080E0309719F074
:100A9000CF010E94F804080F191F82E292E00E9421
:100AA000F804800F911FA1960FB6F894DEBF0FBE19
:100AB000CDBFDF91CF911F910F91FF90EF90DF900D
:100AC000CF90BF90AF909F908F900895A70196010F
:100AD00019A28E010F5D1F4F8AE0C82ED12CE12C88
:100AE000F12CCA01B901A70196010E94000C605DBA
:100AF000F80162938F01211531054105510589F7F0
:100B0000309729F0CF010E94F8048C01C6CF10E085
:100B100000E0C3CF4F925F926F927F928F929F922D
:100B2000AF92BF92CF92DF92EF92FF92CF93DF937B
:100B3000609130027091310270933B0260933A02EF
:100B4000109231021092300210922F0210922E0257
:100B50008091540290915502681B790B072E000C6E
:100B6000880B990B0E94070B6B017C0120913602C8
:100B70003091370240913802509139020E94630A45
:100B80004B015C018092360290923702A0923802AB
:100B9000B0923902A701960160913202709133023E
:100BA00080913402909135020E94620A2B013C012F
:100BB000C0923202D0923302E0923402F0923502B7
:100BC00026E636E646EE5FE3C701B6010E94930BC8
:100BD0006B017C012DEC3CEC4CE450E4C501B4010C
:100BE0000E94930B9B01AC01C701B6010E94630AEE
:100BF0006B017C0120E030E040E250E4C301B2012F
:100C00000E94930B9B01AC01C701B6010E94630ACD
:100C10000E94CF0A6F3F7105DCF570935302609319
:100C20005202809152029091530282309F4F34F4CD
:100C300081E09FEF9093530280935202C091520241
:100C4000D0915302D7FF03C0D195C195D10970E06F
:100C500060E085E00E94C903BE0186E00E94C903EE
:100C600070E060E089E00E94C90370E060E08AE023
:100C7000DF91CF91FF90EF90DF90CF90BF90AF903A
:100C80009F908F907F906F905F904F900C94C903CE
:100C90008FEF90E09093530280935202C2CF1F9245
:100CA0000F920FB60F9211240BB60F922F933F9312
:100CB0004F935F936F937F938F939F93AF93BF9364
:100CC000EF93FF9388E592E00E941A02FF91EF9163
:100CD000BF91AF919F918F917F916F915F914F9154
:100CE0003F912F910F900BBE0F900FBE0F901F9052
:100CF00018951F920F920FB60F9211240BB60F92F8
:100D00002F938F939F93EF93FF93E0916802F0915D
:100D100069028081E0916E02F0916F0282FD1DC038
:100D20009081809171028F5F8F7320917202821780
:100D300041F0E0917102F0E0E85AFD4F958F809309
:100D40007102FF91EF919F918F912F910F900BBEA8
:100D50000F900FBE0F901F9018958081F2CF1F92B9
:100D60000F920FB60F9211242F933F938F939F935F
:100D7000AF93BF9380913D0290913E02A0913F02BC
:100D8000B091400230913C0223E0230F2D3758F5FB
:100D90000196A11DB11D20933C0280933D029093CA
:100DA0003E02A0933F02B093400280914102909195
:100DB0004202A0914302B09144020196A11DB11DCF
:100DC0008093410290934202A0934302B093440265
:100DD000BF91AF919F918F913F912F910F900FBE37
:100DE0000F901F90189526E8230F0296A11DB11DA4
:100DF000D2CF1F920F920FB60F9211240BB60F9203
:100E00002F933F934F935F936F937F938F939F9312
:100E1000AF93BF93EF93FF93E0910E02F0910F0217
:100E20001995FF91EF91BF91AF919F918F917F9114
:100E30006F915F914F913F912F910F900BBE0F904B
:100E40000FBE0F901F9018951F920F920FB60F9222
:100E500011240BB60F922F933F934F935F936F9391
:100E60007F938F939F93AF93BF93EF93FF93E09103
:100E70000C02F0910D021995FF91EF91BF91AF9186
:100E80009F918F917F916F915F914F913F912F91A2
:100E90000F900BBE0F900FBE0F901F9018951F92D2
:100EA0000F920FB60F9211240BB60F922F933F9310
:100EB0004F935F936F937F938F939F93AF93BF9362
:100EC000EF93FF93E0910202F09103021995FF91D5
:100ED000EF91BF91AF919F918F917F916F915F91B2
:100EE0004F913F912F910F900BBE0F900FBE0F901F
:100EF0001F9018951F920F920FB60F9211240BB6E8
:100F00000F922F933F934F935F936F937F938F93A2
:100F10009F93AF93BF93EF93FF93E0910002F09103
:100F200001021995FF91EF91BF91AF919F918F9120
:100F30007F916F915F914F913F912F910F900BBED9
:100F40000F900FBE0F901F9018951F920F920FB623
:100F50000F9211240BB60F922F933F934F935F93F1
:100F60006F937F938F939F93AF93BF93EF93FF9371
:100F7000E0910A02F0910B021995FF91EF91BF9158
:100F8000AF919F918F917F916F915F914F913F9121
:100F90002F910F900BBE0F900FBE0F901F901895C2
:100FA0001F920F920FB60F9211240BB60F922F9330
:100FB0003F934F935F936F937F938F939F93AF93E1
:100FC000BF93EF93FF93E0910802F0910902199506
:100FD000FF91EF91BF91AF919F918F917F916F9111
:100FE0005F914F913F912F910F900BBE0F900FBECD
:100FF0000F901F9018951F920F920FB60F92112409
:101000000BB60F922F933F934F935F936F937F9302
:101010008F939F93AF93BF93EF93FF93E09106025B
:10102000F09107021995FF91EF91BF91AF919F91B8
:101030008F917F916F915F914F913F912F910F9081
:101040000BBE0F900FBE0F901F9018951F920F921E
:101050000FB60F9211240BB60F922F933F934F931D
:101060005F936F937F938F939F93AF93BF93EF9310
:10107000FF93E0910402F09105021995FF91EF9121
:10108000BF91AF919F918F917F916F915F914F91A0
:101090003F912F910F900BBE0F900FBE0F901F909E
:1010A00018951F920F920FB60F9211240BB60F9244
:1010B0002F933F934F935F936F937F938F939F9360
:1010C000AF93BF93EF93FF9380914B0290914C02AB
:1010D0008093B20080914E0290914F02A0915002F5
:1010E000B09151020196A11DB11D80934E029093C3
:1010F0004F02A0935002B093510280914E02909102
:101100004F02A0915002B09151024091470250917C
:1011100048026091490270914A0284179507A60718
:10112000B70710F180914D0281111EC081E08093BC
:101130004D0280914E0290914F02A0915002B091C9
:101140005102841B950BA60BB70B80934E02909314
:101150004F02A0935002B0935102E0914502F091EA
:101160004602199510924D02FF91EF91BF91AF91F8
:101170009F918F917F916F915F914F913F912F91AF
:101180000F900BBE0F900FBE0F901F901895789484
:1011900084B5826084BD84B5816084BD85B582607C
:1011A00085BD85B5816085BD80916E00816080932D
:1011B0006E00109281008091810082608093810096
:1011C00080918100816080938100809180008160A6
:1011D000809380008091B10084608093B100809101
:1011E000B00081608093B000809191008260809314
:1011F0009100809191008160809391008091900096
:101200008160809390008091A10082608093A10012
:101210008091A10081608093A1008091A0008160F5
:101220008093A000809121018260809321018091B0
:101230002101816080932101809120018160809350
:10124000200180917A00846080937A0080917A00F6
:10125000826080937A0080917A00816080937A0026
:1012600080917A00806880937A001092C100E091AA
:101270006802F091690282E08083E0916402F0915B
:1012800065021082E0916602F09167028FEC808324
:1012900010927002E0916C02F0916D0286E0808302
:1012A000E0916A02F0916B02808180618083E0911D
:1012B0006A02F0916B02808188608083E0916A020B
:1012C000F0916B02808180688083E0916A02F091E6
:1012D0006B0280818F7D808361E085E00E949803AE
:1012E00061E086E00E94980361E089E00E94980333
:1012F00061E08AE00E94980361E08DE00E9498031B
:1013000062E087E00E94980362E088E00E94980310
:1013100082E991E0909301028093000280916A003B
:101320008C7F826080936A00EC9A8CE991E09093C4
:1013300003028093020280916A00837F8860809319
:101340006A00ED9A88EC90E0A0E0B0E0809347025C
:1013500090934802A0934902B0934A028AE895E02C
:101360009093460280934502809170008E7F809317
:1013700070008091B0008C7F8093B0008091B100AC
:10138000877F8093B1008091B6008F7D8093B600F7
:10139000809170008D7F809370008091B100846097
:1013A0008093B1008091B1008C7F8093B10086E082
:1013B00090E090934C0280934B0210924E02109258
:1013C0004F02109250021092510210924D028091E1
:1013D0004B0290914C028093B2008091700081602A
:1013E0008093700087E00E944103C0915602D09123
:1013F0005702892B61F52196D0935702C09356026C
:1014000085E292E00E94F804809156029091570282
:101410000E94050564EF71E080E090E00E94C50441
:1014200080915602909157029093550280935402F6
:1014300080915202909153020E9405056CE271E086
:1014400080E090E00E94C5040E94A902CBCF88E012
:101450000E944103892B21F721971C161D0664F277
:101460001092570210925602CBCFE8E5F2E01382B9
:10147000128288EE93E0A0E0B0E084839583A68397
:10148000B78384E192E09183808385EC90E0958737
:10149000848784EC90E09787868780EC90E0918B3E
:1014A000808B81EC90E0938B828B82EC90E0958B2B
:1014B000848B86EC90E0978B868B118E128E138E28
:1014C000148E08955058BB27AA270E947A0A0C94BC
:1014D000590B0E944B0B38F00E94520B20F039F44C
:1014E0009F3F19F426F40C94480B0EF4E095E7FBAB
:1014F0000C94420BE92F0E946A0B58F3BA1762074B
:1015000073078407950720F079F4A6F50C948C0BEB
:101510000EF4E0950B2EBA2FA02D0B01B90190010E
:101520000C01CA01A0011124FF27591B99F0593F52
:1015300050F4503E68F11A16F040A22F232F342F9A
:101540004427585FF3CF469537952795A795F040E8
:101550005395C9F77EF41F16BA0B620B730B840BFD
:10156000BAF09150A1F0FF0FBB1F661F771F881FB5
:10157000C2F70EC0BA0F621F731F841F48F487950D
:1015800077956795B795F7959E3F08F0B0CF9395FF
:10159000880F08F09927EE0F9795879508950E9478
:1015A000D60A6894B1110C948D0B08950E94720BA9
:1015B00088F09F5798F0B92F9927B751B0F0E1F014
:1015C000660F771F881F991F1AF0BA95C9F714C0C4
:1015D000B13091F00E948C0BB1E008950C948C0B0B
:1015E000672F782F8827B85F39F0B93FCCF38695FD
:1015F00077956795B395D9F73EF49095809570955A
:1016000061957F4F8F4F9F4F0895E89409C097FBD6
:101610003EF490958095709561957F4F8F4F9F4FC9
:101620009923A9F0F92F96E9BB279395F69587950D
:1016300077956795B795F111F8CFFAF4BB0F11F4D0
:1016400060FF1BC06F5F7F4F8F4F9F4F16C0882377
:1016500011F096E911C0772321F09EE8872F762FAD
:1016600005C0662371F096E8862F70E060E02AF0EE
:101670009A95660F771F881FDAF7880F96958795DA
:1016800097F9089597F99F6780E870E060E0089502
:101690009FEF80EC089500240A941616170618068A
:1016A0000906089500240A94121613061406050666
:1016B0000895092E0394000C11F4882352F0BB0FF7
:1016C00040F4BF2B11F460FF04C06F5F7F4F8F4F5A
:1016D0009F4F089557FD9058440F551F59F05F3F95
:1016E00071F04795880F97FB991F61F09F3F79F044
:1016F00087950895121613061406551FF2CF4695C6
:10170000F1DF08C0161617061806991FF1CF869547
:101710007105610508940895E894BB27662777272B
:10172000CB0197F908950E94A60B0C94590B0E94C7
:101730004B0B38F00E94520B20F0952311F00C94C3
:10174000420B0C94480B11240C948D0B0E946A0BD5
:1017500070F3959FC1F3950F50E0551F629FF00104
:10176000729FBB27F00DB11D639FAA27F00DB11D1D
:10177000AA1F649F6627B00DA11D661F829F2227A6
:10178000B00DA11D621F739FB00DA11D621F839F2D
:10179000A00D611D221F749F3327A00D611D231F03
:1017A000849F600D211D822F762F6A2F11249F5751
:1017B00050409AF0F1F088234AF0EE0FFF1FBB1F54
:1017C000661F771F881F91505040A9F79E3F510513
:1017D00080F00C94420B0C948D0B5F3FE4F3983E29
:1017E000D4F3869577956795B795F795E7959F5FBD
:1017F000C1F7FE2B880F911D9695879597F908954F
:10180000A1E21A2EAA1BBB1BFD010DC0AA1FBB1F04
:10181000EE1FFF1FA217B307E407F50720F0A21B76
:10182000B30BE40BF50B661F771F881F991F1A94E3
:1018300069F760957095809590959B01AC01BD010D
:10184000CF010895EE0FFF1F881F8BBF0790F69101
:08185000E02D1994F894FFCF7C
:10185800F704F704F704F704F704F704F704F704A8
:10186800000000003C02A601D30189020402E20143
:0E187800F6010D0A0074657374203A2000001A
:00000001FF
