:100000000C94E9000C9408050C94DD040C94B204E3
:100010000C9487040C945C040C9431040C94060436
:100020000C94DB030C941A010C941A010C941A0121
:100030000C941A010C941A010C941A010C941A01D4
:100040000C941A010C941A010C941A010C941A01C4
:100050000C941A010C941A010C941A010C9431039B
:100060000C941A010C94A5030C947B030C941A01B4
:100070000C941A010C941A010C941A010C941A0194
:100080000C941A010C941A010C941A010C941A0184
:100090000C941A010C941A010C941A010C941A0174
:1000A0000C941A010C941A010C941A010C941A0164
:1000B0000C941A010C941A010C941A010C941A0154
:1000C0000C941A010C941A010C941A010C941A0144
:1000D0000C941A010C941A010C941A010C941A0134
:1000E0000C941A010C9494010C940B030C94800151
:1000F0000C9427020C94DA010C94A2010C94710167
:100100000C941E030C9478020C9444010C94FE058C
:1001100000002200250028002B002E0031003400B2
:1001200002010000050108010B010000210024006C
:1001300027002A002D0030003300010100000401D7
:1001400007010A0105050505070508080808020258
:1001500002020A0A08080404040401010101010161
:1001600001010303030303030303040707070C0C44
:100170000C0C0C0C0C0C020202020606060606060B
:1001800006060B0B0B0B0B0B0B0B010210202008B0
:1001900008102040102040800201020108040201E2
:1001A0000102040810204080804020100804020151
:1001B00080040201804020100804020108040201AA
:1001C0000102040810204080010204081020408031
:1001D000FE0511241FBECFEFD1E2DEBFCDBF00E090
:1001E0000CBF12E0A0E0B2E0EEEAFCE000E00BBFE2
:1001F00002C007900D92AC32B107D9F722E0ACE211
:10020000B2E001C01D92A63DB207E1F710E0C9EED1
:10021000D0E000E006C021970109802FFE010E9476
:100220004D06C83ED10780E00807A9F70E943305B4
:100230000C9455060C940000CF93DF9390E0FC01E2
:10024000E657FE4F24918C5B9E4FFC0184918823DE
:10025000C1F090E0880F991FFC01E65DFE4FC5914B
:10026000D491FC01E05FFE4FA591B4919FB7F89443
:100270008881E22FE0958E2388838C91E823EC938C
:100280009FBFDF91CF910895AF92BF92CF92DF923F
:10029000EF92FF920F931F93CF93DF936C017B013B
:1002A0008B01040F151FEB015E01AE18BF08C017CC
:1002B000D10759F06991D601ED91FC910190F0813F
:1002C000E02DC6011995892B79F7C501DF91CF91F2
:1002D0001F910F91FF90EF90DF90CF90BF90AF9064
:1002E0000895FC01538D448D252F30E0842F90E03C
:1002F000821B930B541710F0CF9608950197089521
:10030000FC01918D828D981761F0A28DAE0FBF2FE9
:10031000B11D5D968C91928D9F5F9F73928F90E03F
:1003200008958FEF9FEF0895FC01918D828D9817AE
:1003300031F0828DE80FF11D858D90E008958FEFEB
:100340009FEF0895FC01918D228D892F90E0805CB4
:100350009F4F821B91098F739927089589E392E03B
:100360000E94A20121E0892B09F420E0822F089548
:10037000FC01A48DA80FB92FB11DA35ABF4F2C911A
:10038000848D90E001968F739927848FA689B78911
:100390002C93A089B1898C91837080648C93938D08
:1003A000848D981306C00288F389E02D80818F7DAB
:1003B00080830895EF92FF920F931F93CF93DF9363
:1003C000EC0181E0888F9B8D8C8D98131AC0E88991
:1003D000F989808185FF15C09FB7F894EE89FF8960
:1003E0006083E889F98980818370806480839FBFFE
:1003F00081E090E0DF91CF911F910F91FF90EF90FE
:100400000895F62E0B8D10E00F5F1F4F0F7311270D
:10041000E02E8C8D8E110CC00FB607FCFACFE88948
:10042000F989808185FFF5CFCE010E94B801F1CF17
:10043000EB8DEC0FFD2FF11DE35AFF4FF0829FB7BC
:10044000F8940B8FEA89FB8980818062CFCFCF93AC
:10045000DF93EC01888D8823B9F0AA89BB89E889EC
:10046000F9898C9185FD03C0808186FD0DC00FB692
:1004700007FCF7CF8C9185FFF2CF808185FFEDCF10
:10048000CE010E94B801E9CFDF91CF91089580E0BD
:1004900090E0892B29F00E94AE0181110E9400009A
:1004A00080E090E0892B49F080E090E0892B29F0F2
:1004B0000E94000081110E94000080E090E0892BE2
:1004C00049F080E090E0892B29F00E940000811122
:1004D0000E94000080E090E0892B49F080E090E0ED
:1004E000892B29F00E94000081110C9400000895CE
:1004F0000895FC0101900020E9F73197AF01481BF6
:10050000590BBC0189E392E00C9444018F929F92B5
:10051000AF92BF92CF92DF92EF92FF920F931F9311
:10052000CF93DF93CDB7DEB7A1970FB6F894DEBFB8
:100530000FBECDBF6C01990FEE08FF08F7FE47C054
:100540006DE289E392E00E94DA018C0122273327D1
:10055000A9012C193D094E095F0919A2CE01819606
:100560007C019AE0892E912CA12CB12CCA01B901F1
:10057000A50194010E942B06605DF70162937F0143
:10058000211531054105510589F790E080E030974C
:1005900019F0CF010E947902080F191F82E292E040
:1005A0000E947902800F911FA1960FB6F894DEBFCA
:1005B0000FBECDBFDF91CF911F910F91FF90EF90B4
:1005C000DF90CF90BF90AF909F908F900895A7013C
:1005D000960119A28E010F5D1F4F8AE0C82ED12C03
:1005E000E12CF12CCA01B901A70196010E942B064A
:1005F000605DF80162938F012115310541055105B8
:1006000089F7309729F0CF010E9479028C01C6CF7B
:1006100010E000E0C3CF80912C0290912D02019652
:1006200090932D0280932C0285E292E00E94790241
:1006300080912C0290912D020C94860280912E02C2
:1006400090912F02019690932F0280932E0288E2C0
:1006500092E00E94790280912E0290912F020C94D8
:1006600086021F920F920FB60F9211242F933F9381
:100670008F939F93AF93BF938091350290913602F1
:10068000A0913702B09138023091340223E0230F59
:100690002D3758F50196A11DB11D2093340280938A
:1006A000350290933602A0933702B09338028091BE
:1006B000300290913102A0913202B0913302019642
:1006C000A11DB11D8093300290933102A09332029C
:1006D000B0933302BF91AF919F918F913F912F9132
:1006E0000F900FBE0F901F90189526E8230F0296CB
:1006F000A11DB11DD2CF1F920F920FB60F921124E0
:100700000BB60F922F933F934F935F936F937F930B
:100710008F939F93AF93BF93EF93FF9389E392E0FF
:100720000E94B801FF91EF91BF91AF919F918F917E
:100730007F916F915F914F913F912F910F900BBEE1
:100740000F900FBE0F901F9018951F920F920FB62B
:100750000F9211240BB60F922F938F939F93EF93C9
:10076000FF93E0914902F0914A028081E0914F02AB
:10077000F091500282FD1DC09081809152028F5FE6
:100780008F7320915302821741F0E0915202F0E002
:10079000E75CFD4F958F80935202FF91EF919F91FF
:1007A0008F912F910F900BBE0F900FBE0F901F9047
:1007B00018958081F2CF1F920F920FB60F921124DD
:1007C0000BB60F922F933F934F935F936F937F934B
:1007D0008F939F93AF93BF93EF93FF93E0910E029C
:1007E000F0910F021995FF91EF91BF91AF919F91F9
:1007F0008F917F916F915F914F913F912F910F90CA
:100800000BBE0F900FBE0F901F9018951F920F9266
:100810000FB60F9211240BB60F922F933F934F9365
:100820005F936F937F938F939F93AF93BF93EF9358
:10083000FF93E0910C02F0910D021995FF91EF9159
:10084000BF91AF919F918F917F916F915F914F91E8
:100850003F912F910F900BBE0F900FBE0F901F90E6
:1008600018951F920F920FB60F9211240BB60F928C
:100870002F933F934F935F936F937F938F939F93A8
:10088000AF93BF93EF93FF93E0910202F0910302C5
:100890001995FF91EF91BF91AF919F918F917F91AA
:1008A0006F915F914F913F912F910F900BBE0F90E1
:1008B0000FBE0F901F9018951F920F920FB60F92B8
:1008C00011240BB60F922F933F934F935F936F9327
:1008D0007F938F939F93AF93BF93EF93FF93E09199
:1008E0000002F09101021995FF91EF91BF91AF9134
:1008F0009F918F917F916F915F914F913F912F9138
:100900000F900BBE0F900FBE0F901F9018951F9267
:100910000F920FB60F9211240BB60F922F933F93A5
:100920004F935F936F937F938F939F93AF93BF93F7
:10093000EF93FF93E0910A02F0910B021995FF915A
:10094000EF91BF91AF919F918F917F916F915F9147
:100950004F913F912F910F900BBE0F900FBE0F90B4
:100960001F9018951F920F920FB60F9211240BB67D
:100970000F922F933F934F935F936F937F938F9338
:100980009F93AF93BF93EF93FF93E0910802F09191
:1009900009021995FF91EF91BF91AF919F918F91AE
:1009A0007F916F915F914F913F912F910F900BBE6F
:1009B0000F900FBE0F901F9018951F920F920FB6B9
:1009C0000F9211240BB60F922F933F934F935F9387
:1009D0006F937F938F939F93AF93BF93EF93FF9307
:1009E000E0910602F09107021995FF91EF91BF91F6
:1009F000AF919F918F917F916F915F914F913F91B7
:100A00002F910F900BBE0F900FBE0F901F90189557
:100A10001F920F920FB60F9211240BB60F922F93C5
:100A20003F934F935F936F937F938F939F93AF9376
:100A3000BF93EF93FF93E0910402F09105021995A3
:100A4000FF91EF91BF91AF919F918F917F916F91A6
:100A50005F914F913F912F910F900BBE0F900FBE62
:100A60000F901F901895789484B5826084BD84B5EA
:100A7000816084BD85B5826085BD85B5816085BD99
:100A800080916E00816080936E0010928100809151
:100A900081008260809381008091810081608093D9
:100AA0008100809180008160809380008091B100FE
:100AB00084608093B1008091B00081608093B00029
:100AC000809191008260809391008091910081607B
:100AD000809391008091900081608093900080913C
:100AE000A10082608093A1008091A1008160809329
:100AF000A1008091A00081608093A00080912101DD
:100B00008260809321018091210181608093210185
:100B10008091200181608093200180917A0084601F
:100B200080937A0080917A00826080937A0080912D
:100B30007A00816080937A0080917A008068809347
:100B40007A001092C100E0914902F0914A0282E0DD
:100B50008083E0914902F0914A021082E0914502BF
:100B6000F09146021082E0914702F091480280E144
:100B7000808310925102E0914D02F0914E0286E086
:100B80008083E0914B02F0914C02808180618083F0
:100B9000E0914B02F0914C02808188608083E0916B
:100BA0004B02F0914C02808180688083E0914B027F
:100BB000F0914C0280818F7D808382E00E941C0135
:100BC0008BE093E0909301028093000280916A0091
:100BD000836080936A00EC9A83E00E941C018EE19E
:100BE00093E0909303028093020280916A008C60EC
:100BF00080936A00ED9A0E944702FDCFE9E3F2E09C
:100C00001382128288EE93E0A0E0B0E084839583A3
:100C1000A683B78384E192E09183808385EC90E0A2
:100C20009587848784EC90E09787868780EC90E0B6
:100C3000918B808B81EC90E0938B828B82EC90E0A7
:100C4000958B848B86EC90E0978B868B118E128E21
:100C5000138E148E0895A1E21A2EAA1BBB1BFD0150
:100C60000DC0AA1FBB1FEE1FFF1FA217B307E4078B
:100C7000F50720F0A21BB30BE40BF50B661F771FE3
:100C8000881F991F1A9469F76095709580959095C3
:100C90009B01AC01BD01CF010895EE0FFF1F881F1E
:0E0CA0008BBF0790F691E02D1994F894FFCFCA
:100CAE007802780278027802780278027802780266
:100CBE0000000000DA01440171012702A201800147
:0C0CCE0094010D0A00593A00473A00005A
:00000001FF
