:020000040000FA
:100000000C94B0010C9424170C94F9160C94CE1691
:100010000C94A3160C9478160C944D160C9422167E
:100020000C94F7150C94E1010C94E1010C94E1019E
:100030000C94E1010C94E1010C94E1010C944F1734
:100040000C94E1010C94E1010C94E1010C94E101A8
:100050000C94E1010C94E1010C94E1010C94AD15B8
:100060000C94E1010C9477150C944D150C94E1015E
:100070000C94E1010C94E1010C94E1010C94E10178
:100080000C94E1010C94E1010C94E1010C94E10168
:100090000C94E1010C94E1010C94E1010C94E10158
:1000A0000C94E1010C94E1010C94E1010C94E10148
:1000B0000C94E1010C94E1010C94E1010C94E10138
:1000C0000C94E1010C94E1010C94E1010C94E10128
:1000D0000C94E1010C94E1010C94E1010C94E10118
:1000E0000C94E1010C9443020C94D5030C94190474
:1000F0000C94600F0C94CD040C9481070C94F403C1
:100100000C9471020C94E5070C94C30A0C940F0430
:100110000C940C050C946D070C9473050C9421043D
:100120000C94F0030C94C9080C94C9070C9478083B
:100130000C94F9070C94AD020C9416050C94160857
:100140000C94890D0C94CF020C942A050C9464092C
:100150000C9467090C94C6090C946B050C94E90483
:100160000C94CF080C940D080C9405040C941D04F9
:100170000C947A050C9476050C946A050C949E02F6
:100180000C94C5040C9484070C9413080C94A704D5
:100190000C94F3040C94C60D0C942B040C942005C1
:1001A0000C946D090C949A040C9407030C94D504D8
:1001B0000C94BB040C94ED110C9427040C94540380
:1001C0000C94D8070C94BD0A0C9413040C94DA0315
:1001D0000C94BF0B0C94FB030C945A020C94B104C6
:1001E0000C94C9090C94C00A0C946A090C94770702
:1001F0000C9402050C9439070C9470070C941908A0
:100200000C94A7070C94C5170C94D90E0C94C1023A
:100210000C947E070C94DF040C940B040C941008CF
:100220000C94F8030C94EC030C9434050C947005B6
:100230000C94090B0C94E90F0C945C070C94A20429
:100240000C94CC080C9401040C946A100C94CC0906
:100250000C94A90E0C9470090000210024002700C2
:100260002A002D00300033000101000004010701C5
:100270000A0100002200250028002B002E0031007A
:10028000340002010000050108010B010505050508
:10029000070508080808020202020A0A08080404FE
:1002A000040401010101010101010303030303032C
:1002B0000303040707070C0C0C0C0C0C0C0C0202BB
:1002C000020206060606060606060B0B0B0B0B0BB8
:1002D0000B0B010210202008081020401020408045
:1002E00002010201080402010102040810204080FA
:1002F0008040201008040201800402018040201088
:1003000008040201080402010102040810204080D0
:10031000010204081020408000000A0B02090C0DA5
:100320000E080703040100000000000000000000A8
:1003300000000000000000000000000000000000BD
:10034000000000001211100000000000000000007A
:100350000000000000000000000000000000C517C1
:1003600011241FBECFEFD1E2DEBFCDBF00E00CBF36
:1003700014E0A0E0B2E0E8EDFEE300E00BBF02C055
:1003800007900D92A43EB107D9F72AE0A4EEB4E09D
:1003900001C01D92A83AB207E1F711E0C0EBD1E02D
:1003A00000E006C021970109802FFE010E94251D53
:1003B000CF3AD10780E00807A9F70E94F1180C9402
:1003C0006A1F0C940000CF92DF92EF92FF92CF93BE
:1003D000DF93EC016A017B01E889F98982E080837F
:1003E000C11481EED806E104F104A1F060E079E0E7
:1003F0008DE390E0A70196010E94031D2150310971
:10040000410951095695479537952795211580E162
:10041000380798F0E889F989108260E874E88EE17D
:1004200090E0A70196010E94031D21503109410966
:1004300051095695479537952795EC85FD8530836D
:10044000EE85FF852083188EEC89FD8986E0808308
:10045000EA89FB89808180618083EA89FB898081C8
:1004600088608083EA89FB89808180688083EA894B
:10047000FB8980818F7D8083DF91CF91FF90EF900A
:10048000DF90CF9008956091F0047091F104809115
:10049000F2049091F30420E030E040E85FE30E9432
:1004A000D01A6093F0047093F1048093F204909357
:1004B000F30408956091F4047091F5048091F604BA
:1004C0009091F70420E030E040E85FE30E94D01A0A
:1004D0006093F4047093F5048093F6049093F7040A
:1004E0000895AF92BF92CF92DF92EF92FF920F9357
:1004F0001F93CF93DF936C017B018B01040F151FBA
:10050000EB015E01AE18BF08C017D10759F0699121
:10051000D601ED91FC910190F081E02DC601199575
:10052000892B79F7C501DF91CF911F910F91FF9032
:10053000EF90DF90CF90BF90AF900895FC01538D66
:10054000448D252F30E0842F90E0821B930B5417AD
:1005500010F0CF96089501970895FC01918D828D3A
:10056000981761F0A28DAE0FBF2FB11D5D968C91D3
:10057000928D9F5F9F73928F90E008958FEF9FEF12
:100580000895FC01918D828D981731F0828DE80FCE
:10059000F11D858D90E008958FEF9FEF0895FC0188
:1005A000918D228D892F90E0805C9F4F821B910955
:1005B0008F739927089587E195E00E94CF0221E08B
:1005C000892B09F420E0822F0895FC01A48DA80F47
:1005D000B92FB11DA35ABF4F2C91848D90E0019685
:1005E0008F739927848FA689B7892C93A089B189A5
:1005F0008C91837080648C93938D848D981306C046
:100600000288F389E02D80818F7D80830895EF92A9
:10061000FF920F931F93CF93DF93EC0181E0888FBC
:100620009B8D8C8D98131AC0E889F989808185FF8C
:1006300015C09FB7F894EE89FF896083E889F9892E
:1006400080818370806480839FBF81E090E0DF9130
:10065000CF911F910F91FF90EF900895F62E0B8D83
:1006600010E00F5F1F4F0F731127E02E8C8D8E113E
:100670000CC00FB607FCFACFE889F989808185FFA5
:10068000F5CFCE010E94E502F1CFEB8DEC0FFD2FEF
:10069000F11DE35AFF4FF0829FB7F8940B8FEA8960
:1006A000FB8980818062CFCFCF93DF93EC01888D6F
:1006B0008823B9F0AA89BB89E889F9898C9185FDDD
:1006C00003C0808186FD0DC00FB607FCF7CF8C916B
:1006D00085FFF2CF808185FFEDCFCE010E94E5023C
:1006E000E9CFDF91CF91089580E090E0892B29F048
:1006F0000E94DB0281110E94000080E090E0892BC3
:1007000049F080E090E0892B29F00E9400008111DF
:100710000E94000080E090E0892B49F080E090E0AA
:10072000892B29F00E94000081110E94000080E0C6
:1007300090E0892B49F080E090E0892B29F00E941D
:10074000000081110C9400000895282F30E0F90179
:10075000E85EFC4F9491F901EE52FD4F449124570D
:100760003D4FF9012491222309F435C0992311F159
:1007700091509231F8F4E92FF0E08827ED53FC4FC7
:100780008F4F0C94251DF403F803D503EC03F003FD
:10079000DA03FB03010405040B040F04130419041A
:1007A0001D04DA03210427042B04809180008F7735
:1007B00080938000E22FF0E0EE0FFF1FEE58FD4F18
:1007C000A591B4918FB7F894EC91611148C0409510
:1007D0004E234C938FBF0895809180008F7DE8CF8A
:1007E00080918000877FE4CF84B58F7784BDE2CF8E
:1007F00084B58F7DFBCF8091B0008F778093B00060
:10080000D9CF8091B0008F7DF9CF809190008F7704
:1008100080939000CFCF809190008F7DF9CF809111
:100820009000877FF5CF8091A0008F778093A00004
:10083000C1CF8091A0008F7DF9CF8091A000877FEC
:10084000F5CF809120018F7780932001B3CF8091E5
:1008500020018F7DF9CF80912001877FF5CF4E2B2E
:10086000B8CFCF93DF9390E0FC01EE52FD4F24917F
:1008700084579D4FFC0184918823D1F090E0880F2C
:10088000991FFC01E85AFD4FA591B491FC01EE5867
:10089000FD4FC591D49161110EC09FB7F8948C9112
:1008A000E22FE0958E238C932881E223E8839FBF7B
:1008B000DF91CF9108958FB7F894EC91E22BEC93F0
:1008C0008FBFF6CF1F93CF93DF93182FEB0161E01B
:1008D0000E943104209739F460E0812FDF91CF919D
:1008E0001F910C94A503CF3FD10511F461E0F5CF22
:1008F000E12FF0E0E85EFC4FE491E150E23108F0D6
:10090000B3C0F0E08827E857FB4F8F4F0C94251DAC
:100910009A04A204A704B104BB043405C504CD04A1
:10092000D504DF04E904F30402050C0534051605BB
:1009300020052A0584B5806884BDC7BDDF91CF91AD
:100940001F91089584B5806284BDC8BDF7CF8091A2
:100950008000806880938000D0938900C0938800D5
:10096000EDCF80918000806280938000D0938B00D7
:10097000C0938A00E3CF80918000886080938000DC
:10098000D0938D00C0938C00D9CF8091B000806847
:100990008093B000C093B300D1CF8091B00080624B
:1009A0008093B000C093B400C9CF8091900080685C
:1009B00080939000D0939900C0939800BFCF80910E
:1009C0009000806280939000D0939B00C0939A0027
:1009D000B5CF80919000886080939000D0939D0067
:1009E000C0939C00ABCF8091A00080688093A00052
:1009F0008091A0008F7B8093A000D093A900C0932A
:100A0000A8009CCF8091A00080628093A000D0932A
:100A1000AB00C093AA0092CF8091A0008860809321
:100A2000A000D093AD00C093AC0088CF809120018E
:100A3000806880932001D0932901C09328017ECF44
:100A400080912001806280932001D0932B01C0937C
:100A50002A0174CF80912001886080932001D09377
:100A60002D01C0932C016ACFC038D1050CF03ECFC8
:100A700033CF3FB7F8948091020590910305A09180
:100A80000405B091050526B5A89B05C02F3F19F0B8
:100A90000196A11DB11D3FBFBA2FA92F982F8827FE
:100AA000BC01CD01620F711D811D911D42E0660FD9
:100AB000771F881F991F4A95D1F708952FB7F8948B
:100AC0006091FE047091FF048091000590910105F2
:100AD0002FBF089508958A579B4FFC018081089588
:100AE00080EC92E0089581EE92E00895FC01868505
:100AF00097850895AF92BF92CF92DF92EF92FF92C7
:100B00000F931F93CF93DF9300D01F921F92CDB707
:100B1000DEB7643671054CF0FC01EA57FB4F2081CB
:100B2000F12CE12C222309F476C0DA017B018C013F
:100B3000BC01615E7D4FED91FC910190F081E02D53
:100B4000CA011995680128EEC21A2DEFD20A2FEFBB
:100B5000D6012C93F801E75EFD4F2EEF20833196EE
:100B60008083319690833196292F280F20952083FA
:100B70003196E0821696FC9245E050E030E020E0AD
:100B8000DC011696A417B50734F06191260F311DCC
:100B90004F5F5F4FF7CF7C01B8E0EB0EF11C800F89
:100BA000911FFC01E15EFD4F20952083E1E0EE16F0
:100BB000E2E0FE06B4F45601C5018C199D098E15BC
:100BC0009F054CF5D80112968D919C91F50161918C
:100BD0005F01DC01ED91FC910190F081E02D199510
:100BE000EBCF84E592E09A83898383E08B8380EF67
:100BF00092E09D838C83D801ED91FC910190F0816E
:100C0000E02DAE014F5F5F4F67E070E0C8011995BE
:100C1000EE24EA94FE2CC7010F900F900F900F90D6
:100C20000F90DF91CF911F910F91FF90EF90DF9088
:100C3000CF90BF90AF9008950F931F93CF93DF9302
:100C400000D000D000D01F92CDB7DEB78C0188E471
:100C500092E09A8389831B821C821D821E821F82DE
:100C6000188619861A86D801ED91FC910190F081C1
:100C7000E02DAE014F5F5F4F6AE070E0C80119954B
:100C80000E945E05F80160877187828793872A96A4
:100C90000FB6F894DEBF0FBECDBFDF91CF911F918D
:100CA0000F910895CF92DF92EF92FF92DC011D9297
:100CB0001D921D921C921397FB0130E020E04191A0
:100CC00050E0022E02C0440F551F0A94E2F7052E91
:100CD000000C660B770BCD90DD90ED90FC90139798
:100CE0004C295D296E297F294D935D936D937C93EB
:100CF0001397285F3F4F2032310509F7FF90EF909F
:100D0000DF90CF900895FC014083518312821382BB
:100D1000089561E08BE00E94A50360E08CE00E94F2
:100D2000A50361E089E00E94A50360E087E00C94E0
:100D3000A50360E08BE00E94A50361E08CE00E94C7
:100D4000A50360E089E00E94A50361E087E00C94C0
:100D5000A503CF93DF93EB01BC0186E00E94620400
:100D6000BE0188E0DF91CF910C9462042091FB04D6
:100D70003091FC0428173907C9F01092FA04109238
:100D8000F90481E08093F80486EE90E090931502D8
:100D90008093140280E590E09093130280931202F6
:100DA00060E570E086EE90E00C94A906089520912D
:100DB000FB043091FC0428173907C9F01092FA049B
:100DC00081E08093F9041092F80480E590E090931C
:100DD00015028093140286EE90E0909313028093A4
:100DE000120266EE70E080E590E00C94A90608958A
:100DF0002091FB043091FC0428173907A1F01092D0
:100E0000FA041092F9041092F8048AEA90E09093A0
:100E100015028093140290931302809312026AEADF
:100E200070E00C94A9060895809114029091150227
:100E30008B3F9105A4F08AEF90E090931502809388
:100E4000140280911202909113028B3F910564F07D
:100E50008AEF90E090931302809312020895C29754
:100E600084F782E390E0E9CFC297C4F782E390E091
:100E7000F1CF0F931F93CF93DF93FC0142815381F6
:100E800064817581415051096109710949305105E9
:100E900061057105E8F4EC01FA018827ED5AF84F75
:100EA0008F4F0C94251D6D075C0781077E07770720
:100EB00070078407A707C9070E9499068A819B814A
:100EC0000E94F8068A819B819093FC048093FB0426
:100ED000DF91CF911F910F9108950E948906EECF67
:100EE0000E9499068A819B810E94D706EBCF0E94BF
:100EF00099068A819B810E94B606E4CF0E948906EA
:100F0000F1CF0E948906F5CF8091FB049091FC04FB
:100F10000797C1F281E08093FA041092F9041092CD
:100F2000F804809112029091130200911402109122
:100F30001502801791070CF48C011016110614F697
:100F4000B801C8010E94A9060A501109F6CF809184
:100F50001402909115020A96909315028093140240
:100F600080911202909113020A969093130280933B
:100F700012020E9414076091120270911302809174
:100F8000140290911502DF91CF911F910F910C9453
:100F9000A90680911402909115020A979093150268
:100FA0008093140280911202909113020A97DDCF70
:100FB000FB014081518162817381FC014283538333
:100FC0006483758384E090E008950F931F93CF931B
:100FD000DF938C01EC012696CE010E94D807D80140
:100FE0001C96ED91FC91CE01DF91CF911F910F9155
:100FF0001994DC01FB0112964C91129713962C91D7
:10100000139714969C91149715968C914083218385
:101010009283838384E090E0089589E293E00895C9
:101020008AE493E0089583E693E0089584E893E0EA
:1010300008958F929F92AF92BF92CF92DF92EF92DC
:10104000FF920F931F93CF93DF93EC018B018A8163
:10105000FB0180838B8181838C8182838D8183835B
:10106000D12CC12C812C912C540184E0E82EF12C40
:10107000D801AE0DBF1D4A815B816C817D818416D4
:101080009506A606B706C0F48A899B898C0D9D1D1E
:10109000FC0120813181F90120813181BD01F901FB
:1010A0001995E80EF91EFFEF8F1A9F0AAF0ABF0AC3
:1010B0008CE0C80ED11CDCCF8C898C938D89119665
:1010C0008C9311978E8912968C9312978F89139611
:1010D0008C93C7010496DF91CF911F910F91FF90E0
:1010E000EF90DF90CF90BF90AF909F908F9008953A
:1010F000AF92BF92DF92EF92FF920F931F93CF9325
:10110000DF93EC018B0102960E9419085801A80E8A
:10111000B91E2A8DF50120832B8D21832C8D2283EE
:101120002D8D23830496D50140E050E0BA010A8D4D
:101130001B8D2C8D3D8D4017510762077307F8F406
:101140009D012A193B09EAA0FBA0E20EF31EF7015C
:10115000D0801181328123811496DC9214971596E8
:101160001C93159716963C93169717962C931797E2
:1011700004964F5F5F4F6F4F7F4F1496D8CFDF912C
:10118000CF911F910F91FF90EF90DF90BF90AF90A4
:1011900008958EE993E008958FEB93E008954F92C0
:1011A0005F926F927F928F929F92AF92BF92EF92D7
:1011B000FF920F931F93CF93DF9300D01F92CDB771
:1011C000DEB78C017B01CE0101960E945206898117
:1011D0009A81AB81BC814C015D0124E0820E911C9F
:1011E000A11CB11CA7014D5F5F4FFA0124E030E064
:1011F0002901712C612C481459046A047B0428F4D9
:10120000618161932F5F3F4FF3CFE80EF91EF70125
:101210001382F80153834283F701448150E070E068
:1012200060E0F8014483558366837783F701258165
:10123000522BF8014483558366837783F701268117
:10124000622BF8014483558366837783F7012781F6
:10125000722BF8014483558366837783F7014085B9
:1012600050E070E060E0F801408751876287738743
:10127000F7012185522BF8014087518762877387D8
:10128000F7012285622BF8014087518762877387B7
:10129000F7012385722BF801408751876287738796
:1012A0000C960F900F900F900F90DF91CF911F91A0
:1012B0000F91FF90EF90BF90AF909F908F907F9095
:1012C0006F905F904F9008958CED93E008958CE1BE
:1012D00092E008958DEF93E008958EE194E00895F3
:1012E0004F925F926F927F928F929F92AF92BF9236
:1012F000EF92FF920F931F93CF93DF9300D01F9233
:10130000CDB7DEB77C018B01FB018191BF01F701F5
:101310008283CE0101960E94520689819A81AB8117
:10132000BC814C015D01F5E08F0E911CA11CB11C2C
:10133000A8014C5F5F4FFA0125E030E02901712CD4
:10134000612C481459046A047B0428F46181619378
:101350002F5F3F4FF3CFF801E80FF91F1482F70119
:101360005483438305960F900F900F900F90DF9159
:10137000CF911F910F91FF90EF90BF90AF909F90F2
:101380008F907F906F905F904F90089581E394E0ED
:10139000089582E594E008954F925F926F927F9254
:1013A0008F929F92AF92BF92CF92DF92EF92FF9275
:1013B0000F931F93CF93DF93CDB7DEB72C970FB664
:1013C000F894DEBF0FBECDBF7C018B01DB018C9199
:1013D00090E0F7019383828311962C91922B938353
:1013E00082836E5F7F4FCE0101960E9452068980F4
:1013F0009A80AB80BC8024013501F6E04F0E511C71
:10140000611C711C98012B5F3F4FF90186E090E051
:10141000AC0170E060E0441555056605770520F4E1
:10142000418141930196F4CFB4016A5F7F4FF80187
:10143000E80DF91D1582D70115963C932E9314974C
:10144000600F711FCE0105960E945206BAE08B0E06
:10145000911C4D805E806F807884C401092C000C43
:10146000AA0BBB0B5C016D01A40CB51CC61CD71CE0
:10147000F801E80DF91DAF01401B510B70E060E071
:101480004A155B056C057D0538F42191AF0142508A
:101490005109DA012C93EFCF480C591CB801640DA7
:1014A000751DFB0131971082C4010197800F911FB8
:1014B000F70197838683CE0109960E945206920116
:1014C0002C5F3F4F89849A84AB84BC84A901032E8E
:1014D000000C660B770B480D591D6A1D7B1DF8012A
:1014E000E20FF31FCF01801B910BB0E0A0E0841747
:1014F0009507A607B70728F48191DF0112978C930F
:10150000F1CFC901880D991DF801E80FF91FDF011E
:1015100011971C9221503109020F131FD701199600
:101520001C930E9318972181428150E070E060E097
:10153000BA0155274427522B2081422B2381722B3D
:10154000F701428753876487758704962C960FB6F8
:10155000F894DEBF0FBECDBFDF91CF911F910F91E9
:10156000FF90EF90DF90CF90BF90AF909F908F90C3
:101570007F906F905F904F9008958BE694E0089570
:101580008CE894E00895FC01DB014C9150E070E0A0
:1015900060E0428353836483758311968C91119725
:1015A000582B428353836483758312968C911297D0
:1015B000682B428353836483758313968C911397AE
:1015C000782B428353836483758314964C911497CC
:1015D00050E070E060E0468357836087718715961E
:1015E0008C911597582B4683578360877187169681
:1015F0008C911697682B468357836087718717965F
:101600008C91782B468357836087718788E090E0C0
:101610000895DC01FB0112968C911297808313963A
:101620008C911397818314968C91149782831596CD
:101630008C911597838316968C91169784831796B1
:101640008C911797858318968C9118978683199695
:101650008C91878388E090E00895FC010190002040
:10166000E9F73197AF01481B590BBC0187E195E0C1
:101670000C9471028F929F92AF92BF92CF92DF92A1
:10168000EF92FF920F931F93CF93DF93CDB7DEB707
:10169000A1970FB6F894DEBF0FBECDBF6C01990FB6
:1016A000EE08FF08F7FE47C06DE287E195E00E9473
:1016B00007038C0122273327A9012C193D094E0964
:1016C0005F0919A2CE0181967C019AE0892E912CA6
:1016D000A12CB12CCA01B901A50194010E94031DDE
:1016E000605DF70162937F012115310541055105C8
:1016F00089F790E080E0309719F0CF010E942D0B20
:10170000080F191F8AE994E00E942D0B800F911F8A
:10171000A1960FB6F894DEBF0FBECDBFDF91CF917B
:101720001F910F91FF90EF90DF90CF90BF90AF90FF
:101730009F908F900895A701960119A28E010F5DC9
:101740001F4F8AE0C82ED12CE12CF12CCA01B9011F
:10175000A70196010E94031D605DF80162938F014D
:10176000211531054105510589F7309729F0CF0141
:101770000E942D0B8C01C6CF10E000E0C3CFCF92AA
:10178000DF92EF92FF926091F0047091F1048091EA
:10179000F2049091F30420E030E041EE54E40E9422
:1017A0003C1B20E030E040EF52E40E94721C0E949B
:1017B000AE1B70931605609315056091F40470914B
:1017C000F5048091F6049091F70420E030E041EEBA
:1017D00054E40E943C1B20E030E040EF52E40E94C1
:1017E000721C0E94AE1B70931405609313058091C8
:1017F000FA04811112C18091F904882309F47FC091
:1018000080911305909114052091150530911605CE
:10181000821B930B9093EF048093EE048091EE046F
:101820009091EF042091000230910102821B930BF2
:101830009093ED048093EC046091EC047091ED04BE
:10184000072E000C880B990B0E94E61B20E030E06D
:1018500040EA51E40E94721C6093E8047093E9042A
:101860008093EA049093EB042091EE043091EF040E
:10187000809100029091010282179307BCF4C090FE
:10188000E804D090E904E090EA04F090EB04609161
:10189000120270911302072E000C880B990B0E9404
:1018A000E61BA70196010E94D01A22C02091EE04E7
:1018B0003091EF04809100029091010228173907BE
:1018C0000CF09FC0C090E804D090E904E090EA04D6
:1018D000F090EB046091120270911302072E000C3D
:1018E000880B990B0E94E61BA70196010E94CF1A54
:1018F0000E94AE1B709313026093120282C080910B
:10190000F804882309F4C6C0809115059091160546
:101910002091130530911405821B930B9093E704DB
:101920008093E6048091E6049091E7042091000200
:1019300030910102821B930B9093ED048093EC0491
:101940006091EC047091ED04072E000C880B990B4C
:101950000E94E61B20E030E040EA51E40E94721C45
:101960006093E8047093E9048093EA049093EB0495
:101970002091E6043091E7048091000290910102E9
:1019800082179307BCF4C090E804D090E904E0907B
:10199000EA04F090EB046091140270911502072E96
:1019A000000C880B990B0E94E61BA70196010E9470
:1019B000D01A21C02091E6043091E7048091000202
:1019C0009091010228173907E4F4C090E804D09000
:1019D000E904E090EA04F090EB0460911402709145
:1019E0001502072E000C880B990B0E94E61BA7011D
:1019F00096010E94CF1A0E94AE1B7093150260934D
:101A000014020E94140760911202709113028091D7
:101A10001402909115020E94A9068DE994E00E949B
:101A20002D0B80911505909116050E943A0B88EABE
:101A300094E00E942D0B80911305909114050E9453
:101A40003A0B84EB94E00E942D0B8091140290914C
:101A500015020E943A0B82EC94E00E942D0B8091BB
:101A60001202909113020E943A0B1092F00410920D
:101A7000F1041092F2041092F3041092F404109204
:101A8000F5041092F6041092F704FF90EF90DF90A7
:101A9000CF9008958091150590911605209113051A
:101AA00030911405821B930B9093ED048093EC040A
:101AB0008091EC049091ED046091EC047091ED0440
:101AC000181619061CF0719561957109072E000C06
:101AD000880B990B0E94E61B20E030E040EA51E4BD
:101AE0000E94721C6093E8047093E9048093EA04F6
:101AF0009093EB048091EC049091ED0497FD43CF1B
:101B00008091EC049091ED04181619060CF4B7CEF0
:101B100078CFEF92FF920F931F93CF93DF938C01B7
:101B2000EB01FC01A281B381FD0101900020E9F7E6
:101B300031977F01EA1AFB0AA70170E060E0CE014D
:101B40000E948306F80162817381A701CE01049689
:101B50000E943C1ECE0DDF1DF80184818C8385819F
:101B60008D8386818E8387818F8380858887818519
:101B7000898782858A8783858B87C7010C96DF9149
:101B8000CF911F910F91FF90EF9008954F925F9228
:101B90006F927F928F929F92AF92BF92CF92DF927D
:101BA000EF92FF920F931F93CF93DF93EC017B0192
:101BB0008A81FB0180838B8181838C8182838D81EB
:101BC00083833496412C512C320104E010E09F01B4
:101BD0002F5F3F4FCF010296DF011396A8010C5FE4
:101BE0001F4F8A809B80AC80BD80481459046A04D2
:101BF0007B04C8F4AA85BB85A40FB51F14974C912C
:101C000011962C91119712969C91129713968C9184
:101C100040832183928383838FEF481A580A680A8E
:101C2000780A3496D4CF4C8540834D85F9014083A2
:101C30002E85FC0120838F858C93F701E00FF11F27
:101C4000412C512C3201AF019F012F5F3F4FCF013B
:101C50000296DF0113960C5F1F4F8C849D84AE8427
:101C6000BF84481459046A047B04D8F4CF01841B50
:101C7000950BAC89BD89A80FB91F3C9111962C9189
:101C8000119712969C91129713968C913083218311
:101C9000928383838FEF481A580A680A780A349629
:101CA000D3CF4E8940834F89F9014083288DFC01B1
:101CB0002083898D8C93412C512C32018E899F89F0
:101CC000A88DB98D481659066A067B0680F5520123
:101CD000AA0CBB1CEC8DFD8DEA0DFB1DA081B18112
:101CE000FD0101900020E9F731976F01CA1ADB0A64
:101CF000A60170E060E0C701800F911F0E9483067B
:101D00000C5F1F4F8C8D9D8DA80EB91EF501608153
:101D10007181A601C701800F911F0E943C1E0C0D0E
:101D20001D1DFFEF4F1A5F0A6F0A7F0AC7CFC80158
:101D3000DF91CF911F910F91FF90EF90DF90CF90A7
:101D4000BF90AF909F908F907F906F905F904F90DB
:101D50000895EF92FF920F931F93CF93DF938C011F
:101D60007B01DC0112962C911297FB012193CF018C
:101D70001396ED91FC91EF0109900020E9F721976E
:101D8000CE1BDF0BAE0170E060E00E948306D8013D
:101D900013966D917C91AE01C70105960E943C1E81
:101DA000CE010596DF91CF911F910F91FF90EF909B
:101DB0000895CF92DF92EF92FF920F931F93CF93EC
:101DC000DF936C01EB01DC0112968C9112978883F2
:101DD00013968C91139789831496ED91FC91DF01F2
:101DE0000D900020E9F78D01015011090E1B1F0B0A
:101DF000A80170E060E0CE0102960E948306F60121
:101E000064817581A801CE0106960E943C1EC8011E
:101E10000696F601A681B781FD0101900020E9F741
:101E200031977F01EA1AFB0AA70170E060E08C0F8E
:101E30009D1F0E948306065F1F4FD60116966D9167
:101E40007C91A701CE01800F911F0E943C1E0E0DB8
:101E50001F1DF601A085B185FD0101900020E9F765
:101E600031977F01EA1AFB0AA70170E060E0CE011A
:101E7000800F911F0E9483060C5F1F4FD60118969A
:101E80006D917C91A701CE01800F911F0E943C1E95
:101E9000C701800F911FF601628543853485258532
:101EA000C80FD91F688349833A832B830496DF9137
:101EB000CF911F910F91FF90EF90DF90CF900895F9
:101EC0004F925F926F927F92AF92BF92CF92DF92CA
:101ED000EF92FF920F931F93CF93DF93EC015B017F
:101EE000FB01C080D180E280F3808A819B81AC813C
:101EF000BD818C159D05AE05BF0560F48CE08C9D01
:101F0000B0018D9D700D11248A899B890E945B1DF3
:101F10009B8B8A8BCA82DB82EC82FD82F12CE12CC6
:101F2000412C512C320104E010E06E01F6E0CF0E9E
:101F3000D11CF501E00FF11F8A819B81AC81BD812D
:101F4000481659066A067B06C8F4BF01C6010E94FE
:101F5000CF08080F191FAA89BB89AE0DBF1D8CE0E1
:101F6000F60101900D928A95E1F78FEF481A580A11
:101F7000680A780AECE0EE0EF11CDBCF808190E07D
:101F8000B0E0A0E08C8B9D8BAE8BBF8B2181922B20
:101F90008C8B9D8BAE8BBF8B2281A22B8C8B9D8BD0
:101FA000AE8BBF8B2381B22B8C8B9D8BAE8BBF8B6B
:101FB000C8010496DF91CF911F910F91FF90EF9090
:101FC000DF90CF90BF90AF907F906F905F904F90D9
:101FD0000895AF92BF92CF92DF92EF92FF920F934C
:101FE0001F93CF93DF93EC018B0102960E94600F49
:101FF000080F191FF80120813181C280D12CF12CEA
:10200000E12C7601DD24CC24D32AC22A2381F22AB2
:102010005C01F4E0AF0EB11C8A8D9B8DAC8DBD8D43
:102020008C159D05AE05BF0558F4B601660F771FE8
:10203000660F771F8AA19BA10E945B1D9BA38AA3A9
:10204000CA8EDB8EEC8EFD8E9801C12CD12C7601D0
:10205000AE01425E5F4F8A8D9B8DAC8DBD8DC816E3
:10206000D906EA06FB0650F5F9016581868190E004
:10207000B0E0A0E0DC0199278827962B6481862BAD
:102080006781B62B8E8F9F8FA8A3B9A3F4E0AF0E04
:10209000B11CC901801B910BAAA1BBA1A80FB91F3C
:1020A00084E0FA0101900D928A95E1F78FEFC81A4A
:1020B000D80AE80AF80A2C5F3F4FCDCFC501DF915F
:1020C000CF911F910F91FF90EF90DF90CF90BF9035
:1020D000AF9008952F923F924F925F926F927F92AE
:1020E0008F929F92AF92BF92CF92DF92EF92FF9228
:1020F0000F931F93CF93DF93CDB7DEB72E970FB615
:10210000F894DEBF0FBECDBF8C016B01DB018D905B
:102110009D90AD90BC90FC0182819381A481B5819A
:1021200088159905AA05BB0570F4B401660F771FE1
:10213000660F771F828593850E945B1DD8011B96D1
:102140009C938E931A97F80182829382A482B5821F
:10215000C60140E050E0BA01A4E0EA2EF12C98015B
:102160002A5F3F4FDC011596EC91159716964C901F
:102170001697512C712C612C3201552444245E2A6F
:102180001496EC9114974E2A1796EC917E2AD7015B
:102190001701E4E02E0E311C71010496F8018280D3
:1021A0009380A480B580481559056A057B05A8F47D
:1021B00046825782608671861497A284B384AA0DE2
:1021C000BB1DE4E0BE2EF90101900D92BA94E1F737
:1021D0004F5F5F4F6F4F7F4FC5CF84859585A68535
:1021E000B78584159505A605B70570F4B201660F8D
:1021F000771F660F771F848995890E945B1DD80120
:1022000055969C938E935497F8014486558666861E
:102210007786C601820D931D412C512C32011C0181
:102220009801205F3F4FDC0111966C911197129637
:102230008C901297912CB12CA12C540199248824B4
:10224000962A6C91862A13966C91B62AB4E0EB0E0E
:10225000F11CF80144855585668577854416550639
:1022600066067706C0F4808A918AA28AB38ABC0186
:1022700062197309A489B589A60FB71F64E0F90133
:1022800001900D926A95E1F7BFEF4B1A5B0A6B0A5A
:102290007B0A0496C8CF86899789A08DB18D881551
:1022A0009905AA05BB0560F4B401660F771F848DFC
:1022B000958D0E945B1DD8015D969C938E935C97D3
:1022C000F801868A978AA08EB18E412C512C32015A
:1022D0001801FAE12F0E311CF80186899789A08D2B
:1022E000B18D481659066A067B0608F05CC0B60137
:1022F0006E0D7F1DCE0101960E94520697012C5F44
:102300003F4F3E872D8789809A80AB80BC80C90172
:10231000032E000CAA0BBB0BAC01BD01480D591DCF
:102320006A1D7B1D49875A876B877C87F901EC0DF5
:10233000FD1D9F012C193D09B90190E080E0298520
:102340003A854B855C85621773078407950728F4E7
:102350002191DF0112972C93ECCFED84FE84E80CE1
:10236000F91CF601EE0DFF1D319710828D859E85BB
:1023700001978C0D9D1DD8015B969C938E935A9767
:10238000C201880F991F5C96ED91FC91E80FF91F2F
:10239000D1018D919C9191838083BFEF4B1A5B0A91
:1023A0006B0A7B0A99CFC7012E960FB6F894DEBF51
:1023B0000FBECDBFDF91CF911F910F91FF90EF9096
:1023C000DF90CF90BF90AF909F908F907F906F9055
:1023D0005F904F903F902F9008952F923F924F9291
:1023E0005F926F927F928F929F92AF92BF92CF92A5
:1023F000DF92EF92FF920F931F93CF93DF93CDB7AE
:10240000DEB7A6970FB6F894DEBF0FBECDBF8C0126
:102410000E945E054B015C01980125573B4F3E8BA6
:102420002D8BF90180819181A281B38175016401B5
:10243000C81AD90AEA0AFB0AD701C601893F9A429B
:10244000A105B10510F035971082180134E8231A60
:102450003BEF330AD1018D919C91892B79F0F801E2
:10246000E157FB4F80819181A281B3818815990545
:10247000AA05BB0518F4F1011182108298012C57AE
:102480003B4F3A8B298BA80140585B4F5C8B4B8BA1
:10249000C8014896988F8F8BD801AA57BB4FBC8F25
:1024A000AB8FF801EC56FB4FFE8FED8F215F3F4F56
:1024B00038A32F8F42505109588B4F8786599B4F15
:1024C0009A8F898F1996BAA3A9A3A50194012C5EAE
:1024D0003F4F4F4F5F4F2BA33CA34DA35EA3F8018B
:1024E00084899589A689B789892B8A2B8B2BB9F585
:1024F000D80112968D919C91DC01ED91FC910284A2
:10250000F385E02D19959C0197FF3DC0F801EA572E
:10251000FB4F8081882301F17801B9E7EB1ABBEF0B
:10252000FB0AF70180819181A281B381A501940109
:10253000281B390B4A0B5B0BDA01C901853C99401A
:10254000A105B10548F0C8010E941C06D7018D9273
:102550009D92AD92BC92139790E080E0B6C10E942C
:102560005E05681979098A099B09F801C488D5882C
:10257000E688F788C616D706E806F90608F0B8CF49
:102580008EEF9FEFA2C1A989BA898D919C91119775
:10259000820F931F8D939C93F101408151814730AD
:1025A0005105F9F4A98DBA8D8D919C911197AC01CB
:1025B0004F5F5F4F4D935C93800F911FFC01208F05
:1025C000AF85B8898D919C91119701978D939C93BC
:1025D000892B09F084CF88E090E0F101918380831A
:1025E0007ECF4115510521F52F3F310581F481E062
:1025F00090E091838083CBA0DCA0EDA0FEA0A9A1F8
:10260000BAA1CD92DD92ED92FC92139768CF0E9411
:102610005E05681979098A099B0969387341810542
:10262000910508F45CCFF801EA57FB4F1082A8CF60
:102630004130510589F42E3F310519F482E090E0D4
:10264000CCCF11821082EB8DFC8D8081811147CF20
:10265000C8010E941C0643CF4230510591F4AF855A
:10266000B8892D933C93E98DFA8D1182108283E015
:1026700090E0D1018D939C93E989FA89318320837D
:102680002ECF4330510571F4322F2227AF85B88900
:102690008D919C911197280F391F2D933C9384E0C5
:1026A00090E09BCF4430510579F460E071E00E94E6
:1026B000EF1C8F3F910529F485E090E091838083A2
:1026C0000ECF118210820BCF4530510569F4AB89D2
:1026D000BC892D933C9386E090E091838083A98907
:1026E000BA892D933C93FBCE46305105A1F4322F8D
:1026F0002227EB89FC8980819181280F391F318342
:10270000208387E090E0D1018D939C93EF85F88939
:10271000808191815DCF4830510509F0E0CE118272
:10272000108260E071E00E94EF1C8F3F910509F07C
:10273000D6CEAB89BC89ED91FC91309709F0DEC013
:10274000C8010E941C068CE392E09A8389831C8254
:102750001B828CE994E09E838D8398878F839A8770
:1027600089871B861C861D861E866801B8EECB1ADB
:10277000BBEFDB0A7801E6EBEE1AEBEFFE0A412C29
:1027800022E0522E612C712CD601ED91FC913097F4
:10279000A9F1848195819C838B83808191819E8323
:1027A0008D8382819381DC01ED91FC910480F58120
:1027B000E02D199598878F83D601ED91FC91828148
:1027C0009381DC01ED91FC910680F781E02D199554
:1027D0009A8789874B865C866D867E86D601ED91C9
:1027E000FC9160857185D801ED91FC910190F0819B
:1027F000E02DAE014F5F5F4FC8011995B2E0CB0EDF
:10280000D11CEC14FD0409F0BFCF412C92E0592EED
:10281000612C712CF701A081B1811097E1F1129622
:102820008D919C9113979C838B8314968D919C9191
:1028300015979E838D83ED91FC9111970480F5810E
:10284000E02DCD01199598878F83D7018D919C91AB
:10285000DC01ED91FC910680F781E02D19959A87B6
:1028600089874B865C866D867E86D801ED91FC91CA
:10287000C080D180F70180819181DC01ED91FC91D4
:102880000280F381E02D1995AE014F5F5F4FBC01CF
:10289000C801F6011995F2E0EF0EF11CE214F30401
:1028A00009F0B8CFF801EA57FB4F81E080833196F9
:1028B00080829182A282B382AD89BE898D929D92DF
:1028C000AD92BC9213978FEF9FEFA6960FB6F89438
:1028D000DEBF0FBECDBFDF91CF911F910F91FF9053
:1028E000EF90DF90CF90BF90AF909F908F907F90B0
:1028F0006F905F904F903F902F900895EA30F105D0
:1029000009F0A1C088E492E09A8389831B821C822B
:102910001D821E821F82188619861A860E945E05F5
:10292000F801C084D184E284F3849B01AC012C19AA
:102930003D094E095F0969017A016F89788DCE01E1
:1029400001960E94C30AC701B60128EE33E040E0B9
:1029500050E00E94031D69017A019B01AC018B814B
:102960009C81AD81BE818C0D9D1DAE1DBF1D8B83D5
:102970009C83AD83BE8360E472E48FE090E00E94AC
:10298000DF1CCF80D884E984FA84DC01CB018C0D74
:102990009D1DAE1DBF1D8F839887A987BA870E9492
:1029A0005E05CF80D884E984FA8436E3D31A35E60D
:1029B000E30A34ECF30A28EE33E040E050E00E94F2
:1029C000031D29013A019B01AC0160E472E48FE030
:1029D00090E00E94DF1CA7019601261B370B480BD5
:1029E000590BCA01B9012B813C814D815E81215077
:1029F00031094109510969017A01C418D508E6086D
:102A0000F7082601370120E03AEC4AE95BE30E942F
:102A1000031D420E531E641E751ED8011C964D9256
:102A20005D926D927C921F97F801608B718B828B07
:102A3000938B0E945E05AD89BE896D937D938D93C6
:102A40009C9313974CCDE630F10559F46F89788D3E
:102A50008D8D9E8D0E946A1081E0EF8DF8A180839C
:102A60003ECDEB30F10521F4AB8DBC8D1C9237CD02
:102A7000EF53FE4FEE0FFF1FE00FF11F808191819A
:102A8000009709F42CCDDC01ED91FC910190F081CF
:102A9000E02D6F89788D199522CD1F920F920FB678
:102AA0000F9211240BB60F922F933F934F935F9386
:102AB0006F937F938F939F93AF93BF93EF93FF9306
:102AC00087E195E00E94E502FF91EF91BF91AF9100
:102AD0009F918F917F916F915F914F913F912F9136
:102AE0000F900BBE0F900FBE0F901F9018951F9266
:102AF0000F920FB60F9211240BB60F922F938F9354
:102B00009F93EF93FF93E0912705F0912805808133
:102B1000E0912D05F0912E0582FD1DC090818091E0
:102B200030058F5F8F7320913105821741F0E0915E
:102B30003005F0E0E95EFA4F958F80933005FF9104
:102B4000EF919F918F912F910F900BBE0F900FBE21
:102B50000F901F9018958081F2CF1F920F920FB6A1
:102B60000F9211242F933F938F939F93AF93BF9313
:102B70008091FE049091FF04A0910005B0910105A1
:102B80003091FD0423E0230F2D3758F50196A11D48
:102B9000B11D2093FD048093FE049093FF04A09345
:102BA0000005B09301058091020590910305A09165
:102BB0000405B09105050196A11DB11D8093020584
:102BC00090930305A0930405B0930505BF91AF91C1
:102BD0009F918F913F912F910F900FBE0F901F905B
:102BE000189526E8230F0296A11DB11DD2CF1F9282
:102BF0000F920FB60F9211240BB60F922F933F93A3
:102C00004F935F936F937F938F939F93AF93BF93F4
:102C1000EF93FF93E0911002F09111021995FF914B
:102C2000EF91BF91AF919F918F917F916F915F9144
:102C30004F913F912F910F900BBE0F900FBE0F90B1
:102C40001F9018951F920F920FB60F9211240BB67A
:102C50000F922F933F934F935F936F937F938F9335
:102C60009F93AF93BF93EF93FF93E0910E02F09188
:102C70000F021995FF91EF91BF91AF919F918F91A5
:102C80007F916F915F914F913F912F910F900BBE6C
:102C90000F900FBE0F901F9018951F920F920FB6B6
:102CA0000F9211240BB60F922F933F934F935F9384
:102CB0006F937F938F939F93AF93BF93EF93FF9304
:102CC000E0910402F09105021995FF91EF91BF91F7
:102CD000AF919F918F917F916F915F914F913F91B4
:102CE0002F910F900BBE0F900FBE0F901F90189555
:102CF0001F920F920FB60F9211240BB60F922F93C3
:102D00003F934F935F936F937F938F939F93AF9373
:102D1000BF93EF93FF93E0910202F09103021995A4
:102D2000FF91EF91BF91AF919F918F917F916F91A3
:102D30005F914F913F912F910F900BBE0F900FBE5F
:102D40000F901F9018951F920F920FB60F9211249B
:102D50000BB60F922F933F934F935F936F937F9395
:102D60008F939F93AF93BF93EF93FF93E0910C02E8
:102D7000F0910D021995FF91EF91BF91AF919F9145
:102D80008F917F916F915F914F913F912F910F9014
:102D90000BBE0F900FBE0F901F9018951F920F92B1
:102DA0000FB60F9211240BB60F922F933F934F93B0
:102DB0005F936F937F938F939F93AF93BF93EF93A3
:102DC000FF93E0910A02F0910B021995FF91EF91A8
:102DD000BF91AF919F918F917F916F915F914F9133
:102DE0003F912F910F900BBE0F900FBE0F901F9031
:102DF00018951F920F920FB60F9211240BB60F92D7
:102E00002F933F934F935F936F937F938F939F93F2
:102E1000AF93BF93EF93FF93E0910802F091090203
:102E20001995FF91EF91BF91AF919F918F917F91F4
:102E30006F915F914F913F912F910F900BBE0F902B
:102E40000FBE0F901F9018951F920F920FB60F9202
:102E500011240BB60F922F933F934F935F936F9371
:102E60007F938F939F93AF93BF93EF93FF93E091E3
:102E70000602F09107021995FF91EF91BF91AF9172
:102E80009F918F917F916F915F914F913F912F9182
:102E90000F900BBE0F900FBE0F901F9018951F92B2
:102EA0000F920FB60F9211240BB60F922F933F93F0
:102EB0004F935F936F937F938F939F93AF93BF9342
:102EC000EF93FF9380910C0590910D058093B200D4
:102ED00080910F0590911005A0911105B0911205F8
:102EE0000196A11DB11D80930F0590931005A0932D
:102EF0001105B093120580910F0590911005A091D6
:102F00001105B09112054091080550910905609195
:102F10000A0570910B0584179507A607B70710F1EE
:102F200080910E0581111EC081E080930E05809175
:102F30000F0590911005A0911105B0911205841B09
:102F4000950BA60BB70B80930F0590931005A093DC
:102F50001105B0931205E0910605F091070519954A
:102F600010920E05FF91EF91BF91AF919F918F91BC
:102F70007F916F915F914F913F912F910F900BBE79
:102F80000F900FBE0F901F90189510921A05109277
:102F9000190588EE93E0A0E0B0E080931B059093C4
:102FA0001C05A0931D05B0931E0580E692E090934A
:102FB00018058093170585EC90E090932405809385
:102FC000230584EC90E0909326058093250580EC02
:102FD00090E0909328058093270581EC90E09093F2
:102FE0002A058093290582EC90E090932C0580932C
:102FF0002B0586EC90E090932E0580932D05109282
:10300000300510923105109232051092330582EA94
:1030100092E09093F3058093F20587E195E0909319
:10302000F5058093F40580E091EEA0E0B0E0809398
:10303000F6059093F705A093F805B093F905109263
:10304000780A86E992E09093870A8093860A109224
:103050009C0A10929D0A10929E0A10929F0A10924A
:10306000A30A1092A20AEAE0FAE0119211928AE011
:10307000EC33F807D1F7ECE3FAE0119211928AE011
:10308000EE36F807D1F7EAE0F6E08AE098E0119230
:103090008E179F07E1F7EAE0F8E011928AE0EA3044
:1030A000F807D9F71092880A1092890A10928A0AB2
:1030B00010928B0A1092910A1092900A1092920A22
:1030C0001092930A1092940A1092950A10929B0AF9
:1030D00010929A0A1092060610920706109208069D
:1030E000109209068AE892E09093CF058093CE056E
:1030F0008EE792E09093D1058093D0051092D2058F
:103100001092D3051092D4051092D50582E792E073
:103110009093D7058093D6058CE994E09093D905D8
:103120008093D8051092DA051092DB051092DC0529
:103130001092DD051092DE051092DF051092E00579
:103140001092E1051092E3051092E2051092E40559
:103150001092E5051092E6051092E7051092E80539
:103160001092E9051092EA051092EB051092F10514
:103170001092F00581ED94E09093C5058093C4050D
:103180008EEC95E09093C7058093C6051092CD050F
:103190001092CC0588EB92E09093B5058093B4052E
:1031A0008CEA92E09093BB058093BA051092BC051F
:1031B0001092BD051092BE051092BF0589E397E0FD
:1031C0009093C1058093C00581E090E09093C30582
:1031D0008093C20589ED94E09093B9058093B8057A
:1031E0000895789484B5826084BD84B5816084BD7F
:1031F00085B5826085BD85B5816085BD80916E0095
:10320000816080936E0010928100809181008260C5
:103210008093810080918100816080938100809102
:1032200080008160809380008091B10084608093F1
:10323000B1008091B00081608093B00080919100D6
:1032400082608093910080919100816080939100D1
:10325000809190008160809390008091A1008260B5
:103260008093A1008091A10081608093A100809152
:10327000A00081608093A0008091210182608093F2
:1032800021018091210181608093210180912001A1
:1032900081608093200180917A00846080937A001D
:1032A00080917A00826080937A0080917A008160B8
:1032B00080937A0080917A00806880937A001092DF
:1032C000C1004091F6055091F7056091F8057091A5
:1032D000F9058091F4059091F5050E94E3011092A3
:1032E0006F0A10926E0A1092710A1092700A109270
:1032F000750A1092740A1092730A1092720AEAE028
:10330000FAE090E080E021913191232B09F03BC15C
:10331000FC01EE0FFF1FE65FF54F24EC35E0318333
:10332000208383589F4F9093C9058093C80582EFEF
:1033300095E09093CB058093CA05ECE3FAE090E02A
:1033400080E021913191232B09F023C1FC01EE0F84
:10335000FF1FE45CF54F24EB35E0318320838C596B
:103360009F4F9093B7058093B60560E082E10E947D
:10337000310461E086E00E94310461E08BE00E944C
:10338000310461E08CE00E94310460E085E10E943C
:10339000310461E088E00E94310461E087E00E942E
:1033A000310461E089E00E94310461E085E20E941D
:1033B000310460E081E20E94310483E492E0909362
:1033C0000D0280930C0280916900806C80936900EB
:1033D000EB9A8AE592E0909307028093060280912F
:1033E0006900836080936900E89A84EF91E0A0E02F
:1033F000B0E08093080590930905A0930A05B09367
:103400000B058FEB9BE09093070580930605809159
:1034100070008E7F809370008091B0008C7F8093CD
:10342000B0008091B100877F8093B1008091B60099
:103430008F7D8093B600809170008D7F80937000A7
:103440008091B10084608093B1008091B1008C7F45
:103450008093B10086E090E090930D0580930C0579
:1034600010920F051092100510921105109212057E
:1034700010920E0580910C0590910D058093B2007D
:103480008091700081608093700040E051EE60E0B8
:1034900070E087E195E00E94E30170E060E090E079
:1034A00080E00E94A906E091F005F091F10580917D
:1034B000140290911502092E000CAA0BBB0B8083FD
:1034C0009183A283B3838091120290911302092EFB
:1034D000000CAA0BBB0B84839583A683B7838091D2
:1034E000150590911605092E000CAA0BBB0B8087C1
:1034F0009187A287B3878091130590911405092EB7
:10350000000CAA0BBB0B84879587A687B787809191
:10351000CA059091CB056091C8057091C905DC0181
:10352000ED91FC910190F081E02D4EEC55E0199564
:1035300082EF95E00E94ED110E9439054B015C017C
:1035400084E6C82ED12CE12CF12C0E943905681993
:1035500079098A099B09683E734081059105A8F3A2
:10356000B1E0CB1AD108E108F10828EE820E23E081
:10357000921EA11CB11CC114D104E104F10429F76D
:103580000E94740390CF01968931910509F0BBCE5A
:10359000D4CE01968931910509F0D3CEE6CE5058AC
:1035A000BB27AA270E94E71A0C94381C0E942A1CE9
:1035B00038F00E94311C20F039F49F3F19F426F4B2
:1035C0000C94271C0EF4E095E7FB0C94211CE92FCA
:1035D0000E94491C58F3BA176207730784079507BE
:1035E00020F079F4A6F50C946B1C0EF4E0950B2EEC
:1035F000BA2FA02D0B01B90190010C01CA01A00145
:103600001124FF27591B99F0593F50F4503E68F19F
:103610001A16F040A22F232F342F4427585FF3CFE0
:10362000469537952795A795F0405395C9F77EF4B1
:103630001F16BA0B620B730B840BBAF09150A1F0FA
:10364000FF0FBB1F661F771F881FC2F70EC0BA0F80
:10365000621F731F841F48F4879577956795B79508
:10366000F7959E3F08F0B0CF9395880F08F0992703
:10367000EE0F9795879508950E94501B0C94381C67
:103680000E94311C58F00E942A1C40F029F45F3F30
:1036900029F00C94211C51110C946C1C0C94271CC7
:1036A0000E94491C68F39923B1F3552391F3951BAC
:1036B000550BBB27AA2762177307840738F09F5F53
:1036C0005F4F220F331F441FAA1FA9F335D00E2EC0
:1036D0003AF0E0E832D091505040E695001CCAF72D
:1036E0002BD0FE2F29D0660F771F881FBB1F2617F0
:1036F00037074807AB07B0E809F0BB0B802DBF01C7
:10370000FF2793585F4F3AF09E3F510578F00C9495
:10371000211C0C946C1C5F3FE4F3983ED4F3869517
:1037200077956795B795F7959F5FC9F7880F911DB6
:103730009695879597F90895E1E0660F771F881FA2
:10374000BB1F621773078407BA0720F0621B730B55
:10375000840BBA0BEE1F88F7E09508950E94B51B05
:103760006894B1110C946C1C08950E94511C88F04F
:103770009F5798F0B92F9927B751B0F0E1F0660F35
:10378000771F881F991F1AF0BA95C9F714C0B13076
:1037900091F00E946B1CB1E008950C946B1C672F94
:1037A000782F8827B85F39F0B93FCCF386957795A5
:1037B0006795B395D9F73EF490958095709561958E
:1037C0007F4F8F4F9F4F0895E89409C097FB3EF4B9
:1037D00090958095709561957F4F8F4F9F4F99235E
:1037E000A9F0F92F96E9BB279395F69587957795DC
:1037F0006795B795F111F8CFFAF4BB0F11F460FF9C
:103800001BC06F5F7F4F8F4F9F4F16C0882311F0F3
:1038100096E911C0772321F09EE8872F762F05C007
:10382000662371F096E8862F70E060E02AF09A95A2
:10383000660F771F881FDAF7880F9695879597F997
:10384000089597F99F6780E870E060E008959FEF22
:1038500080EC089500240A94161617061806090627
:10386000089500240A9412161306140605060895F6
:10387000092E0394000C11F4882352F0BB0F40F47E
:10388000BF2B11F460FF04C06F5F7F4F8F4F9F4FBE
:10389000089557FD9058440F551F59F05F3F71F040
:1038A0004795880F97FB991F61F09F3F79F08795A7
:1038B0000895121613061406551FF2CF4695F1DF30
:1038C00008C0161617061806991FF1CF86957105C0
:1038D000610508940895E894BB2766277727CB01F4
:1038E00097F908950E94851C0C94381C0E942A1C8C
:1038F00038F00E94311C20F0952311F00C94211C0B
:103900000C94271C11240C946C1C0E94491C70F30D
:10391000959FC1F3950F50E0551F629FF001729F74
:10392000BB27F00DB11D639FAA27F00DB11DAA1F83
:10393000649F6627B00DA11D661F829F2227B00DD0
:10394000A11D621F739FB00DA11D621F839FA00D5B
:10395000611D221F749F3327A00D611D231F849FAB
:10396000600D211D822F762F6A2F11249F57504002
:103970009AF0F1F088234AF0EE0FFF1FBB1F661F7D
:10398000771F881F91505040A9F79E3F510580F046
:103990000C94211C0C946C1C5F3FE4F3983ED4F310
:1039A000869577956795B795F795E7959F5FC1F7EA
:1039B000FE2B880F911D9695879597F90895DB0149
:1039C0008F939F930E942D1DBF91AF91A29F800D59
:1039D000911DA39F900DB29F900D1124089597FB08
:1039E000072E16F4009407D077FD09D00E94381DE9
:1039F00007FC05D03EF4909581959F4F08957095F2
:103A000061957F4F0895A1E21A2EAA1BBB1BFD01F1
:103A10000DC0AA1FBB1FEE1FFF1FA217B307E407AD
:103A2000F50720F0A21BB30BE40BF50B661F771F05
:103A3000881F991F1A9469F76095709580959095E5
:103A40009B01AC01BD01CF010895EE0FFF1F881F40
:103A50008BBF0790F691E02D19940E944C1DA59FF5
:103A6000900DB49F900DA49F800D911D1124089579
:103A7000AA1BBB1B51E107C0AA1FBB1FA617B70794
:103A800010F0A61BB70B881F991F5A95A9F78095B0
:103A90009095BC01CD010895A29FB001B39FC001D4
:103AA000A39F700D811D1124911DB29F700D811D6A
:103AB0001124911D08954F925F926F927F928F9281
:103AC0009F92AF92BF92CF92DF92EF92FF920F93AD
:103AD0001F93CF93DF938C01009799F4CB01DF9173
:103AE000CF911F910F91FF90EF90DF90CF90BF90FB
:103AF000AF909F908F907F906F905F904F900C94BD
:103B0000451EFC01E60FF71F9C0122503109E21708
:103B1000F30708F4AEC0D901CD91DC911197C61717
:103B2000D70720F1C530D10578F0CE01049786176C
:103B3000970750F0C61BD70B2297C193D1936D9373
:103B40007C93CF010E94E11EC801DF91CF911F91AC
:103B50000F91FF90EF90DF90CF90BF90AF909F902C
:103B60008F907F906F905F904F9008955B01AC1A9B
:103B7000BD0A4C018C0E9D1EA091A60AB091A70A09
:103B8000512C412CF12CE12C109731F58091A40A95
:103B90009091A50A8815990509F05CC0461657064C
:103BA00008F058C08091160290911702009741F4D6
:103BB0008DB79EB740911A0250911B02841B950B42
:103BC000E817F90708F055C0F093A50AE093A40A96
:103BD000F90171836083B8CF8D919C9111971296F2
:103BE0006C90129713967C901397A815B90559F508
:103BF0006C0142E0C40ED11CCA14DB0420F1AC01FC
:103C00004A195B09DA011296159780F06282738275
:103C100051834083D9016D937C93E114F10471F0D9
:103C2000D7011396FC93EE9312978ECF22968C0FAA
:103C30009D1FF90191838083F301EFCFF093A70AD1
:103C4000E093A60A81CF4816590608F42C017D019D
:103C5000D3019ACFCB010E94451E7C01009749F009
:103C6000AE01B8010E943C1EC8010E94E11E8701FE
:103C70006BCF10E000E068CFFB01DC0102C00190D7
:103C80000D9241505040D8F708950F931F93CF9352
:103C9000DF938230910510F482E090E0E091A60A73
:103CA000F091A70A30E020E0B0E0A0E0309799F46E
:103CB0002115310509F44AC0281B390B2430310580
:103CC000D8F58A819B816115710589F1FB01938388
:103CD0008283FE0111C04081518102811381481706
:103CE0005907E0F04817590799F4109761F01296B8
:103CF0000C93129713961C933296CF01DF91CF91BC
:103D00001F910F9108950093A60A1093A70AF4CF6C
:103D10002115310551F04217530738F0A901DB0195
:103D20009A01BD01DF01F801C1CFEF01F9CF9093F6
:103D3000A70A8093A60ACDCFFE01E20FF31F81935D
:103D400091932250310939832883D7CF2091A40A37
:103D50003091A50A232B41F42091180230911902C9
:103D60003093A50A2093A40A2091160230911702DD
:103D70002115310541F42DB73EB740911A025091FB
:103D80001B02241B350BE091A40AF091A50AE2174F
:103D9000F307A0F42E1B3F0B2817390778F0AC016E
:103DA0004E5F5F4F2417350748F04E0F5F1F50934B
:103DB000A50A4093A40A819391939FCFF0E0E0E09D
:103DC0009CCFCF93DF930097E9F0FC0132971382E9
:103DD0001282A091A60AB091A70AED0130E020E07E
:103DE0001097A1F420813181820F931F2091A40AA2
:103DF0003091A50A2817390709F061C0F093A50A88
:103E0000E093A40ADF91CF910895EA01CE17DF076E
:103E1000E8F54A815B819E0141155105B1F7E90141
:103E2000FB83EA8349915991C40FD51FEC17FD0715
:103E300061F4808191810296840F951FE901998335
:103E40008883828193819B838A83F0E0E0E01296ED
:103E50008D919C9113970097B9F52D913C911197F5
:103E6000CD010296820F931F2091A40A3091A50ADA
:103E70002817390739F6309751F51092A70A109292
:103E8000A60AB093A50AA093A40ABCCFD383C28389
:103E900040815181840F951FC817D90761F44E5F87
:103EA0005F4F88819981480F591F518340838A81D0
:103EB0009B81938382832115310509F0B0CFF09364
:103EC000A70AE093A60A9ECFFD01DC01C0CF1382B2
:103ED0001282D7CFF894FFCF0C006A056A056A05F5
:103EE0006A056A056A056A056A05AA00AA00000053
:103EF000A80A8000726F7373657269616C5F6D737D
:103F000067732F52657175657374506172616D00CE
:103F100000000000D90ECC09C909C6090000000044
:103F2000090BC30AC00ABD0A00000000A90E7009EF
:103F30006D096A0900000000070371029E02540324
:103F4000CF02AD02C10200000000890DCF08CC08ED
:103F5000C908000000001908600F160813080000C7
:103F600000007808E90F10080D0800000000C60DD9
:103F70006A1067096409000000007A05ED116B05FD
:103F800000000000F907D807730570050000000065
:103F9000E507760573057005646135393039666269
:103FA000653337386165616638356535343765386E
:103FB0003330636331626237007374645F6D7367BB
:103FC000732F496E743332004D65737361676520DA
:103FD00066726F6D206465766963652064726F70C8
:103FE0007065643A206D657373616765206C6172FA
:103FF000676572207468616E206275666665722EF0
:1040000000316439396637396638623332356234A3
:104010003466656539303830353365396339343560
:1040200062007374645F6D7367732F496E7433320B
:104030004D756C74694172726179003066656432E5
:104040006131316331336531316335353731623454
:104050006532613939356139316133007374645FB8
:104060006D7367732F4D756C746941727261794C11
:1040700061796F7574003463643063383361383646
:104080003833646561653430656364616336306517
:10409000353362666138007374645F6D7367732FC4
:1040A0004D756C7469417272617944696D656E73A6
:1040B000696F6E003966306539386264613635394A
:1040C0003831393836646466353361666137613456
:1040D00030653439003131616264373331633235F0
:1040E00039333332363163643631383362643132D6
:1040F000643632393500726F7373657269616C5F53
:104100006D7367732F4C6F670030616435316638AB
:10411000386663343438393266386331303638348F
:1041200030373736343630303500726F737365721E
:1041300069616C5F6D7367732F546F706963496E4B
:10414000666F006364373136366337346335353232
:10415000633331316662636332666535613762634A
:10416000323839007374645F6D7367732F54696DEF
:1041700065000D0A004C6566742072706D3A20006F
:1041800052696768742072706D3A20006C656674BD
:10419000207370656564203A200072696768742036
:1041A0007370656564203A20006368617474657299
:0C41B00000746F41726475696E6F00004E
:10E000000D9489F10D94B2F10D94B2F10D94B2F129
:10E010000D94B2F10D94B2F10D94B2F10D94B2F1F0
:10E020000D94B2F10D94B2F10D94B2F10D94B2F1E0
:10E030000D94B2F10D94B2F10D94B2F10D94B2F1D0
:10E040000D94B2F10D94B2F10D94B2F10D94B2F1C0
:10E050000D94B2F10D94B2F10D94B2F10D94B2F1B0
:10E060000D94B2F10D94B2F10D94B2F10D94B2F1A0
:10E070000D94B2F10D94B2F10D94B2F10D94B2F190
:10E080000D94B2F10D94B2F10D94B2F10D94B2F180
:10E090000D94B2F10D94B2F10D94B2F10D94B2F170
:10E0A0000D94B2F10D94B2F10D94B2F10D94B2F160
:10E0B0000D94B2F10D94B2F10D94B2F10D94B2F150
:10E0C0000D94B2F10D94B2F10D94B2F10D94B2F140
:10E0D0000D94B2F10D94B2F10D94B2F10D94B2F130
:10E0E0000D94B2F141546D656761323536300041AF
:10E0F000726475696E6F206578706C6F72657220DE
:10E1000073746B3530305632206279204D4C530099
:10E11000426F6F746C6F616465723E004875683F52
:10E1200000436F6D70696C6564206F6E203D200048
:10E130004350552054797065202020203D20005FF9
:10E140005F4156525F415243485F5F3D2000415658
:10E1500052204C696243205665723D20004743437C
:10E160002056657273696F6E203D20004350552024
:10E1700049442020202020203D20004C6F7720663D
:10E18000757365202020203D20004869676820665F
:10E190007573652020203D200045787420667573D6
:10E1A00065202020203D20004C6F636B2066757336
:10E1B000652020203D20004D617220203720323024
:10E1C000313300312E362E3800342E332E350056A2
:10E1D00023202020414444522020206F7020636F70
:10E1E00064652020202020696E73747275637469E1
:10E1F0006F6E2061646472202020496E74657272B3
:10E20000757074006E6F20766563746F7200726A49
:10E210006D702020006A6D70200057686174207056
:10E220006F72743A00506F7274206E6F7420737541
:10E2300070706F72746564004D7573742062652030
:10E2400061206C6574746572002000577269747483
:10E25000696E672045450052656164696E672045B7
:10E26000450045452065727220636E743D00504F35
:10E27000525400303D5A65726F2061646472003FF1
:10E280003D43505520737461747300403D454550C3
:10E29000524F4D207465737400423D426C696E6B41
:10E2A000204C454400453D44756D70204545505215
:10E2B0004F4D00463D44756D7020464C415348001B
:10E2C000483D48656C70004C3D4C69737420492F83
:10E2D0004F20506F72747300513D51756974005234
:10E2E0003D44756D702052414D00563D73686F7707
:10E2F00020696E7465727275707420566563746FF0
:10E30000727300593D506F727420626C696E6B00BD
:10E310002A0011241FBECFEFD1E2DEBFCDBF01E046
:10E320000CBF12E0A0E0B2E0EEE1FDEF03E00BBFB6
:10E3300002C007900D92A030B107D9F712E0A0E01B
:10E34000B2E001C01D92AE30B107E1F70F9460F367
:10E350000D948DFE01E20EBF0FEF0DBF11241FBE05
:10E360000D9460F30D9400F020E030E040ED57E0B4
:10E3700005C0FA013197F1F72F5F3F4F2817390792
:10E38000C0F308959C01260F311DC901A0E0B0E043
:10E390002F5F3F4FABBFFC018791882361F08093D3
:10E3A000C6008091C00086FFFCCF8091C0008064D1
:10E3B0008093C000EACF08958DE08093C6008091DD
:10E3C000C00086FFFCCF8091C00080648093C000B5
:10E3D0008AE08093C6008091C00086FFFCCF8091C8
:10E3E000C00080648093C00008950F94C2F10F9420
:10E3F000DCF10895FC019081992359F09093C600B7
:10E400008091C00086FFFCCF8091C0008064809323
:10E41000C0003196992379F70895282F982F929567
:10E420009F70892F805D8A3308F0895F8093C600D2
:10E430008091C00086FFFCCF8091C00080648093F3
:10E44000C000822F8F70982F905D9A3308F0995FEB
:10E450009093C6008091C00086FFFCCF8091C000E1
:10E4600080648093C00008959C01FB01853691056E
:10E470001CF46330710594F0C90164E670E00F94F8
:10E480002EFE605D7F4F6093C6008091C00086FFC6
:10E49000FCCF8091C00080648093C0002B30310598
:10E4A00014F43297B4F0C90164E670E00F942EFEC4
:10E4B0006AE070E00F942EFE605D7F4F6093C600AF
:10E4C0008091C00086FFFCCF8091C0008064809363
:10E4D000C000C9016AE070E00F942EFEC0968093E0
:10E4E000C6008091C00086FFFCCF8091C000806490
:10E4F0008093C00008951F93182F8EE692EE60E07F
:10E500000F94C2F11093C6008091C00086FFFCCF2B
:10E510008091C00080648093C0000F94DCF11F9153
:10E5200008952F923F924F925F926F927F928F92B7
:10E530009F92AF92BF92CF92DF92EF92FF920F9392
:10E540001F93DF93CF93CDB7DEB762970FB6F894E2
:10E55000DEBF0FBECDBF382E622ECA01DB015C01CB
:10E560006D01772420E2222E2E010894411C511CBB
:10E570008BC081E0A81680E0B80681E0C80680E084
:10E58000D80628F0C601AA27BB270F940DF2BB2797
:10E59000AD2D9C2D8B2D0F940DF28A2D0F940DF225
:10E5A0002092C6008091C00086FFFCCF8091C00001
:10E5B00080648093C0009DE29093C6008091C0006B
:10E5C00086FFFCCF8091C00080648093C0002092C1
:10E5D000C6008091C00086FFFCCF8091C00080649F
:10E5E0008093C00019828601750188249924A1E0D6
:10E5F0003A1651F03A1620F0B2E03B1661F409C029
:10E600000BBFF701779007C0C7010F9477FE782EF4
:10E6100002C0F7017080872D0F940DF22092C60082
:10E620008091C00086FFFCCF8091C0008064809301
:10E63000C000872D8052F401EF70F0708F3520F408
:10E64000E40DF51D708204C0E40DF51D8EE280839B
:10E650000894E11CF11C011D111D0894811C911CE2
:10E6600090E18916910409F0C2CF80E190E0A0E02A
:10E67000B0E0A80EB91ECA1EDB1E198AC2010F9493
:10E68000FAF10F94DCF16A94662009F072CF629679
:10E690000FB6F894DEBF0FBECDBFCF91DF911F91B3
:10E6A0000F91FF90EF90DF90CF90BF90AF909F9031
:10E6B0008F907F906F905F904F903F902F90089534
:10E6C0002F923F924F925F926F927F928F929F9282
:10E6D000AF92BF92CF92DF92EF92FF920F931F9370
:10E6E000DF93CF93CDB7DEB7CD53D1400FB6F894BB
:10E6F000DEBF0FBECDBF01E20EBF0FEF0DBF94B75F
:10E70000F894A89514BE80916000886180936000A1
:10E7100010926000789493FF05C0E0910002F091A0
:10E7200001021995279A2F9A8091C00082608093E8
:10E73000C00080E18093C40088E18093C1000000A4
:10E74000EE24FF24870144E0A42EB12CCC24DD2448
:10E7500024C0C5010197F1F70894E11CF11C011DCB
:10E76000111D21E2E2162EE4F20620E0020720E06D
:10E77000120718F031E0C32ED12CC801B70127ECE5
:10E780003BE140E050E00F9441FE611571058105C9
:10E79000910519F485B1805885B98091C00087FD35
:10E7A00003C0C114D104A9F2A6014F5F5F4FC25E3E
:10E7B000DE4F59834883CE51D140C25EDE4F8881FF
:10E7C0009981CE51D140019711F00D9410FEC05D9A
:10E7D000DE4F19821882C053D14060E0C15DDE4F28
:10E7E0001882CF52D14088249924C35DDE4F19820C
:10E7F0001882CD52D140C05EDE4F188219821A8233
:10E800001B82C052D140CE5CDE4F188219821A8220
:10E810001B82C253D140EE24FF2487010BBFF701B6
:10E8200007911691C45CDE4F19830883CC53D14005
:10E830000D940BFEC25EDE4F28813981CE51D1404E
:10E840002130310509F52091C600C25EDE4F1982E4
:10E850001882CE51D14022C02F5F3F4F4F4F5F4FA4
:10E86000213082E138078AE7480780E0580780F0C6
:10E87000C45CDE4FE881F981CC53D140EF5FFF4F9C
:10E8800019F0EE27FF27099420E030E040E050E047
:10E890008091C00087FFE0CF2091C600C35DDE4FAE
:10E8A00048815981CD52D1404F5F5F4FC35DDE4FEC
:10E8B00059834883CD52D140213209F063C64A3092
:10E8C000510508F05FC60894811C911C53E0851621
:10E8D000910409F059C600E010E018C081E280936D
:10E8E000C6008091C00086FFFCCF8091C00080648C
:10E8F0008093C0002F5F3F4F2931310579F70F9486
:10E90000DCF10F5F1F4F0530110519F020E030E0FA
:10E91000E5CF10920A0210920B0210920C02109294
:10E920000D02109206021092070210920802109235
:10E930000902109202021092030210920402109235
:10E9400005028FEE90EE60E00F94F5F180E191EE1C
:10E9500060E00F94C2F18091C00087FFFCCF9091DE
:10E96000C600903608F09F759032B8F09093C600BC
:10E970008091C00086FFFCCF8091C00080648093AE
:10E98000C000A0E2A093C6008091C00086FFFCCF2B
:10E990008091C00080648093C000983409F4D7C18E
:10E9A0009934B8F4923409F459C1933458F490333B
:10E9B00019F1903308F4E3C59F33A1F1903409F0C5
:10E9C000DEC5BDC0953409F470C1963409F0D7C5D1
:10E9D00098C1923509F42BC2933538F49C3409F46C
:10E9E000F5C1913509F0CBC518C2963509F445C279
:10E9F000993509F0C4C567C483E792EE62E00F94CD
:10EA0000F5F110920602109207021092080210927D
:10EA1000090210920A0210920B0210920C0210923C
:10EA20000D0213C18FE792EE62E00F94F5F18FEEC5
:10EA300090EE60E00F94F5F181E291EE60E00F94CA
:10EA4000C2F187EB91EE60E00F94F5F180E391EE77
:10EA500060E00F94C2F184EE90EE60E00F94F5F167
:10EA60008FE391EE60E00F94C2F186E090E061E008
:10EA700070E00F9434F20F94DCF18DE591EE60E0DC
:10EA80000F94C2F189EC91EE60E00F94F5F18EE401
:10EA900091EE60E00F94C2F183EC91EE60E00F9490
:10EAA000F5F18CE691EE60E00F94C2F18EE10F94E7
:10EAB0000DF288E90F940DF281E00F940DF20F949E
:10EAC000DCF18BE791EE60E00F94C2F119E0E0E039
:10EAD000F0E010935700E4918E2F0F940DF20F94F5
:10EAE000DCF18AE891EE60E00F94C2F1E3E0F0E03F
:10EAF00010935700E4918E2F0F940DF20F94DCF1D8
:10EB000089E991EE60E00F94C2F1E2E0F0E0109349
:10EB10005700E4918E2F0F940DF20F94DCF188EAE8
:10EB200091EE60E00F94C2F1E1E0F0E01093570045
:10EB30001491812F0F940DF20F94DCF107CF8BE825
:10EB400092EE62E00F94F5F18BE492EE60E00F94A8
:10EB5000F5F10F94DCF100E010E019C0C8016F2D51
:10EB60000F947FFEFF2031F489E492EE60E00F9471
:10EB7000C2F10BC0F092C6008091C00086FFFCCFAE
:10EB80008091C00080648093C0000F5F1F4FC80158
:10EB900081519F41A0E0B0E0ABBFFC01F790BAE229
:10EBA000FB1621F0E2E000301E07C1F60F94DCF105
:10EBB0000F94DCF187E592EE60E00F94F5F10F948D
:10EBC000DCF1CC24DD2400E010E01EC0C8010F946D
:10EBD00077FEF82E882331F489E492EE60E00F94FA
:10EBE000C2F10BC08093C6008091C00086FFFCCFAD
:10EBF0008091C00080648093C000FE1419F00894D6
:10EC0000C11CD11C0F5F1F4FC80181519F41A0E063
:10EC1000B0E0ABBFFC01E790FAE2EF1621F022E092
:10EC20000030120799F60F94DCF10F94DCF182E6C4
:10EC300092EE60E00F94C2F1C60161E070E00F94C3
:10EC400034F20F94DCF10F94DCF110920202109276
:10EC50000302109204021092050278CE89E992EE26
:10EC600062E00F94F5F1279A2F9A16C02F9880E052
:10EC700090E0E0EDF7E03197F1F7019684369105E9
:10EC8000C1F72F9A80E090E0E0EDF7E03197F1F7DF
:10EC9000019684369105C1F78091C00087FFE6CFC9
:10ECA0008091C00087FFFCCF64C485EA92EE62E0E9
:10ECB0000F94F5F140910202509103026091040219
:10ECC0007091050281E020E10F9491F2809102029F
:10ECD00090910302A0910402B091050280509F4FD1
:10ECE000AF4FBF4F8093020290930302A0930402A0
:10ECF000B093050280509041A040B04008F426CE69
:10ED0000A4CF83EB92EE62E00F94F5F140910602FE
:10ED100050910702609108027091090280E020E1A1
:10ED20000F9491F28091060290910702A09108023F
:10ED3000B091090280509F4FAF4FBF4F80930602A2
:10ED400090930702A0930802B0930902FFCD80ECD4
:10ED500092EE62E00F94F5F183E792EE60E00F949B
:10ED6000F5F18FE792EE60E00F94F5F18BE892EE0B
:10ED700060E00F94F5F189E992EE60E00F94F5F10F
:10ED800085EA92EE60E00F94F5F183EB92EE60E09D
:10ED90000F94F5F180EC92EE60E00F94F5F187ECC2
:10EDA00092EE60E00F94F5F188ED92EE60E00F9442
:10EDB000F5F18FED92EE60E00F94F5F18AEE92EEB0
:10EDC00060E00F94F5F183E093EEBDCD87EC92EE19
:10EDD00062E00F94F5F181E40F947BF282E40F94EA
:10EDE0007BF283E40F947BF284E40F947BF285E45E
:10EDF0000F947BF286E40F947BF287E40F947BF20E
:10EE000088E40F947BF28AE40F947BF28BE40F94F6
:10EE10007BF28CE40F947BF299CD88ED92EE62E068
:10EE20000F94F5F1772473948824992409C48FED05
:10EE300092EE62E00F94F5F140910A0250910B02BC
:10EE400060910C0270910D0282E020E10F9491F22A
:10EE500080910A0290910B02A0910C02B0910D02D8
:10EE600080509F4FAF4FBF4F80930A0290930B0289
:10EE7000A0930C02B0930D0269CD8AEE92EE62E08F
:10EE80000F94F5F184EE90EE60E00F94F5F18FECC5
:10EE900091EE60E00F94F5F1662477244301CC5D98
:10EEA000DE4F19821882C452D140D401C301B695F5
:10EEB000A79597958795CA5DDE4F88839983AA8326
:10EEC000BB83C652D140CC5DDE4FA881B981C4520C
:10EED000D1401196CC5DDE4FB983A883C452D14096
:10EEE000CD0162E070E00F9434F2B0E2B093C6005E
:10EEF0008091C00086FFFCCF8091C0008064809329
:10EF0000C000EDE2E093C6008091C00086FFFCCF18
:10EF10008091C00080648093C000F0E2F093C6004E
:10EF20008091C00086FFFCCF8091C00080648093F8
:10EF3000C000CA5DDE4FE880F9800A811B81C6529D
:10EF4000D140BB27A12F902F8F2D0F940DF2CA5DBA
:10EF5000DE4F8881C652D1400F940DF2B0E2FB2EF5
:10EF6000F092C6008091C00086FFFCCF8091C00067
:10EF700080648093C0000DE30093C6008091C000C0
:10EF800086FFFCCF8091C00080648093C00010E2B7
:10EF90001093C6008091C00086FFFCCF8091C00016
:10EFA00080648093C0008BBEF3012791C65DDE4F65
:10EFB0002883CA52D140A22EBB24CC24DD2408943D
:10EFC000611C711C811C911C8BBEF3018791282E42
:10EFD0003324442455240894611C711C811C911C09
:10EFE0008BBEF3013791C55DDE4F3883CB52D140E4
:10EFF0000894611C711C811C911C8BBEF30147910C
:10F00000C45DDE4F4883CC52D140ADEFEA2EAFEF66
:10F01000FA2EAFEF0A2FAFEF1A2F6E0C7F1C801E57
:10F02000911E142D032DF22CEE24EA0CFB1C0C1D5A
:10F030001D1D0F940DF220E22093C6008091C000A8
:10F0400086FFFCCF8091C00080648093C000C65DC5
:10F05000DE4F8881CA52D1400F940DF230E23093D6
:10F06000C6008091C00086FFFCCF8091C000806404
:10F070008093C000C45DDE4F8881CC52D1400F9494
:10F080000DF240E24093C6008091C00086FFFCCFA5
:10F090008091C00080648093C000C55DDE4F888190
:10F0A000CB52D1400F940DF250E25093C6008091A4
:10F0B000C00086FFFCCF8091C00080648093C000B8
:10F0C0008FEFE8168FEFF80680E0080780E018075A
:10F0D00031F484E092EE60E00F94C2F1DFC0D80119
:10F0E000C7018070907CA070B0708050904CA040A0
:10F0F000B040D1F52FEF3FE340E050E0E222F322B1
:10F1000004231523CA5DDE4FA880B980CA80DB8046
:10F11000C652D140AE0CBF1CC01ED11EAA0CBB1CD7
:10F12000CC1CDD1C8EE092EE60E00F94C2F1BB2798
:10F13000A12F902F8F2D0F940DF28E2D0F940DF285
:10F1400030E23093C6008091C00086FFFCCF8091F2
:10F15000C00080648093C0004EE34093C60080915D
:10F16000C00086FFFCCF87C08EE09EEFA0E0B0E03D
:10F17000E822F9220A231B239CE0E91694E9F90608
:10F1800090E0090790E0190709F088C0C45DDE4FE0
:10F19000A881CC52D140EA2EFF2400E010E0102FCD
:10F1A0000F2DFE2CEE24C55DDE4FB881CB52D14031
:10F1B000EB0EF11C011D111DD601C501817090706F
:10F1C000A070B070DC0199278827E80EF91E0A1F8D
:10F1D0001B1F20EF30E040E050E0A222B322C42207
:10F1E000D52241E1AA0CBB1CCC1CDD1C4A95D1F7F1
:10F1F000EA0CFB1C0C1D1D1D81E090E0A0E0B0E0BE
:10F20000282239224A225B2235E1220C331C441C7D
:10F21000551C3A95D1F7E20CF31C041D151D57013E
:10F220006801AA0CBB1CCC1CDD1C85E192EE60E0E1
:10F230000F94C2F1C801AA27BB270F940DF2BB2778
:10F24000A12F902F8F2D0F940DF28E2D0F940DF274
:10F2500090E29093C6008091C00086FFFCCF809121
:10F26000C00080648093C000AEE3A093C60080918C
:10F27000C00086FFFCCF8091C00080648093C000F6
:10F28000C601AA27BB270F940DF2BB27AD2D9C2DDD
:10F290008B2D0F940DF28A2D0F940DF20F94DCF14B
:10F2A000CC5DDE4FE881F981C452D140F99709F471
:10F2B0004DCBF4E0EF2EF12C012D112D6E0C7F1CA7
:10F2C000801E911EF2CD83E093EE62E00F94F5F183
:10F2D0008AE192EE60E00F94C2F18091C00087FF56
:10F2E000FCCF1091C6001F751093C6008091C0001E
:10F2F00086FFFCCF8091C00080648093C0000F9493
:10F30000DCF1812F81548A3108F036C1163409F4BA
:10F3100095C0173490F4133409F44EC0143430F40B
:10F320001134F1F0123409F01DC130C0143409F465
:10F3300059C0153409F016C16BC01A3409F4C4C0A1
:10F340001B3438F4173409F48FC0183409F00AC19B
:10F35000A1C01B3409F4D2C01C3409F003C1E8C0B9
:10F360008FEF81B90DC082B1809582B980E090E0C5
:10F37000E0EDF7E03197F1F70196883C9105C1F790
:10F380008091C00087FFEFCF12B8EFC08FEF84B934
:10F390000DC085B1809585B980E090E0E0EDF7E0A3
:10F3A0003197F1F70196883C9105C1F78091C00033
:10F3B00087FFEFCF15B8D9C08FEF87B90DC088B1DF
:10F3C000809588B980E090E0E0EDF7E03197F1F7C3
:10F3D0000196883C9105C1F78091C00087FFEFCF6F
:10F3E00018B8C3C08FEF8AB90DC08BB180958BB9A7
:10F3F00080E090E0E0EDF7E03197F1F70196883C8E
:10F400009105C1F78091C00087FFEFCF1BB8ADC059
:10F410008FEF8DB90DC08EB180958EB980E090E0F0
:10F42000E0EDF7E03197F1F70196883C9105C1F7DF
:10F430008091C00087FFEFCF1EB897C08FEF80BBD1
:10F440000DC081B3809581BB80E090E0E0EDF7E0F6
:10F450003197F1F70196883C9105C1F78091C00082
:10F4600087FFEFCF11BA81C08FEF83BB0DC084B38C
:10F47000809584BB80E090E0E0EDF7E03197F1F714
:10F480000196883C9105C1F78091C00087FFEFCFBE
:10F4900014BA6BC08FEF809301010FC080910201FD
:10F4A00080958093020180E090E0E0EDF7E03197F5
:10F4B000F1F70196883C9105C1F78091C00087FF64
:10F4C000EDCF1092020151C08FEF809304010FC065
:10F4D0008091050180958093050180E090E0E0ED4A
:10F4E000F7E03197F1F70196883C9105C1F78091DB
:10F4F000C00087FFEDCF1092050137C08FEF8093DA
:10F5000007010FC08091080180958093080180E079
:10F5100090E0E0EDF7E03197F1F70196883C910536
:10F52000C1F78091C00087FFEDCF109208011DC088
:10F530008FEF80930A010FC080910B01809580931B
:10F540000B0180E090E0E0EDF7E03197F1F70196F4
:10F55000883C9105C1F78091C00087FFEDCF1092E4
:10F560000B0103C085E292EEEEC98091C00087FFD7
:10F57000FCCF8091C600EAC988E392EEE4C98CE131
:10F5800091EEE1C988249924933011F1943028F444
:10F59000913089F09230B8F408C0953061F195301F
:10F5A000F0F0963009F048C043C02B3109F042C951
:10F5B00091E06BE13FC96227C15DDE4F2883CF52E6
:10F5C000D14092E037C9B22FA0E0622793E032C960
:10F5D000822F90E0A82BB92B622794E02BC92E3004
:10F5E00009F039C3622795E0C05DDE4F19821882A9
:10F5F000C053D1401FC9E1E0F0E0EC0FFD1FC05D3A
:10F60000DE4F08811981C053D140E00FF11F2083E4
:10F610000F5F1F4FC05DDE4F19830883C053D14079
:10F6200062270A171B0709F005C9D80196E002C92D
:10F63000261709F010C303C0973009F0FBC87724E0
:10F640009981933109F412C19431C8F4963009F4C8
:10F65000D8C0973050F4923009F406C1933009F4C1
:10F660006DC0913009F059C253C0913109F477C08F
:10F67000923108F0BBC0903109F04FC2F5C098310B
:10F6800009F487C0993150F4953109F4EFC09531F0
:10F6900008F4C6C1963109F040C2C2C19A3109F4DA
:10F6A0006CC09A3108F491C09B3109F45BC09D3164
:10F6B00009F033C29D81903359F48F81882311F46E
:10F6C0009EE11CC0813011F091E018C098E916C08D
:10F6D000892F807591F0903539F4E0E0F0E089E011
:10F6E0008093570094910AC0983539F4E3E0F0E034
:10F6F00089E080935700949101C090E01A821B82A8
:10F700008D818C831D829E831F8227E030E009C299
:10F710001A8288E08B8381E48C8386E58D8382E581
:10F720008E8389E48F8383E5888780E589878FE5E9
:10F730008A8782E38B872BE030E0F3C18A818139AD
:10F7400041F0823941F0803911F48FE005C080E04A
:10F7500003C082E001C08AE01A828B8344C0772410
:10F76000739482C08D81882311F48EE12CC0813086
:10F7700011F081E028C088E926C01A82E1E0F0E0BB
:10F7800089E08093570084918B831C8224E030E0D1
:10F79000C8C18B81803589F48C81883039F4E2E0EE
:10F7A000F0E089E08093570084910DC0E0E0F0E044
:10F7B00089E080935700849106C0E3E0F0E089E09F
:10F7C0008093570084911A82DFCF8D81836C99E0FA
:10F7D000E1E0F0E0082E90935700E89507B600FCB2
:10F7E000FDCF1A821B8223E030E09BC180EC8A832C
:10F7F000CE5CDE4F188219821A821B82C253D1401E
:10F800008EC18A8190E0A0E0B0E0582F44273327D2
:10F8100022278B8190E0A0E0B0E0DC0199278827C7
:10F82000282B392B4A2B5B2B8D8190E0A0E0B0E098
:10F83000282B392B4A2B5B2B8C8190E0A0E0B0E089
:10F84000BA2FA92F982F8827282B392B4A2B5B2BCF
:10F85000220F331F441F551FC05EDE4F288339839C
:10F860004A835B83C052D1401A8259C13A81C95C34
:10F87000DE4F3883C753D140CA5CDE4F1882C6536F
:10F88000D1408B81C82EDD24CA5CDE4F488159816E
:10F89000C653D140C42AD52A933109F082C0CE5C28
:10F8A000DE4F88819981AA81BB81C253D1408050AB
:10F8B000904CA340B04030F583E0CE5CDE4FE88052
:10F8C000F9800A811B81C253D140F70100935B008C
:10F8D00080935700E89507B600FCFDCFCE5CDE4F65
:10F8E000088119812A813B81C253D14000501F4FAA
:10F8F0002F4F3F4FCE5CDE4F088319832A833B8313
:10F90000C253D140C05EDE4F488159816A817B81FC
:10F91000C052D140DE011B9631E08C9111962C91A2
