:020000040000FA
:100000000C946E010C94680C0C943D0C0C94120C26
:100010000C94E70B0C94BC0B0C94910B0C94660B9A
:100020000C943B0B0C949F010C949F010C949F012A
:100030000C949F010C949F010C949F010C94930CC1
:100040000C949F010C949F010C949F010C949F01B0
:100050000C949F010C949F010C949F010C94F10A45
:100060000C949F010C94BB0A0C94910A0C949F0170
:100070000C949F010C949F010C949F010C949F0180
:100080000C949F010C949F010C949F010C949F0170
:100090000C949F010C949F010C949F010C949F0160
:1000A0000C949F010C949F010C949F010C949F0150
:1000B0000C949F010C949F010C949F010C949F0140
:1000C0000C949F010C949F010C949F010C949F0130
:1000D0000C949F010C949F010C949F010C949F0120
:1000E0000C949F010C94A90F0C94E1030C94C00490
:1000F0000C9431070C941C030C9464040C94DD01E3
:100100000C945A040C940A030C943C040C9446047A
:100110000C94F1010C94600F0C944D030C94B00FEF
:100120000C940F040C9411100C94A20F0C94D70390
:100130000C94FF010C9407100C9431030C944303AE
:100140000C9435030C94CA030C9412080C940A10F6
:100150000C942B030C949B0F0C9405040C945703E4
:100160000C9485090C94EB030C944A100C944903ED
:100170000C94CE010C9484020C945B030C94D20377
:100180000C9428030C94D00F0C9419040C94650F54
:100190000C94530F0C94FD030C94A1010C942403B4
:1001A0000C9405030C9423040C9450040C945103F8
:1001B0000C9432040C943F030C943B030C94570FA3
:1001C0000C94F5030C9420030C94090D0C94471027
:1001D0000C94370200002200250028002B002E007E
:1001E0003100340002010000050108010B0100008C
:1001F0000A0B02090C0D0E080703040100000000A1
:1002000000000000000000000000000000000000EE
:1002100000000000000000000000121110000000AB
:1002200000000000000000000000000000000000CE
:100230000000000000002100240027002A002D00FB
:100240003000330001010000040107010A0101022E
:1002500010202008081020401020408002010201D8
:100260000804020101020408102040808040201090
:1002700008040201800402018040201008040201E9
:100280000804020101020408102040800102040851
:10029000102040800505050507050808080802022A
:1002A00002020A0A08080404040401010101010110
:1002B00001010303030303030303040707070C0CF3
:1002C0000C0C0C0C0C0C02020202060606060606BA
:1002D00006060B0B0B0B0B0B0B0B090D11241FBE92
:1002E000CFEFD1E2DEBFCDBF00E00CBF12E0A0E057
:1002F000B2E0E8E4F5E200E00BBF02C007900D9227
:10030000AE36B107D9F723E0AEE6B2E001C01D92E8
:10031000A837B207E1F711E0CEE6D1E000E006C071
:1003200021970109802FFE010E949A12CD36D10734
:1003300080E00807A9F70E94440D0C94A2120C94C7
:100340000000AF92BF92CF92DF92EF92FF920F9395
:100350001F93CF93DF936C017B018B01040F151F5B
:10036000EB015E01AE18BF08C017D10759F06991C3
:10037000D601ED91FC910190F081E02DC601199517
:10038000892B79F7C501DF91CF911F910F91FF90D4
:10039000EF90DF90CF90BF90AF900895FC01538D08
:1003A000448D252F30E0842F90E0821B930B54174F
:1003B00010F0CF96089501970895FC01918D828DDC
:1003C000981761F0A28DAE0FBF2FB11D5D968C9175
:1003D000928D9F5F9F73928F90E008958FEF9FEFB4
:1003E0000895FC01918D828D981731F0828DE80F70
:1003F000F11D858D90E008958FEF9FEF0895FC012A
:10040000918D228D892F90E0805C9F4F821B9109F6
:100410008F73992708958AEC92E00E94FF0121E0F2
:10042000892B09F420E0822F0895FC01A48DA80FE8
:10043000B92FB11DA35ABF4F2C91848D90E0019626
:100440008F739927848FA689B7892C93A089B18946
:100450008C91837080648C93938D848D981306C0E7
:100460000288F389E02D80818F7D80830895EF924B
:10047000FF920F931F93CF93DF93EC0181E0888F5E
:100480009B8D8C8D98131AC0E889F989808185FF2E
:1004900015C09FB7F894EE89FF896083E889F989D0
:1004A00080818370806480839FBF81E090E0DF91D2
:1004B000CF911F910F91FF90EF900895F62E0B8D25
:1004C00010E00F5F1F4F0F731127E02E8C8D8E11E0
:1004D0000CC00FB607FCFACFE889F989808185FF47
:1004E000F5CFCE010E941502F1CFEB8DEC0FFD2F61
:1004F000F11DE35AFF4FF0829FB7F8940B8FEA8902
:10050000FB8980818062CFCFCF93DF93EC01888D10
:100510008823B9F0AA89BB89E889F9898C9185FD7E
:1005200003C0808186FD0DC00FB607FCF7CF8C910C
:1005300085FFF2CF808185FFEDCFCE010E941502AD
:10054000E9CFDF91CF91089580E090E0892B29F0E9
:100550000E940B0281110E94000080E090E0892B34
:1005600049F080E090E0892B29F00E940000811181
:100570000E94000080E090E0892B49F080E090E04C
:10058000892B29F00E94000081110E94000080E068
:1005900090E0892B49F080E090E0892B29F00E94BF
:1005A000000081110C9400000895282F30E0F9011B
:1005B000E251FE4F9491F901E25BFD4F44912C56BC
:1005C0003D4FF9012491222309F435C0992311F1FB
:1005D00091509231F8F4E92FF0E08827ED50FD4F6B
:1005E0008F4F0C949A122403280305031C03200345
:1005F0000A032B03310335033B033F034303490342
:100600004D030A03510357035B03809180008F77EA
:1006100080938000E22FF0E0EE0FFF1FEC52FE4FC0
:10062000A591B4918FB7F894EC91611148C04095B1
:100630004E234C938FBF0895809180008F7DE8CF2B
:1006400080918000877FE4CF84B58F7784BDE2CF2F
:1006500084B58F7DFBCF8091B0008F778093B00001
:10066000D9CF8091B0008F7DF9CF809190008F77A6
:1006700080939000CFCF809190008F7DF9CF8091B3
:100680009000877FF5CF8091A0008F778093A000A6
:10069000C1CF8091A0008F7DF9CF8091A000877F8E
:1006A000F5CF809120018F7780932001B3CF809187
:1006B00020018F7DF9CF80912001877FF5CF4E2BD0
:1006C000B8CFCF93DF9390E0FC01E25BFD4F249124
:1006D0008C569D4FFC0184918823D1F090E0880FC7
:1006E000991FFC01EC5CFD4FA591B491FC01EC520B
:1006F000FE4FC591D49161110EC09FB7F8948C91B3
:10070000E22FE0958E238C932881E223E8839FBF1C
:10071000DF91CF9108958FB7F894EC91E22BEC9391
:100720008FBFF6CF1F93CF93DF93182FEB0161E0BC
:100730000E946103209739F460E0812FDF91CF910F
:100740001F910C94D502CF3FD10511F461E0F5CF94
:10075000E12FF0E0E251FE4FE491E150E23108F088
:10076000B3C0F0E08827E854FC4F8F4F0C949A12E6
:10077000CA03D203D703E103EB036404F503FD03CB
:1007800005040F041904230432043C0464044604E1
:1007900050045A0484B5806884BDC7BDDF91CF91F1
:1007A0001F91089584B5806284BDC8BDF7CF809144
:1007B0008000806880938000D0938900C093880077
:1007C000EDCF80918000806280938000D0938B0079
:1007D000C0938A00E3CF809180008860809380007E
:1007E000D0938D00C0938C00D9CF8091B0008068E9
:1007F0008093B000C093B300D1CF8091B0008062ED
:100800008093B000C093B400C9CF809190008068FD
:1008100080939000D0939900C0939800BFCF8091AF
:100820009000806280939000D0939B00C0939A00C8
:10083000B5CF80919000886080939000D0939D0008
:10084000C0939C00ABCF8091A00080688093A000F3
:100850008091A0008F7B8093A000D093A900C093CB
:10086000A8009CCF8091A00080628093A000D093CC
:10087000AB00C093AA0092CF8091A00088608093C3
:10088000A000D093AD00C093AC0088CF8091200130
:10089000806880932001D0932901C09328017ECFE6
:1008A00080912001806280932001D0932B01C0931E
:1008B0002A0174CF80912001886080932001D09319
:1008C0002D01C0932C016ACFC038D1050CF03ECF6A
:1008D00033CF3FB7F8948091B4029091B502A091C4
:1008E000B602B091B70226B5A89B05C02F3F19F0FC
:1008F0000196A11DB11D3FBFBA2FA92F982F8827A0
:10090000BC01CD01620F711D811D911D42E0660F7A
:10091000771F881F991F4A95D1F708958F929F924C
:10092000AF92BF92CF92DF92EF92FF924B015C01A8
:100930000E9469046B017C010E9469046C197D09A5
:100940008E099F09683E734081059105A8F321E057
:10095000821A9108A108B10888EEC80E83E0D81E5B
:10096000E11CF11C81149104A104B10429F7FF904A
:10097000EF90DF90CF90BF90AF909F908F900895B1
:1009800008958EBD00000DB407FEFDCF8EB508950D
:100990001F93CF93DF93182FC7E6D3E060E08889D9
:1009A0000E94D50283E00E94C104812F0E94C104ED
:1009B00080E00E94C104182F61E088890E94D5025E
:1009C000812FDF91CF911F910895FF920F931F9375
:1009D000CF93DF93F82E062F142FC7E6D3E060E005
:1009E00088890E94D50285E00E94C1048F2D0E9453
:1009F000C104802F0E94C104812F0E94C10461E0C4
:100A00008889DF91CF911F910F91FF900C94D502AF
:100A1000CF93C82F482F60EE8FE00E94E5048FE04F
:100A20000E94C804982F907E81E09C1301C080E052
:100A3000CF910895FF920F931F93CF93DF93C82F09
:100A4000F62E172F042F60E0809177030E94D502C5
:100A500082E00E94C1048C2F0E94C104CF2DD12FAF
:100A60000C0F1D2F111DC017D10721F089910E9475
:100A7000C104F9CF61E080917703DF91CF911F919D
:100A80000F91FF900C94D502CF93DF9300D01F926B
:100A9000CDB7DEB7613011F52C833B839A01442733
:100AA0005527922F990F990F990F907E622F63709F
:100AB0006860962B9A8375E0369527957A95E1F7CD
:100AC000298344E0BE016F5F7F4F0E941A050F909B
:100AD0000F900F900F90DF91CF910895B90193E09F
:100AE000769567959A95E1F769832295220F207E86
:100AF0002A831C821B82E5CF0F931F93CF93DF9332
:100B0000082F162FC7E6D3E060E088890E94D5023F
:100B100082E00E94C104802F0E94C104812F0E94A4
:100B2000C10461E08889DF91CF911F910F910C94EE
:100B3000D502FF920F931F93CF93DF93C82FF62E0A
:100B4000172F042F60E0809177030E94D50283E085
:100B50000E94C1048C2F0E94C104CF2DD12F0C0FF5
:100B60001D2F111DC017D10729F080E00E94C1047C
:100B70008993F8CF61E080917703DF91CF911F9146
:100B80000F91FF900C94D5020F931F93CF93DF9397
:100B900000D01F92CDB7DEB7182F109267031092C6
:100BA00068031092690310926A0310926B0344E089
:100BB000BE016F5F7F4F0E9499052A81898138E0CD
:100BC000839FC0011124422F50E065E05595479561
:100BD0006A95E1F7840F951F092E000CAA0BBB0B39
:100BE0008093680390936903A0936A03B0936B03A7
:100BF00023FF29C032E0880F991FAA1FBB1F3A9517
:100C0000D1F72370820F911DA11DB11DBA2FA92FFD
:100C1000982F88272B81820F911DA11DB11DBA2FFE
:100C2000A92F982F88272C81820F911DA11DB11DFE
:100C30008093680390936903A0936A03B0936B0356
:100C400081E0809367038FEF810F0E94C804082F13
:100C500084E0810F0E94C80403FF16C091E09093C6
:100C60007503482F4F7040936C036DE673E085E089
:100C7000810F0E9499050F900F900F900F90DF91B8
:100C8000CF911F910F91089510927503EACFCF93E2
:100C9000DF93EB019093AE028093AD027093AC02B0
:100CA0006093AB02BC018DE00E949203BE0188E01C
:100CB000DF91CF910C949203609110027091110218
:100CC000605B7F4F80911202909113020C94470653
:100CD00060911002709111028091120290911302A2
:100CE000805B9F4F0C944706609110027091110237
:100CF000605B7F4F80911202909113020C94470623
:100D0000CF93DF93EC0160E08BE00E94D50261E0BD
:100D10008CE00E94D50260E089E00E94D50261E08B
:100D20008AE00E94D502C730D10599F46091100283
:100D3000709111026E5C7F4F8091120290911302AC
:100D4000C2960E94470664EF71E080E090E00E9446
:100D50008E04D093C702C093C602DF91CF9108954D
:100D6000CF93DF93EC0161E08BE00E94D50260E05D
:100D70008CE00E94D50261E089E00E94D50260E02B
:100D80008AE00E94D502C730D10599F46091100223
:100D9000709111026E5C7F4F80911202909113024C
:100DA000C2960E94470664EF71E080E090E00E94E6
:100DB0008E04D093C702C093C602DF91CF910895ED
:100DC000833391053CF18D3391053CF187349105D6
:100DD0003CF1813591053CF18B3591053CF185362F
:100DE00091053CF18F3691053CF1893791053CF135
:100DF0008D3891053CF1813A91053CF18F3B91058D
:100E00003CF18D3D91053CF1813F91053CF188E33A
:100E100094E008958CE390E0089580EF90E00895C9
:100E200088E691E0089584EA91E008958CE192E0EB
:100E3000089588E592E0089584E992E0089580EDB0
:100E400092E008958CE093E0089588E493E008959B
:100E500084E893E0089580EC93E008958CEF93E0AC
:100E60000895CF92DF92EF92FF928091A902909124
:100E7000AA0201969093AA028093A9028091AB02E4
:100E80009091AC020E94E0062091A7023091A80246
:100E9000821B930B9093A6028093A5026091A502FA
:100EA0007091A602C090A102D090A202E090A3028D
:100EB000F090A402072E000C880B990B0E947F1162
:100EC0002FE632E143E85BE30E940B12A701960193
:100ED0000E9469106093A1027093A2028093A30202
:100EE0009093A4026091A5027091A602072E000CB7
:100EF000880B990B0E947F1160939D0270939E0254
:100F000080939F029093A0028091A1029091A202EF
:100F1000A091A302B091A4028093990290939A02A7
:100F2000A0939B02B0939C026091A5027091A602CF
:100F3000C0909502D0909602E0909702F0909802AF
:100F4000072E000C880B990B0E947F11A7019601B8
:100F50000E946810609391027093920280939302B2
:100F60009093940260919D0270919E0280919F02E5
:100F70009091A0022091990230919A0240919B0297
:100F800050919C02C0909102D0909202E090930206
:100F9000F09094020E946910A70196010E946910C6
:100FA00060938D0270938E0280938F0290939002D3
:100FB00060918D0270918E0280918F0290919002CB
:100FC00020E030E04FE753E40E940B1220E030E0D5
:100FD00047E854E40E94D5100E9447112091100266
:100FE00030911102620F731F70931102609310020F
:100FF00088E00E9492036091A5027091A602072EDC
:10100000000C880B990B0E947F11609395027093DE
:1010100096028093970290939802FF90EF90DF9052
:10102000CF900895CF92DF92EF92FF9280918B0242
:1010300090918C02019690938C0280938B02809108
:10104000AD029091AE020E94E0062091890230919B
:101050008A02821B930B909388028093870260918F
:10106000870270918802C0908302D0908402E09041
:101070008502F0908602072E000C880B990B0E94C7
:101080007F112FE632E143E85BE30E940B12A701D8
:1010900096010E946910609383027093840280938A
:1010A0008502909386026091870270918802072ED4
:1010B000000C880B990B0E947F1160937F02709344
:1010C00080028093810290938202809183029091AA
:1010D0008402A0918502B091860280937B02909356
:1010E0007C02A0937D02B0937E0260918702709192
:1010F0008802C0907702D0907802E0907902F09058
:101100007A02072E000C880B990B0E947F11A70111
:1011100096010E946810609373027093740280932A
:1011200075029093760260917F02709180028091A7
:1011300081029091820220917B0230917C02409149
:101140007D0250917E02C0907302D0907402E090B4
:101150007502F09076020E946910A70196010E9424
:10116000691060936F027093700280937102909384
:10117000720260916F027091700280917102909181
:10118000720220E030E04FE753E40E940B1220E0AF
:1011900030E047E854E40E94D5100E9447112091A6
:1011A000120230911302620F731F70931302609347
:1011B00012028DE00E949203609187027091880272
:1011C000072E000C880B990B0E947F116093770209
:1011D000709378028093790290937A02FF90EF9057
:1011E000DF90CF900895FC0101900020E9F731973E
:1011F000AF01481B590BBC018AEC92E00C94A10191
:101200008F929F92AF92BF92CF92DF92EF92FF9216
:101210000F931F93CF93DF93CDB7DEB7A1970FB690
:10122000F894DEBF0FBECDBF6C01990FEE08FF082A
:10123000F7FE47C06DE28AEC92E00E9437028C0113
:1012400022273327A9012C193D094E095F0919A24C
:10125000CE0181967C019AE0892E912CA12CB12C93
:10126000CA01B901A50194010E947812605DF701DD
:1012700062937F01211531054105510589F790E001
:1012800080E0309719F0CF010E94F308080F191F72
:101290008FE492E00E94F308800F911FA1960FB691
:1012A000F894DEBF0FBECDBFDF91CF911F910F919C
:1012B000FF90EF90DF90CF90BF90AF909F908F9076
:1012C0000895A701960119A28E010F5D1F4F8AE0B4
:1012D000C82ED12CE12CF12CCA01B901A70196012D
:1012E0000E947812605DF80162938F01211531052B
:1012F0004105510589F7309729F0CF010E94F30885
:101300008C01C6CF10E000E0C3CF6F927F928F9226
:10131000AF92BF92CF92DF92EF92FF920F931F9303
:10132000CF93DF9300D0CDB7DEB760918B02709181
:101330008C02072E000C880B990B0E947F119B01D9
:10134000AC010E94691020E030E048E452E40E94C1
:10135000D5100E9447111CE3169F9001179F300D76
:10136000112430938A02209389026091A90270911E
:10137000AA02072E000C880B990B0E947F119B017B
:10138000AC010E94691020E030E048E452E40E9481
:10139000D5100E944711169F9001179F300D112400
:1013A0003093A8022093A7028091890290918A022B
:1013B0002091A7023091A802820F931F97FD0196FA
:1013C0009595879580936E0210926703109268033B
:1013D0001092690310926A0310926B0381E080936C
:1013E0006C03EEE6F2E0ADE6B3E086E792E0219131
:1013F0002D938E179F07D9F7D12CC12C6090140222
:1014000070901502809016025E0184E0A80EB11C57
:1014100069827A828B828E010F5F1F4FF801F190F3
:101420008F018F2D0E94C80483FD39C011E01F0D6C
:1014300080E0FFEFCF1ADF0A8230C1F582E3C816E1
:10144000D10431F789E292E00E94F3088091890289
:1014500090918A020E94000984E392E00E94F308BE
:101460008091A7029091A8020E94000910928C021C
:1014700010928B021092AA021092A9020F900F9064
:101480000F90DF91CF911F910F91FF90EF90DF9020
:10149000CF90BF90AF908F907F906F9008950A1576
:1014A0001B0509F0BBCF10E082E0C3CF92E3C91661
:1014B000D10441F240916C036DE673E085E0810F49
:1014C0000E941A0580917503813029F480916C0384
:1014D000806480936C0360916C0384E0810F0E94B0
:1014E0007C05209168033091690340916A03509113
:1014F0006B0360916703812F0E94440548E068E018
:101500008FEF810F0E94E50482E3E82EF12C812FFA
:101510000E94C80483FF96CFE1E0EE1AF108B9F704
:1015200091CF1F920F920FB60F9211240BB60F920C
:101530002F933F934F935F936F937F938F939F93DB
:10154000AF93BF93EF93FF938AEC92E00E94150252
:10155000FF91EF91BF91AF919F918F917F916F918B
:101560005F914F913F912F910F900BBE0F900FBE47
:101570000F901F9018951F920F920FB60F92112483
:101580000BB60F922F938F939F93EF93FF93E0915E
:10159000DA02F091DB028081E091E002F091E10259
:1015A00082FD1DC090818091E3028F5F8F73209137
:1015B000E402821741F0E091E302F0E0E653FD4FD0
:1015C000958F8093E302FF91EF919F918F912F91DF
:1015D0000F900BBE0F900FBE0F901F90189580813B
:1015E000F2CF1F920F920FB60F9211242F933F93B9
:1015F0008F939F93AF93BF938091B0029091B1026C
:10160000A091B202B091B3023091AF0223E0230F58
:101610002D3758F50196A11DB11D2093AF0280937F
:10162000B0029093B102A093B202B093B302809142
:10163000B4029091B502A091B602B091B7020196A2
:10164000A11DB11D8093B4029093B502A093B60280
:10165000B093B702BF91AF919F918F913F912F911E
:101660000F900FBE0F901F90189526E8230F02963B
:10167000A11DB11DD2CF1F920F920FB60F92112450
:101680000BB60F922F933F934F935F936F937F937C
:101690008F939F93AF93BF93EF93FF93E0910E02CD
:1016A000F0910F021995FF91EF91BF91AF919F912A
:1016B0008F917F916F915F914F913F912F910F90FB
:1016C0000BBE0F900FBE0F901F9018951F920F9298
:1016D0000FB60F9211240BB60F922F933F934F9397
:1016E0005F936F937F938F939F93AF93BF93EF938A
:1016F000FF93E0910C02F0910D021995FF91EF918B
:10170000BF91AF919F918F917F916F915F914F9119
:101710003F912F910F900BBE0F900FBE0F901F9017
:1017200018951F920F920FB60F9211240BB60F92BD
:101730002F933F934F935F936F937F938F939F93D9
:10174000AF93BF93EF93FF93E0910202F0910302F6
:101750001995FF91EF91BF91AF919F918F917F91DB
:101760006F915F914F913F912F910F900BBE0F9012
:101770000FBE0F901F9018951F920F920FB60F92E9
:1017800011240BB60F922F933F934F935F936F9358
:101790007F938F939F93AF93BF93EF93FF93E091CA
:1017A0000002F09101021995FF91EF91BF91AF9165
:1017B0009F918F917F916F915F914F913F912F9169
:1017C0000F900BBE0F900FBE0F901F9018951F9299
:1017D0000F920FB60F9211240BB60F922F933F93D7
:1017E0004F935F936F937F938F939F93AF93BF9329
:1017F000EF93FF93E0910A02F0910B021995FF918C
:10180000EF91BF91AF919F918F917F916F915F9178
:101810004F913F912F910F900BBE0F900FBE0F90E5
:101820001F9018951F920F920FB60F9211240BB6AE
:101830000F922F933F934F935F936F937F938F9369
:101840009F93AF93BF93EF93FF93E0910802F091C2
:1018500009021995FF91EF91BF91AF919F918F91DF
:101860007F916F915F914F913F912F910F900BBEA0
:101870000F900FBE0F901F9018951F920F920FB6EA
:101880000F9211240BB60F922F933F934F935F93B8
:101890006F937F938F939F93AF93BF93EF93FF9338
:1018A000E0910602F09107021995FF91EF91BF9127
:1018B000AF919F918F917F916F915F914F913F91E8
:1018C0002F910F900BBE0F900FBE0F901F90189589
:1018D0001F920F920FB60F9211240BB60F922F93F7
:1018E0003F934F935F936F937F938F939F93AF93A8
:1018F000BF93EF93FF93E0910402F09105021995D5
:10190000FF91EF91BF91AF919F918F917F916F91D7
:101910005F914F913F912F910F900BBE0F900FBE93
:101920000F901F9018951F920F920FB60F921124CF
:101930000BB60F922F933F934F935F936F937F93C9
:101940008F939F93AF93BF93EF93FF938091BE02CA
:101950009091BF028093B2008091C1029091C20227
:10196000A091C302B091C4020196A11DB11D809344
:10197000C1029093C202A093C302B093C4028091AB
:10198000C1029091C202A091C302B091C4024091E1
:10199000BA025091BB026091BC027091BD028417E3
:1019A0009507A607B70710F18091C00281111EC0EC
:1019B00081E08093C0028091C1029091C202A09107
:1019C000C302B091C402841B950BA60BB70B809386
:1019D000C1029093C202A093C302B093C402E091EB
:1019E000B802F091B90219951092C002FF91EF91DF
:1019F000BF91AF919F918F917F916F915F914F9127
:101A00003F912F910F900BBE0F900FBE0F901F9024
:101A10001895CF93DF93EAECF2E01382128288EEFE
:101A200093E0A0E0B0E084839583A683B7838BE145
:101A300092E09183808385EC90E09587848784ECA5
:101A400090E09787868780EC90E0918B808B81EC8B
:101A500090E0938B828B82EC90E0958B848B86EC6C
:101A600090E0978B868B118E128E138E148EC7E6A4
:101A7000D3E08AE0888B61E00E94610361E088899D
:101A8000DF91CF910C94D502789484B5826084BDA7
:101A900084B5816084BD85B5826085BD85B5816072
:101AA00085BD80916E00816080936E0010928100F0
:101AB00080918100826080938100809181008160AB
:101AC000809381008091800081608093800080916C
:101AD000B10084608093B1008091B00081608093F8
:101AE000B00080919100826080939100809191007C
:101AF000816080939100809190008160809390003C
:101B00008091A10082608093A1008091A1008160FA
:101B10008093A1008091A00081608093A0008091BB
:101B20002101826080932101809121018160809355
:101B300021018091200181608093200180917A00B1
:101B4000846080937A0080917A00826080937A002A
:101B500080917A00816080937A0080917A00806819
:101B600080937A001092C10060E082E00E946103DD
:101B700061E08DE00E94610361E08BE00E946103FF
:101B800061E08CE00E94610360E085E10E946103F6
:101B900061E088E00E94610361E08AE00E946103E5
:101BA00061E089E00E94610382E198E09093010284
:101BB0008093000280916A00836080936A00EC9AAF
:101BC00081E397E09093050280930402809169007D
:101BD000836080936900E89A84EF91E0A0E0B0E030
:101BE0008093BA029093BB02A093BC02B093BD0253
:101BF00085E899E09093B9028093B80280917000D3
:101C00008E7F809370008091B0008C7F8093B000B5
:101C10008091B100877F8093B1008091B6008F7D65
:101C20008093B600809170008D7F809370008091CA
:101C3000B10084608093B1008091B1008C7F80936B
:101C4000B10086E090E09093BF028093BE021092B4
:101C5000C1021092C2021092C3021092C4021092EA
:101C6000C0028091BE029091BF028093B200809129
:101C70007000816080937000E091DA02F091DB02E5
:101C800082E08083E091DA02F091DB021082E09141
:101C9000D602F091D7021082E091D802F091D902D9
:101CA00080E180831092E202E091DE02F091DF0297
:101CB00086E08083E091DC02F091DD02808180612A
:101CC0008083E091DC02F091DD0280818860808376
:101CD000E091DC02F091DD02808180688083E091F8
:101CE000DC02F091DD0280818F7D8083CFB7F89494
:101CF0008091C502811127C0E9ECF2E08491E3E80C
:101D0000F2E09491E82FF0E0EE0FFF1FEC5CFD4F46
:101D1000A591B491EC91E92321F461E085E30E945F
:101D2000D50261E085E30E9461038CB580618CBDC2
:101D30008CB580648CBD61E084E30E94610361E046
:101D400083E30E9461038091C5028F5F8093C50287
:101D5000CFBF60E0809177030E94D50280EC0E94A3
:101D6000C10461E0809177030E94D5026AE070E0CF
:101D700080E090E00E948E0480E80E9408058111B6
:101D800072C060E08AE20E947C0560EF89E20E94F6
:101D90007C0566E888E20E947C0520E030E0A9012D
:101DA00061E080E20E94440520E030E0A90161E0AA
:101DB00084E20E94440520E030E0A90161E080E077
:101DC0000E94440520E030E0A90160E084E00E9428
:101DD000440520E030E0A90161E088E00E9444056C
:101DE00020E030E0A90160E080E10E94440520E0AD
:101DF00030E0A90161E084E10E94440520E030E088
:101E0000A90160E088E10E944405C0E360E08C2FF6
:101E10000E947C0560E080E18C0F0E947C0560E000
:101E200080E28C0F0E947C05CF5FCE3379F760E0B3
:101E300080E60E947C0560E080E70E947C0563E00C
:101E40008BE20E947C0544E064E680E60E94E504A3
:101E500040E060E680E70E94E50480E00E9408051B
:101E6000882309F422C182E592E021C1C1FF50C05C
:101E700081E70E94C40540E062E047C0E091C802EB
:101E8000E150E93040F5F0E08827E65BF04F8F4FF6
:101E90000C949A12530F600F650F9B0FA20FA90F9E
:101EA000B00FD00F111081E090E00E94B006609159
:101EB0001002709111028091120290911302AEC033
:101EC00082E090E00E948006F2CF83E090E00E94E2
:101ED000B0060E9474060E94A40260E0809177031D
:101EE0000E94D50280EA0E94C10480E00E94C104E1
:101EF000C82F61E0809177030E94D502C0FFB6CF62
:101F000081E60E94C40540E061E08CE20E94E504A5
:101F100080916C038093C902ADE6B3E0E8ECF2E097
:101F200090E09F01285C3240281739070CF0A6CFBB
:101F30002D912193F6CF84E090E00E94B0060E949C
:101F40006806C9CF85E090E00E9480060E94740672
:101F5000C2CF86E090E00E9480060E946806BBCF58
:101F60008091100290911102C0911202D09113023F
:101F7000C817D9070CF4EC011C161D0664F4BE0149
:101F8000CE010E94470664EF71E080E090E00E947D
:101F90008E042A97F1CFD092C702C092C6029BCF7F
:101FA000E091C602F091C702209112023091130213
:101FB000265F3F4F3093130220931202809110024C
:101FC000909111020A9690931102809310022B3F78
:101FD000310524F0F0921302E09212028B3F91053A
:101FE00024F0F0921102E09210023197E730F105EF
:101FF00008F071CF8827E050F04F8F4F0C949A1261
:10200000570F570F071007104A104A100A100E9466
:102010005C0661CF70E060E090E080E00E944706DF
:102020005ACFE091C602F091C7022091120230917E
:1020300013022A5031093093130220931202809127
:102040001002909111020A9790931102809310024E
:102050002832310524F4109313020093120288975A
:1020600024F410931102009310023197E730F10528
:1020700008F031CF8827E05CFF4E8F4F0C949A1206
:10208000570F570F471047104A104A100A100E9466
:102090005C0621CF609110027091110280911202B2
:1020A00090911302805B9F4FB9CF80E492E00E9431
:1020B000F30870E060E090E080E00E94470608E2EC
:1020C00010E08AEFE82EF12C97E0C92ED12C05CF35
:1020D0005058BB27AA270E9480100C94D1110E944F
:1020E000C31138F00E94CA1120F039F49F3F19F44F
:1020F00026F40C94C0110EF4E095E7FB0C94BA1191
:10210000E92F0E94E21158F3BA1762077307840798
:10211000950720F079F4A6F50C9404120EF4E095DE
:102120000B2EBA2FA02D0B01B90190010C01CA0191
:10213000A0011124FF27591B99F0593F50F4503E3C
:1021400068F11A16F040A22F232F342F4427585F2E
:10215000F3CF469537952795A795F0405395C9F746
:102160007EF41F16BA0B620B730B840BBAF09150FE
:10217000A1F0FF0FBB1F661F771F881FC2F70EC09D
:10218000BA0F621F731F841F48F487957795679570
:10219000B795F7959E3F08F0B0CF9395880F08F05C
:1021A0009927EE0F9795879508950E94E9100C9452
:1021B000D1110E94CA1158F00E94C31140F029F4B5
:1021C0005F3F29F00C94BA1151110C9405120C9434
:1021D000C0110E94E21168F39923B1F3552391F3E2
:1021E000951B550BBB27AA2762177307840738F086
:1021F0009F5F5F4F220F331F441FAA1FA9F335D0E3
:102200000E2E3AF0E0E832D091505040E695001C96
:10221000CAF72BD0FE2F29D0660F771F881FBB1F50
:10222000261737074807AB07B0E809F0BB0B802D2E
:10223000BF01FF2793585F4F3AF09E3F510578F05A
:102240000C94BA110C9405125F3FE4F3983ED4F35A
:10225000869577956795B795F7959F5FC9F7880F2E
:10226000911D9695879597F90895E1E0660F771F80
:10227000881FBB1F621773078407BA0720F0621B11
:10228000730B840BBA0BEE1F88F7E09508950E943C
:102290004E116894B1110C94051208950E94EA1130
:1022A00088F09F5798F0B92F9927B751B0F0E1F017
:1022B000660F771F881F991F1AF0BA95C9F714C0C7
:1022C000B13091F00E940412B1E008950C94041210
:1022D000672F782F8827B85F39F0B93FCCF3869500
:1022E00077956795B395D9F73EF49095809570955D
:1022F00061957F4F8F4F9F4F0895E89409C097FBDA
:102300003EF490958095709561957F4F8F4F9F4FCC
:102310009923A9F0F92F96E9BB279395F695879510
:1023200077956795B795F111F8CFFAF4BB0F11F4D3
:1023300060FF1BC06F5F7F4F8F4F9F4F16C088237A
:1023400011F096E911C0772321F09EE8872F762FB0
:1023500005C0662371F096E8862F70E060E02AF0F1
:102360009A95660F771F881FDAF7880F96958795DD
:1023700097F9089597F99F6780E870E060E0089505
:102380009FEF80EC089500240A941616170618068D
:102390000906089500240A94121613061406050669
:1023A0000895092E0394000C11F4882352F0BB0FFA
:1023B00040F4BF2B11F460FF04C06F5F7F4F8F4F5D
:1023C0009F4F089557FD9058440F551F59F05F3F98
:1023D00071F04795880F97FB991F61F09F3F79F047
:1023E00087950895121613061406551FF2CF4695C9
:1023F000F1DF08C0161617061806991FF1CF86954B
:102400007105610508940895E894BB27662777272E
:10241000CB0197F908950E941E120C94D1110E94CD
:10242000C31138F00E94CA1120F0952311F00C94CA
:10243000BA110C94C01111240C9405120E94E211DF
:1024400070F3959FC1F3950F50E0551F629FF00107
:10245000729FBB27F00DB11D639FAA27F00DB11D20
:10246000AA1F649F6627B00DA11D661F829F2227A9
:10247000B00DA11D621F739FB00DA11D621F839F30
:10248000A00D611D221F749F3327A00D611D231F06
:10249000849F600D211D822F762F6A2F11249F5754
:1024A00050409AF0F1F088234AF0EE0FFF1FBB1F57
:1024B000661F771F881F91505040A9F79E3F510516
:1024C00080F00C94BA110C9405125F3FE4F3983E2F
:1024D000D4F3869577956795B795F795E7959F5FC0
:1024E000C1F7FE2B880F911D9695879597F9089552
:1024F000A1E21A2EAA1BBB1BFD010DC0AA1FBB1F08
:10250000EE1FFF1FA217B307E407F50720F0A21B79
:10251000B30BE40BF50B661F771F881F991F1A94E6
:1025200069F760957095809590959B01AC01BD0110
:10253000CF010895EE0FFF1F881F8BBF0790F69104
:10254000E02D1994F894FFCFC004C004C004C00467
:10255000C004C004C004C0046400640030405000E3
:102560000000003702A101CE018402FF01DD01F16C
:10257000014C6566742072706D3A2000526967687C
:10258000742072706D3A200043414E20696E697468
:1025900069616C697A65640D0A0043414E20666189
:1025A000696C656420746F20696E697469616C6917
:0625B0007A650D0A00002F
:10E000000D9489F10D94B2F10D94B2F10D94B2F129
:10E010000D94B2F10D94B2F10D94B2F10D94B2F1F0
:10E020000D94B2F10D94B2F10D94B2F10D94B2F1E0
:10E030000D94B2F10D94B2F10D94B2F10D94B2F1D0
:10E040000D94B2F10D94B2F10D94B2F10D94B2F1C0
:10E050000D94B2F10D94B2F10D94B2F10D94B2F1B0
:10E060000D94B2F10D94B2F10D94B2F10D94B2F1A0
:10E070000D94B2F10D94B2F10D94B2F10D94B2F190
:10E080000D94B2F10D94B2F10D94B2F10D94B2F180
:10E090000D94B2F10D94B2F10D94B2F10D94B2F170
:10E0A0000D94B2F10D94B2F10D94B2F10D94B2F160
:10E0B0000D94B2F10D94B2F10D94B2F10D94B2F150
:10E0C0000D94B2F10D94B2F10D94B2F10D94B2F140
:10E0D0000D94B2F10D94B2F10D94B2F10D94B2F130
:10E0E0000D94B2F141546D656761323536300041AF
:10E0F000726475696E6F206578706C6F72657220DE
:10E1000073746B3530305632206279204D4C530099
:10E11000426F6F746C6F616465723E004875683F52
:10E1200000436F6D70696C6564206F6E203D200048
:10E130004350552054797065202020203D20005FF9
:10E140005F4156525F415243485F5F3D2000415658
:10E1500052204C696243205665723D20004743437C
:10E160002056657273696F6E203D20004350552024
:10E1700049442020202020203D20004C6F7720663D
:10E18000757365202020203D20004869676820665F
:10E190007573652020203D200045787420667573D6
:10E1A00065202020203D20004C6F636B2066757336
:10E1B000652020203D20004D617220203720323024
:10E1C000313300312E362E3800342E332E350056A2
:10E1D00023202020414444522020206F7020636F70
:10E1E00064652020202020696E73747275637469E1
:10E1F0006F6E2061646472202020496E74657272B3
:10E20000757074006E6F20766563746F7200726A49
:10E210006D702020006A6D70200057686174207056
:10E220006F72743A00506F7274206E6F7420737541
:10E2300070706F72746564004D7573742062652030
:10E2400061206C6574746572002000577269747483
:10E25000696E672045450052656164696E672045B7
:10E26000450045452065727220636E743D00504F35
:10E27000525400303D5A65726F2061646472003FF1
:10E280003D43505520737461747300403D454550C3
:10E29000524F4D207465737400423D426C696E6B41
:10E2A000204C454400453D44756D70204545505215
:10E2B0004F4D00463D44756D7020464C415348001B
:10E2C000483D48656C70004C3D4C69737420492F83
:10E2D0004F20506F72747300513D51756974005234
:10E2E0003D44756D702052414D00563D73686F7707
:10E2F00020696E7465727275707420566563746FF0
:10E30000727300593D506F727420626C696E6B00BD
:10E310002A0011241FBECFEFD1E2DEBFCDBF01E046
:10E320000CBF12E0A0E0B2E0EEE1FDEF03E00BBFB6
:10E3300002C007900D92A030B107D9F712E0A0E01B
:10E34000B2E001C01D92AE30B107E1F70F9460F367
:10E350000D948DFE01E20EBF0FEF0DBF11241FBE05
:10E360000D9460F30D9400F020E030E040ED57E0B4
:10E3700005C0FA013197F1F72F5F3F4F2817390792
:10E38000C0F308959C01260F311DC901A0E0B0E043
:10E390002F5F3F4FABBFFC018791882361F08093D3
:10E3A000C6008091C00086FFFCCF8091C0008064D1
:10E3B0008093C000EACF08958DE08093C6008091DD
:10E3C000C00086FFFCCF8091C00080648093C000B5
:10E3D0008AE08093C6008091C00086FFFCCF8091C8
:10E3E000C00080648093C00008950F94C2F10F9420
:10E3F000DCF10895FC019081992359F09093C600B7
:10E400008091C00086FFFCCF8091C0008064809323
:10E41000C0003196992379F70895282F982F929567
:10E420009F70892F805D8A3308F0895F8093C600D2
:10E430008091C00086FFFCCF8091C00080648093F3
:10E44000C000822F8F70982F905D9A3308F0995FEB
:10E450009093C6008091C00086FFFCCF8091C000E1
:10E4600080648093C00008959C01FB01853691056E
:10E470001CF46330710594F0C90164E670E00F94F8
:10E480002EFE605D7F4F6093C6008091C00086FFC6
:10E49000FCCF8091C00080648093C0002B30310598
:10E4A00014F43297B4F0C90164E670E00F942EFEC4
:10E4B0006AE070E00F942EFE605D7F4F6093C600AF
:10E4C0008091C00086FFFCCF8091C0008064809363
:10E4D000C000C9016AE070E00F942EFEC0968093E0
:10E4E000C6008091C00086FFFCCF8091C000806490
:10E4F0008093C00008951F93182F8EE692EE60E07F
:10E500000F94C2F11093C6008091C00086FFFCCF2B
:10E510008091C00080648093C0000F94DCF11F9153
:10E5200008952F923F924F925F926F927F928F92B7
:10E530009F92AF92BF92CF92DF92EF92FF920F9392
:10E540001F93DF93CF93CDB7DEB762970FB6F894E2
:10E55000DEBF0FBECDBF382E622ECA01DB015C01CB
:10E560006D01772420E2222E2E010894411C511CBB
:10E570008BC081E0A81680E0B80681E0C80680E084
:10E58000D80628F0C601AA27BB270F940DF2BB2797
:10E59000AD2D9C2D8B2D0F940DF28A2D0F940DF225
:10E5A0002092C6008091C00086FFFCCF8091C00001
:10E5B00080648093C0009DE29093C6008091C0006B
:10E5C00086FFFCCF8091C00080648093C0002092C1
:10E5D000C6008091C00086FFFCCF8091C00080649F
:10E5E0008093C00019828601750188249924A1E0D6
:10E5F0003A1651F03A1620F0B2E03B1661F409C029
:10E600000BBFF701779007C0C7010F9477FE782EF4
:10E6100002C0F7017080872D0F940DF22092C60082
:10E620008091C00086FFFCCF8091C0008064809301
:10E63000C000872D8052F401EF70F0708F3520F408
:10E64000E40DF51D708204C0E40DF51D8EE280839B
:10E650000894E11CF11C011D111D0894811C911CE2
:10E6600090E18916910409F0C2CF80E190E0A0E02A
:10E67000B0E0A80EB91ECA1EDB1E198AC2010F9493
:10E68000FAF10F94DCF16A94662009F072CF629679
:10E690000FB6F894DEBF0FBECDBFCF91DF911F91B3
:10E6A0000F91FF90EF90DF90CF90BF90AF909F9031
:10E6B0008F907F906F905F904F903F902F90089534
:10E6C0002F923F924F925F926F927F928F929F9282
:10E6D000AF92BF92CF92DF92EF92FF920F931F9370
:10E6E000DF93CF93CDB7DEB7CD53D1400FB6F894BB
:10E6F000DEBF0FBECDBF01E20EBF0FEF0DBF94B75F
:10E70000F894A89514BE80916000886180936000A1
:10E7100010926000789493FF05C0E0910002F091A0
:10E7200001021995279A2F9A8091C00082608093E8
:10E73000C00080E18093C40088E18093C1000000A4
:10E74000EE24FF24870144E0A42EB12CCC24DD2448
:10E7500024C0C5010197F1F70894E11CF11C011DCB
:10E76000111D21E2E2162EE4F20620E0020720E06D
:10E77000120718F031E0C32ED12CC801B70127ECE5
:10E780003BE140E050E00F9441FE611571058105C9
:10E79000910519F485B1805885B98091C00087FD35
:10E7A00003C0C114D104A9F2A6014F5F5F4FC25E3E
:10E7B000DE4F59834883CE51D140C25EDE4F8881FF
:10E7C0009981CE51D140019711F00D9410FEC05D9A
:10E7D000DE4F19821882C053D14060E0C15DDE4F28
:10E7E0001882CF52D14088249924C35DDE4F19820C
:10E7F0001882CD52D140C05EDE4F188219821A8233
:10E800001B82C052D140CE5CDE4F188219821A8220
:10E810001B82C253D140EE24FF2487010BBFF701B6
:10E8200007911691C45CDE4F19830883CC53D14005
:10E830000D940BFEC25EDE4F28813981CE51D1404E
:10E840002130310509F52091C600C25EDE4F1982E4
:10E850001882CE51D14022C02F5F3F4F4F4F5F4FA4
:10E86000213082E138078AE7480780E0580780F0C6
:10E87000C45CDE4FE881F981CC53D140EF5FFF4F9C
:10E8800019F0EE27FF27099420E030E040E050E047
:10E890008091C00087FFE0CF2091C600C35DDE4FAE
:10E8A00048815981CD52D1404F5F5F4FC35DDE4FEC
:10E8B00059834883CD52D140213209F063C64A3092
:10E8C000510508F05FC60894811C911C53E0851621
:10E8D000910409F059C600E010E018C081E280936D
:10E8E000C6008091C00086FFFCCF8091C00080648C
:10E8F0008093C0002F5F3F4F2931310579F70F9486
:10E90000DCF10F5F1F4F0530110519F020E030E0FA
:10E91000E5CF10920A0210920B0210920C02109294
:10E920000D02109206021092070210920802109235
:10E930000902109202021092030210920402109235
:10E9400005028FEE90EE60E00F94F5F180E191EE1C
:10E9500060E00F94C2F18091C00087FFFCCF9091DE
:10E96000C600903608F09F759032B8F09093C600BC
:10E970008091C00086FFFCCF8091C00080648093AE
:10E98000C000A0E2A093C6008091C00086FFFCCF2B
:10E990008091C00080648093C000983409F4D7C18E
:10E9A0009934B8F4923409F459C1933458F490333B
:10E9B00019F1903308F4E3C59F33A1F1903409F0C5
:10E9C000DEC5BDC0953409F470C1963409F0D7C5D1
:10E9D00098C1923509F42BC2933538F49C3409F46C
:10E9E000F5C1913509F0CBC518C2963509F445C279
:10E9F000993509F0C4C567C483E792EE62E00F94CD
:10EA0000F5F110920602109207021092080210927D
:10EA1000090210920A0210920B0210920C0210923C
:10EA20000D0213C18FE792EE62E00F94F5F18FEEC5
:10EA300090EE60E00F94F5F181E291EE60E00F94CA
:10EA4000C2F187EB91EE60E00F94F5F180E391EE77
:10EA500060E00F94C2F184EE90EE60E00F94F5F167
:10EA60008FE391EE60E00F94C2F186E090E061E008
:10EA700070E00F9434F20F94DCF18DE591EE60E0DC
:10EA80000F94C2F189EC91EE60E00F94F5F18EE401
:10EA900091EE60E00F94C2F183EC91EE60E00F9490
:10EAA000F5F18CE691EE60E00F94C2F18EE10F94E7
:10EAB0000DF288E90F940DF281E00F940DF20F949E
:10EAC000DCF18BE791EE60E00F94C2F119E0E0E039
:10EAD000F0E010935700E4918E2F0F940DF20F94F5
:10EAE000DCF18AE891EE60E00F94C2F1E3E0F0E03F
:10EAF00010935700E4918E2F0F940DF20F94DCF1D8
:10EB000089E991EE60E00F94C2F1E2E0F0E0109349
:10EB10005700E4918E2F0F940DF20F94DCF188EAE8
:10EB200091EE60E00F94C2F1E1E0F0E01093570045
:10EB30001491812F0F940DF20F94DCF107CF8BE825
:10EB400092EE62E00F94F5F18BE492EE60E00F94A8
:10EB5000F5F10F94DCF100E010E019C0C8016F2D51
:10EB60000F947FFEFF2031F489E492EE60E00F9471
:10EB7000C2F10BC0F092C6008091C00086FFFCCFAE
:10EB80008091C00080648093C0000F5F1F4FC80158
:10EB900081519F41A0E0B0E0ABBFFC01F790BAE229
:10EBA000FB1621F0E2E000301E07C1F60F94DCF105
:10EBB0000F94DCF187E592EE60E00F94F5F10F948D
:10EBC000DCF1CC24DD2400E010E01EC0C8010F946D
:10EBD00077FEF82E882331F489E492EE60E00F94FA
:10EBE000C2F10BC08093C6008091C00086FFFCCFAD
:10EBF0008091C00080648093C000FE1419F00894D6
:10EC0000C11CD11C0F5F1F4FC80181519F41A0E063
:10EC1000B0E0ABBFFC01E790FAE2EF1621F022E092
:10EC20000030120799F60F94DCF10F94DCF182E6C4
:10EC300092EE60E00F94C2F1C60161E070E00F94C3
:10EC400034F20F94DCF10F94DCF110920202109276
:10EC50000302109204021092050278CE89E992EE26
:10EC600062E00F94F5F1279A2F9A16C02F9880E052
:10EC700090E0E0EDF7E03197F1F7019684369105E9
:10EC8000C1F72F9A80E090E0E0EDF7E03197F1F7DF
:10EC9000019684369105C1F78091C00087FFE6CFC9
:10ECA0008091C00087FFFCCF64C485EA92EE62E0E9
:10ECB0000F94F5F140910202509103026091040219
:10ECC0007091050281E020E10F9491F2809102029F
:10ECD00090910302A0910402B091050280509F4FD1
:10ECE000AF4FBF4F8093020290930302A0930402A0
:10ECF000B093050280509041A040B04008F426CE69
:10ED0000A4CF83EB92EE62E00F94F5F140910602FE
:10ED100050910702609108027091090280E020E1A1
:10ED20000F9491F28091060290910702A09108023F
:10ED3000B091090280509F4FAF4FBF4F80930602A2
:10ED400090930702A0930802B0930902FFCD80ECD4
:10ED500092EE62E00F94F5F183E792EE60E00F949B
:10ED6000F5F18FE792EE60E00F94F5F18BE892EE0B
:10ED700060E00F94F5F189E992EE60E00F94F5F10F
:10ED800085EA92EE60E00F94F5F183EB92EE60E09D
:10ED90000F94F5F180EC92EE60E00F94F5F187ECC2
:10EDA00092EE60E00F94F5F188ED92EE60E00F9442
:10EDB000F5F18FED92EE60E00F94F5F18AEE92EEB0
:10EDC00060E00F94F5F183E093EEBDCD87EC92EE19
:10EDD00062E00F94F5F181E40F947BF282E40F94EA
:10EDE0007BF283E40F947BF284E40F947BF285E45E
:10EDF0000F947BF286E40F947BF287E40F947BF20E
:10EE000088E40F947BF28AE40F947BF28BE40F94F6
:10EE10007BF28CE40F947BF299CD88ED92EE62E068
:10EE20000F94F5F1772473948824992409C48FED05
:10EE300092EE62E00F94F5F140910A0250910B02BC
:10EE400060910C0270910D0282E020E10F9491F22A
:10EE500080910A0290910B02A0910C02B0910D02D8
:10EE600080509F4FAF4FBF4F80930A0290930B0289
:10EE7000A0930C02B0930D0269CD8AEE92EE62E08F
:10EE80000F94F5F184EE90EE60E00F94F5F18FECC5
:10EE900091EE60E00F94F5F1662477244301CC5D98
:10EEA000DE4F19821882C452D140D401C301B695F5
:10EEB000A79597958795CA5DDE4F88839983AA8326
:10EEC000BB83C652D140CC5DDE4FA881B981C4520C
:10EED000D1401196CC5DDE4FB983A883C452D14096
:10EEE000CD0162E070E00F9434F2B0E2B093C6005E
:10EEF0008091C00086FFFCCF8091C0008064809329
:10EF0000C000EDE2E093C6008091C00086FFFCCF18
:10EF10008091C00080648093C000F0E2F093C6004E
:10EF20008091C00086FFFCCF8091C00080648093F8
:10EF3000C000CA5DDE4FE880F9800A811B81C6529D
:10EF4000D140BB27A12F902F8F2D0F940DF2CA5DBA
:10EF5000DE4F8881C652D1400F940DF2B0E2FB2EF5
:10EF6000F092C6008091C00086FFFCCF8091C00067
:10EF700080648093C0000DE30093C6008091C000C0
:10EF800086FFFCCF8091C00080648093C00010E2B7
:10EF90001093C6008091C00086FFFCCF8091C00016
:10EFA00080648093C0008BBEF3012791C65DDE4F65
:10EFB0002883CA52D140A22EBB24CC24DD2408943D
:10EFC000611C711C811C911C8BBEF3018791282E42
:10EFD0003324442455240894611C711C811C911C09
:10EFE0008BBEF3013791C55DDE4F3883CB52D140E4
:10EFF0000894611C711C811C911C8BBEF30147910C
:10F00000C45DDE4F4883CC52D140ADEFEA2EAFEF66
:10F01000FA2EAFEF0A2FAFEF1A2F6E0C7F1C801E57
:10F02000911E142D032DF22CEE24EA0CFB1C0C1D5A
:10F030001D1D0F940DF220E22093C6008091C000A8
:10F0400086FFFCCF8091C00080648093C000C65DC5
:10F05000DE4F8881CA52D1400F940DF230E23093D6
:10F06000C6008091C00086FFFCCF8091C000806404
:10F070008093C000C45DDE4F8881CC52D1400F9494
:10F080000DF240E24093C6008091C00086FFFCCFA5
:10F090008091C00080648093C000C55DDE4F888190
:10F0A000CB52D1400F940DF250E25093C6008091A4
:10F0B000C00086FFFCCF8091C00080648093C000B8
:10F0C0008FEFE8168FEFF80680E0080780E018075A
:10F0D00031F484E092EE60E00F94C2F1DFC0D80119
:10F0E000C7018070907CA070B0708050904CA040A0
:10F0F000B040D1F52FEF3FE340E050E0E222F322B1
:10F1000004231523CA5DDE4FA880B980CA80DB8046
:10F11000C652D140AE0CBF1CC01ED11EAA0CBB1CD7
:10F12000CC1CDD1C8EE092EE60E00F94C2F1BB2798
:10F13000A12F902F8F2D0F940DF28E2D0F940DF285
:10F1400030E23093C6008091C00086FFFCCF8091F2
:10F15000C00080648093C0004EE34093C60080915D
:10F16000C00086FFFCCF87C08EE09EEFA0E0B0E03D
:10F17000E822F9220A231B239CE0E91694E9F90608
:10F1800090E0090790E0190709F088C0C45DDE4FE0
:10F19000A881CC52D140EA2EFF2400E010E0102FCD
:10F1A0000F2DFE2CEE24C55DDE4FB881CB52D14031
:10F1B000EB0EF11C011D111DD601C501817090706F
:10F1C000A070B070DC0199278827E80EF91E0A1F8D
:10F1D0001B1F20EF30E040E050E0A222B322C42207
:10F1E000D52241E1AA0CBB1CCC1CDD1C4A95D1F7F1
:10F1F000EA0CFB1C0C1D1D1D81E090E0A0E0B0E0BE
:10F20000282239224A225B2235E1220C331C441C7D
:10F21000551C3A95D1F7E20CF31C041D151D57013E
:10F220006801AA0CBB1CCC1CDD1C85E192EE60E0E1
:10F230000F94C2F1C801AA27BB270F940DF2BB2778
:10F24000A12F902F8F2D0F940DF28E2D0F940DF274
:10F2500090E29093C6008091C00086FFFCCF809121
:10F26000C00080648093C000AEE3A093C60080918C
:10F27000C00086FFFCCF8091C00080648093C000F6
:10F28000C601AA27BB270F940DF2BB27AD2D9C2DDD
:10F290008B2D0F940DF28A2D0F940DF20F94DCF14B
:10F2A000CC5DDE4FE881F981C452D140F99709F471
:10F2B0004DCBF4E0EF2EF12C012D112D6E0C7F1CA7
:10F2C000801E911EF2CD83E093EE62E00F94F5F183
:10F2D0008AE192EE60E00F94C2F18091C00087FF56
:10F2E000FCCF1091C6001F751093C6008091C0001E
:10F2F00086FFFCCF8091C00080648093C0000F9493
:10F30000DCF1812F81548A3108F036C1163409F4BA
:10F3100095C0173490F4133409F44EC0143430F40B
:10F320001134F1F0123409F01DC130C0143409F465
:10F3300059C0153409F016C16BC01A3409F4C4C0A1
:10F340001B3438F4173409F48FC0183409F00AC19B
:10F35000A1C01B3409F4D2C01C3409F003C1E8C0B9
:10F360008FEF81B90DC082B1809582B980E090E0C5
:10F37000E0EDF7E03197F1F70196883C9105C1F790
:10F380008091C00087FFEFCF12B8EFC08FEF84B934
:10F390000DC085B1809585B980E090E0E0EDF7E0A3
:10F3A0003197F1F70196883C9105C1F78091C00033
:10F3B00087FFEFCF15B8D9C08FEF87B90DC088B1DF
:10F3C000809588B980E090E0E0EDF7E03197F1F7C3
:10F3D0000196883C9105C1F78091C00087FFEFCF6F
:10F3E00018B8C3C08FEF8AB90DC08BB180958BB9A7
:10F3F00080E090E0E0EDF7E03197F1F70196883C8E
:10F400009105C1F78091C00087FFEFCF1BB8ADC059
:10F410008FEF8DB90DC08EB180958EB980E090E0F0
:10F42000E0EDF7E03197F1F70196883C9105C1F7DF
:10F430008091C00087FFEFCF1EB897C08FEF80BBD1
:10F440000DC081B3809581BB80E090E0E0EDF7E0F6
:10F450003197F1F70196883C9105C1F78091C00082
:10F4600087FFEFCF11BA81C08FEF83BB0DC084B38C
:10F47000809584BB80E090E0E0EDF7E03197F1F714
:10F480000196883C9105C1F78091C00087FFEFCFBE
:10F4900014BA6BC08FEF809301010FC080910201FD
:10F4A00080958093020180E090E0E0EDF7E03197F5
:10F4B000F1F70196883C9105C1F78091C00087FF64
:10F4C000EDCF1092020151C08FEF809304010FC065
:10F4D0008091050180958093050180E090E0E0ED4A
:10F4E000F7E03197F1F70196883C9105C1F78091DB
:10F4F000C00087FFEDCF1092050137C08FEF8093DA
:10F5000007010FC08091080180958093080180E079
:10F5100090E0E0EDF7E03197F1F70196883C910536
:10F52000C1F78091C00087FFEDCF109208011DC088
:10F530008FEF80930A010FC080910B01809580931B
:10F540000B0180E090E0E0EDF7E03197F1F70196F4
:10F55000883C9105C1F78091C00087FFEDCF1092E4
:10F560000B0103C085E292EEEEC98091C00087FFD7
:10F57000FCCF8091C600EAC988E392EEE4C98CE131
:10F5800091EEE1C988249924933011F1943028F444
:10F59000913089F09230B8F408C0953061F195301F
:10F5A000F0F0963009F048C043C02B3109F042C951
:10F5B00091E06BE13FC96227C15DDE4F2883CF52E6
:10F5C000D14092E037C9B22FA0E0622793E032C960
:10F5D000822F90E0A82BB92B622794E02BC92E3004
:10F5E00009F039C3622795E0C05DDE4F19821882A9
:10F5F000C053D1401FC9E1E0F0E0EC0FFD1FC05D3A
:10F60000DE4F08811981C053D140E00FF11F2083E4
:10F610000F5F1F4FC05DDE4F19830883C053D14079
:10F6200062270A171B0709F005C9D80196E002C92D
:10F63000261709F010C303C0973009F0FBC87724E0
:10F640009981933109F412C19431C8F4963009F4C8
:10F65000D8C0973050F4923009F406C1933009F4C1
:10F660006DC0913009F059C253C0913109F477C08F
:10F67000923108F0BBC0903109F04FC2F5C098310B
:10F6800009F487C0993150F4953109F4EFC09531F0
:10F6900008F4C6C1963109F040C2C2C19A3109F4DA
:10F6A0006CC09A3108F491C09B3109F45BC09D3164
:10F6B00009F033C29D81903359F48F81882311F46E
:10F6C0009EE11CC0813011F091E018C098E916C08D
:10F6D000892F807591F0903539F4E0E0F0E089E011
:10F6E0008093570094910AC0983539F4E3E0F0E034
:10F6F00089E080935700949101C090E01A821B82A8
:10F700008D818C831D829E831F8227E030E009C299
:10F710001A8288E08B8381E48C8386E58D8382E581
:10F720008E8389E48F8383E5888780E589878FE5E9
:10F730008A8782E38B872BE030E0F3C18A818139AD
:10F7400041F0823941F0803911F48FE005C080E04A
:10F7500003C082E001C08AE01A828B8344C0772410
:10F76000739482C08D81882311F48EE12CC0813086
:10F7700011F081E028C088E926C01A82E1E0F0E0BB
:10F7800089E08093570084918B831C8224E030E0D1
:10F79000C8C18B81803589F48C81883039F4E2E0EE
:10F7A000F0E089E08093570084910DC0E0E0F0E044
:10F7B00089E080935700849106C0E3E0F0E089E09F
:10F7C0008093570084911A82DFCF8D81836C99E0FA
:10F7D000E1E0F0E0082E90935700E89507B600FCB2
:10F7E000FDCF1A821B8223E030E09BC180EC8A832C
:10F7F000CE5CDE4F188219821A821B82C253D1401E
:10F800008EC18A8190E0A0E0B0E0582F44273327D2
:10F8100022278B8190E0A0E0B0E0DC0199278827C7
:10F82000282B392B4A2B5B2B8D8190E0A0E0B0E098
:10F83000282B392B4A2B5B2B8C8190E0A0E0B0E089
:10F84000BA2FA92F982F8827282B392B4A2B5B2BCF
:10F85000220F331F441F551FC05EDE4F288339839C
:10F860004A835B83C052D1401A8259C13A81C95C34
:10F87000DE4F3883C753D140CA5CDE4F1882C6536F
:10F88000D1408B81C82EDD24CA5CDE4F488159816E
:10F89000C653D140C42AD52A933109F082C0CE5C28
:10F8A000DE4F88819981AA81BB81C253D1408050AB
:10F8B000904CA340B04030F583E0CE5CDE4FE88052
:10F8C000F9800A811B81C253D140F70100935B008C
:10F8D00080935700E89507B600FCFDCFCE5CDE4F65
:10F8E000088119812A813B81C253D14000501F4FAA
:10F8F0002F4F3F4FCE5CDE4F088319832A833B8313
:10F90000C253D140C05EDE4F488159816A817B81FC
:10F91000C052D140DE011B9631E08C9111962C91A2
:10F9200011971296C75CDE4F2883C953D140C85C3B
:10F93000DE4F1882C853D14090E0C85CDE4FE881AA
:10F94000F981C853D1408E2B9F2B0C01FA01609393
:10F950005B0030935700E89511244E5F5F4F6F4F67
:10F960007F4F0EEFE02E0FEFF02ECE0CDF1CC114F8
:10F97000D10499F685E0C05EDE4F088119812A81A5
:10F980003B81C052D140F80120935B008093570027
:10F99000E89507B600FCFDCF81E180935700E8951C
:10F9A00035C0C05EDE4F88819981AA81BB81C0527B
:10F9B000D140B695A795979587957C018601ABE0D8
:10F9C000AA2EB12CAC0EBD1E0BC0D5016D915D01F0
:10F9D000C7010F947FFE0894E11CF11C01501040F8
:10F9E0000115110591F7A60160E070E0440F551F65
:10F9F000661F771FC05EDE4FE880F9800A811B8199
:10FA0000C052D1404E0D5F1D601F711F1A82C05E33
:10FA1000DE4F488359836A837B83C052D1407FC0C5
:10FA2000FA80C55CDE4FF882CB53D140C65CDE4F16
:10FA30001882CA53D1408B81C82EDD24C65CDE4FAC
:10FA400008811981CA53D140C02AD12A1A828981DA
:10FA5000BE016D5F7F4F843121F59601C05EDE4FA0
:10FA6000E880F9800A811B81C052D1400BBFF701A9
:10FA700087919691DB018C9311969C936E5F7F4FDB
:10FA8000D801C7010296A11DB11DC05EDE4F88835B
:10FA90009983AA83BB83C052D14022503040F1F6F3
:10FAA00036C0C05EDE4F288139814A815B81C052F9
:10FAB000D1400894C108D108760100E010E0089414
:10FAC000C11CD11C0894E11CF11C011D111DE20E8A
:10FAD000F31E041F151F21BDBB27A52F942F832FB5
:10FAE00082BD2F5F3F4F4F4F5F4FF89A80B5DB01CC
:10FAF0008D93BD012E153F054007510761F7C05E8C
:10FB0000DE4F288339834A835B83C052D1409601FC
:10FB10002D5F3F4FFB01108204C080EC8A8322E0FE
:10FB200030E08BE18093C6008091C00086FFFCCF5F
:10FB30008091C00080648093C000C15DDE4FF88179
:10FB4000CF52D140F093C6008091C00086FFFCCF19
:10FB50008091C00080648093C000432F3093C60022
:10FB60008091C00086FFFCCF8091C00080648093AC
:10FB7000C000922F2093C6008091C00086FFFCCF6A
:10FB80008091C00080648093C0008EE08093C600A6
:10FB90008091C00086FFFCCF8091C000806480937C
:10FBA000C00065E1C15DDE4FE880CF52D1406E25D7
:10FBB00069276427FE01319610C090819093C6009A
:10FBC0008091C00086FFFCCF31968091C000806498
:10FBD0008093C0006927215030402115310569F715
:10FBE0006093C6008091C00086FFFCCF8091C0006A
:10FBF00080648093C00085B1805885B9772081F4F6
:10FC0000C15DDE4F0881CF52D1400F5FC15DDE4F35
:10FC10000883CF52D14090E0A0E0B0E00D941AF4F8
:10FC200027982F9880E090E020ED37E0F901319798
:10FC3000F1F7019684369105C9F700008091C00064
:10FC40008D7F8093C00081E180935700E895EE2777
:10FC5000FF270994FFCF90E00D941AF497FB092E2B
:10FC600007260AD077FD04D02ED006D000201AF443
:10FC7000709561957F4F0895F6F7909581959F4F08
:10FC80000895A1E21A2EAA1BBB1BFD010DC0AA1FDD
:10FC9000BB1FEE1FFF1FA217B307E407F50720F0F5
:10FCA000A21BB30BE40BF50B661F771F881F991F70
:10FCB0001A9469F760957095809590959B01AC01B9
:10FCC000BD01CF010895AA1BBB1B51E107C0AA1FAC
:10FCD000BB1FA617B70710F0A61BB70B881F991FED
:10FCE0005A95A9F780959095BC01CD010895F99991
:10FCF000FECF92BD81BDF89A992780B50895262F31
:10FD0000F999FECF1FBA92BD81BD20BD0FB6F89400
:0EFD1000FA9AF99A0FBE01960895F894FFCF63
:00000001FF
