:100000000C9450010C941B060C94F0050C94C5053F
:100010000C949A050C946F050C9444050C941905E6
:100020000C94EE040C9481010C9481010C948101D8
:100030000C9481010C9481010C9481010C9446066E
:100040000C9481010C9481010C9481010C94810128
:100050000C9481010C9481010C9481010C94440452
:100060000C9481010C94B8040C948E040C948101BE
:100070000C9481010C9481010C9481010C948101F8
:100080000C9481010C9481010C9481010C948101E8
:100090000C9481010C9481010C9481010C948101D8
:1000A0000C9481010C9481010C9481010C948101C8
:1000B0000C9481010C9481010C9481010C948101B8
:1000C0000C9481010C9481010C9481010C948101A8
:1000D0000C9481010C9481010C9481010C94810198
:1000E0000C9481010C9470020C94BA010C942008B9
:1000F0000C9439030C9483010C9408080C941D0390
:100100000C948B080C9462080C9435080C9417031B
:100110000C9447030C947E030C94A3080C942302C4
:100120000C9421030C9408030C9427030C944303B0
:100130000C947F080C942C080C942B030C9414083A
:100140000C94F1020C942F030C9435030C944A0880
:100150000C948D010C94AF080C9411040C94C901FB
:100160000C9410030C9414030C9402080C94EB01EF
:100170000C943D030C9456080C940C030C94B40896
:100180000C94F6020C9473080C94DD010C949708FF
:100190000C943E080C946407000021002400270002
:1001A0002A002D0030003300010100000401070186
:1001B0000A0100002200250028002B002E0031003B
:1001C000340002010000050108010B0105050505C9
:1001D000070508080808020202020A0A08080404BF
:1001E00004040101010101010101030303030303ED
:1001F0000303040707070C0C0C0C0C0C0C0C02027C
:10020000020206060606060606060B0B0B0B0B0B78
:100210000B0B010210202008081020401020408005
:1002200002010201080402010102040810204080BA
:100230008040201008040201800402018040201048
:100240000804020108040201010204081020408091
:10025000010204081020408000000A0B02090C0D66
:100260000E08070304010000000000000000000069
:10027000000000000000000000000000000000007E
:10028000000000001211100000000000000000003B
:100290000000000000000000000000000000B408A2
:1002A00011241FBECFEFD1E2DEBFCDBF00E00CBFF7
:1002B00012E0A0E0B2E0ECE7F4E100E00BBF02C026
:1002C00007900D92A833B107D9F722E0A8E3B2E076
:1002D00001C01D92AF3EB207E1F711E0C0E5D1E0E9
:1002E00000E006C021970109802FFE010E94340A18
:1002F000CF34D10780E00807A9F70E94BC060C9410
:100300003C0A0C94000080913A0290913B020196C5
:1003100090933B0280933A020895AF92BF92CF929E
:10032000DF92EF92FF920F931F93CF93DF936C01B5
:100330007B018B01040F151FEB015E01AE18BF0896
:10034000C017D10759F06991D601ED91FC91019048
:10035000F081E02DC6011995892B79F7C501DF9150
:10036000CF911F910F91FF90EF90DF90CF90BF90B2
:10037000AF900895FC01538D448D252F30E0842FDC
:1003800090E0821B930B541710F0CF9608950197BD
:100390000895FC01918D828D981761F0A28DAE0FAA
:1003A000BF2FB11D5D968C91928D9F5F9F73928F31
:1003B00090E008958FEF9FEF0895FC01918D828D5D
:1003C000981731F0828DE80FF11D858D90E008952A
:1003D0008FEF9FEF0895FC01918D228D892F90E082
:1003E000805C9F4F821B91098F739927089582E546
:1003F00092E00E94EB0121E0892B09F420E0822F9A
:100400000895FC01A48DA80FB92FB11DA35ABF4FA9
:100410002C91848D90E001968F739927848FA68903
:10042000B7892C93A089B1898C91837080648C9357
:10043000938D848D981306C00288F389E02D808106
:100440008F7D80830895EF92FF920F931F93CF9338
:10045000DF93EC0181E0888F9B8D8C8D98131AC0FF
:10046000E889F989808185FF15C09FB7F894EE89E6
:10047000FF896083E889F989808183708064808343
:100480009FBF81E090E0DF91CF911F910F91FF908E
:10049000EF900895F62E0B8D10E00F5F1F4F0F7336
:1004A0001127E02E8C8D8E110CC00FB607FCFACFF1
:1004B000E889F989808185FFF5CFCE010E9401028C
:1004C000F1CFEB8DEC0FFD2FF11DE35AFF4FF082C2
:1004D0009FB7F8940B8FEA89FB8980818062CFCF28
:1004E000CF93DF93EC01888D8823B9F0AA89BB896B
:1004F000E889F9898C9185FD03C0808186FD0DC056
:100500000FB607FCF7CF8C9185FFF2CF808185FF76
:10051000EDCFCE010E940102E9CFDF91CF91089586
:1005200080E090E0892B29F00E94F70181110E9460
:10053000000080E090E0892B49F080E090E0892B7A
:1005400029F00E94000081110E94000080E090E0EC
:10055000892B49F080E090E0892B29F00E9400006F
:1005600081110E94000080E090E0892B49F080E03A
:1005700090E0892B29F00E94000081110C9400006A
:100580000895282F30E0F901E85AFD4F9491F901C0
:10059000EE5EFD4F449124533E4FF90124912223F6
:1005A00009F435C0992311F191509231F8F4E92FF3
:1005B000F0E08827E152FD4F8F4F0C94340A10036E
:1005C0001403F10208030C03F60217031D032103B1
:1005D00027032B032F0335033903F6023D0343039F
:1005E0004703809180008F7780938000E22FF0E0B6
:1005F000EE0FFF1FEE54FE4FA591B4918FB7F89404
:10060000EC91611148C040954E234C938FBF0895E3
:10061000809180008F7DE8CF80918000877FE4CF3C
:1006200084B58F7784BDE2CF84B58F7DFBCF809179
:10063000B0008F778093B000D9CF8091B0008F7DCC
:10064000F9CF809190008F7780939000CFCF8091E9
:1006500090008F7DF9CF80919000877FF5CF8091BA
:10066000A0008F778093A000C1CF8091A0008F7DE4
:10067000F9CF8091A000877FF5CF809120018F77FF
:1006800080932001B3CF809120018F7DF9CF80919D
:100690002001877FF5CF4E2BB8CFCF93DF9390E02B
:1006A000FC01EE5EFD4F249184539E4FFC0184912A
:1006B0008823D1F090E0880F991FFC01E856FE4F87
:1006C000A591B491FC01EE54FE4FC591D4916111F6
:1006D0000EC09FB7F8948C91E22FE0958E238C93F7
:1006E0002881E223E8839FBFDF91CF9108958FB7E0
:1006F000F894EC91E22BEC938FBFF6CF0895FC01B8
:1007000001900020E9F73197AF01481B590BBC015C
:1007100082E592E00C948D018F929F92AF92BF92EE
:10072000CF92DF92EF92FF920F931F93CF93DF93BD
:10073000CDB7DEB7A1970FB6F894DEBF0FBECDBF21
:100740006C01990FEE08FF08F7FE47C06DE282E5E5
:1007500092E00E9423028C0122273327A9012C1941
:100760003D094E095F0919A2CE0181967C019AE0EC
:10077000892E912CA12CB12CCA01B901A50194019B
:100780000E94120A605DF70162937F012115310515
:100790004105510589F790E080E0309719F0CF01CD
:1007A0000E947F03080F191F82E292E00E947F03DC
:1007B000800F911FA1960FB6F894DEBF0FBECDBF7C
:1007C000DF91CF911F910F91FF90EF90DF90CF902D
:1007D000BF90AF909F908F900895A701960119A2A6
:1007E0008E010F5D1F4F8AE0C82ED12CE12CF12C19
:1007F000CA01B901A70196010E94120A605DF801C1
:1008000062938F01211531054105510589F7309714
:1008100029F0CF010E947F038C01C6CF10E000E0D9
:10082000C3CF60913A0270913B02072E000C880BF7
:10083000990B0E9486099B01AC010E94E2080E946C
:100840004E092CE3269FA001279F500D11245093A1
:1008500039024093380285E292E00E947F03809142
:100860003802909139020E948C0389E292E00E9442
:100870007F0380913A0290913B020E948C03109278
:100880003B0210923A0208951F920F920FB60F92F8
:1008900011242F933F938F939F93AF93BF93809196
:1008A0004E0290914F02A0915002B09151023091AE
:1008B0004D0223E0230F2D3758F50196A11DB11DE0
:1008C00020934D0280934E0290934F02A0935002CA
:1008D000B09351028091490290914A02A0914B023B
:1008E000B0914C020196A11DB11D809349029093D5
:1008F0004A02A0934B02B0934C02BF91AF919F91DB
:100900008F913F912F910F900FBE0F901F901895D0
:1009100026E8230F0296A11DB11DD2CF1F920F9280
:100920000FB60F9211240BB60F922F933F934F9354
:100930005F936F937F938F939F93AF93BF93EF9347
:10094000FF9382E592E00E940102FF91EF91BF9137
:10095000AF919F918F917F916F915F914F913F9157
:100960002F910F900BBE0F900FBE0F901F901895F8
:100970001F920F920FB60F9211240BB60F922F9366
:100980008F939F93EF93FF93E0916202F091630244
:100990008081E0916802F091690282FD1DC0908122
:1009A00080916B028F5F8F7320916C02821741F0F0
:1009B000E0916B02F0E0EE5AFD4F958F80936B0251
:1009C000FF91EF919F918F912F910F900BBE0F9000
:1009D0000FBE0F901F9018958081F2CF1F920F923B
:1009E0000FB60F9211240BB60F922F933F934F9394
:1009F0005F936F937F938F939F93AF93BF93EF9387
:100A0000FF93E0910E02F0910F021995FF91EF9183
:100A1000BF91AF919F918F917F916F915F914F9116
:100A20003F912F910F900BBE0F900FBE0F901F9014
:100A300018951F920F920FB60F9211240BB60F92BA
:100A40002F933F934F935F936F937F938F939F93D6
:100A5000AF93BF93EF93FF93E0910C02F0910D02DF
:100A60001995FF91EF91BF91AF919F918F917F91D8
:100A70006F915F914F913F912F910F900BBE0F900F
:100A80000FBE0F901F9018951F920F920FB60F92E6
:100A900011240BB60F922F933F934F935F936F9355
:100AA0007F938F939F93AF93BF93EF93FF93E091C7
:100AB0000202F09103021995FF91EF91BF91AF915E
:100AC0009F918F917F916F915F914F913F912F9166
:100AD0000F900BBE0F900FBE0F901F9018951F9296
:100AE0000F920FB60F9211240BB60F922F933F93D4
:100AF0004F935F936F937F938F939F93AF93BF9326
:100B0000EF93FF93E0910002F09101021995FF919C
:100B1000EF91BF91AF919F918F917F916F915F9175
:100B20004F913F912F910F900BBE0F900FBE0F90E2
:100B30001F9018951F920F920FB60F9211240BB6AB
:100B40000F922F933F934F935F936F937F938F9366
:100B50009F93AF93BF93EF93FF93E0910A02F091BD
:100B60000B021995FF91EF91BF91AF919F918F91DA
:100B70007F916F915F914F913F912F910F900BBE9D
:100B80000F900FBE0F901F9018951F920F920FB6E7
:100B90000F9211240BB60F922F933F934F935F93B5
:100BA0006F937F938F939F93AF93BF93EF93FF9335
:100BB000E0910802F09109021995FF91EF91BF9120
:100BC000AF919F918F917F916F915F914F913F91E5
:100BD0002F910F900BBE0F900FBE0F901F90189586
:100BE0001F920F920FB60F9211240BB60F922F93F4
:100BF0003F934F935F936F937F938F939F93AF93A5
:100C0000BF93EF93FF93E0910602F09107021995CD
:100C1000FF91EF91BF91AF919F918F917F916F91D4
:100C20005F914F913F912F910F900BBE0F900FBE90
:100C30000F901F9018951F920F920FB60F921124CC
:100C40000BB60F922F933F934F935F936F937F93C6
:100C50008F939F93AF93BF93EF93FF93E091040221
:100C6000F09105021995FF91EF91BF91AF919F917E
:100C70008F917F916F915F914F913F912F910F9045
:100C80000BBE0F900FBE0F901F9018951F920F92E2
:100C90000FB60F9211240BB60F922F933F934F93E1
:100CA0005F936F937F938F939F93AF93BF93EF93D4
:100CB000FF9380914202909143028093B200809111
:100CC000450290914602A0914702B09148020196D8
:100CD000A11DB11D8093450290934602A093470247
:100CE000B09348028091450290914602A09147023C
:100CF000B091480240913E0250913F026091400203
:100D00007091410284179507A607B70710F18091EB
:100D1000440281111EC081E080934402809145020B
:100D200090914602A0914702B0914802841B950B16
:100D3000A60BB70B8093450290934602A0934702FF
:100D4000B0934802E0913C02F0913D021995109257
:100D50004402FF91EF91BF91AF919F918F917F914D
:100D60006F915F914F913F912F910F900BBE0F901C
:100D70000FBE0F901F901895789484B5826084BD43
:100D800084B5816084BD85B5826085BD85B581608F
:100D900085BD80916E00816080936E00109281000D
:100DA00080918100826080938100809181008160C8
:100DB0008093810080918000816080938000809189
:100DC000B10084608093B1008091B0008160809315
:100DD000B000809191008260809391008091910099
:100DE0008160809391008091900081608093900059
:100DF0008091A10082608093A1008091A100816018
:100E00008093A1008091A00081608093A0008091D8
:100E10002101826080932101809121018160809372
:100E200021018091200181608093200180917A00CE
:100E3000846080937A0080917A00826080937A0047
:100E400080917A00816080937A0080917A00806836
:100E500080937A001092C10060E082E00E944D030E
:100E600061E08CE00E944D0361E08BE00E944D0345
:100E700061E08CE00E94C10260E08BE00E94C10250
:100E800061E08DE00E944D03E5E6F2E0E491E1507F
:100E9000E23108F064C1F0E08827EE5AF84F8F4F36
:100EA0000C94340A64070208080814082008AF08E4
:100EB0002C0835083E084A085608620873087F085F
:100EC000AF088B089708A30884B5806884BD82E3C7
:100ED00087BD83E891E090930102809300028091A6
:100EE0006A00836080936A00EC9A84EF91E0A0E04E
:100EF000B0E080933E0290933F02A0934002B093F3
:100F0000410281E194E090933D0280933C02809104
:100F100070008E7F809370008091B0008C7F8093F2
:100F2000B0008091B100877F8093B1008091B600BE
:100F30008F7D8093B600809170008D7F80937000CC
:100F40008091B10084608093B1008091B1008C7F6A
:100F50008093B10086E090E0909343028093420238
:100F600010924502109246021092470210924802D7
:100F70001092440280914202909143028093B20009
:100F800080917000816080937000E0916202F09126
:100F9000630282E08083E0916202F091630210823A
:100FA000E0915E02F0915F021082E0916002F091A8
:100FB000610280E1808310926A02E0916602F09102
:100FC000670286E08083E0916402F091650280818F
:100FD00080618083E0916402F09165028081886085
:100FE0008083E0916402F091650280818068808353
:100FF000E0916402F091650280818F7D80830E9480
:101000009002FDCF84B5806284BD82E388BD61CF4C
:101010008091800080688093800082E390E09093CC
:1010200089008093880055CF8091800080628093F2
:10103000800082E390E090938B0080938A0049CFF8
:101040008091800088608093800082E390E090939C
:101050008D0080938C003DCF8091B000806880939C
:10106000B00082E38093B30034CF8091B0008062FF
:101070008093B00082E38093B4002BCF80919000E6
:1010800080688093900082E390E090939900809331
:1010900098001FCF8091900080628093900082E33F
:1010A00090E090939B0080939A0013CF80919000E2
:1010B00088608093900082E390E090939D008093FD
:1010C0009C0007CF8091A00080688093A000809151
:1010D000A0008F7B8093A00082E390E09093A90012
:1010E0008093A800F6CE8091A00080628093A0003B
:1010F00082E390E09093AB008093AA00EACE8091C7
:10110000A00088608093A00082E390E09093AD00FF
:101110008093AC00DECE8091200180688093200116
:1011200082E390E09093290180932801D2CE8091B0
:10113000200180628093200182E390E090932B0154
:1011400080932A01C6CE809120018860809320017F
:1011500082E390E090932D0180932C01BACE60E061
:101160008DE00E94C102B5CEE2E5F2E01382128268
:1011700088EE93E0A0E0B0E084839583A683B783F4
:1011800084E192E09183808385EC90E09587848769
:1011900084EC90E09787868780EC90E0918B808B41
:1011A00081EC90E0938B828B82EC90E0958B848B2A
:1011B00086EC90E0978B868B118E128E138E148E98
:1011C00008955058BB27AA270E94F9080C94D80903
:1011D0000E94CA0938F00E94D10920F039F49F3FDB
:1011E00019F426F40C94C7090EF4E095E7FB0C946F
:1011F000C109E92F0E94E90958F3BA17620773077A
:101200008407950720F079F4A6F50C940B0A0EF4E8
:10121000E0950B2EBA2FA02D0B01B90190010C0106
:10122000CA01A0011124FF27591B99F0593F50F41E
:10123000503E68F11A16F040A22F232F342F442776
:10124000585FF3CF469537952795A795F04053956E
:10125000C9F77EF41F16BA0B620B730B840BBAF03E
:101260009150A1F0FF0FBB1F661F771F881FC2F7A9
:101270000EC0BA0F621F731F841F48F487957795BD
:101280006795B795F7959E3F08F0B0CF9395880F77
:1012900008F09927EE0F9795879508950E945509B4
:1012A0006894B1110C940C0A08950E94F10988F019
:1012B0009F5798F0B92F9927B751B0F0E1F0660F1A
:1012C000771F881F991F1AF0BA95C9F714C0B1305B
:1012D00091F00E940B0AB1E008950C940B0A672F5D
:1012E000782F8827B85F39F0B93FCCF3869577958A
:1012F0006795B395D9F73EF4909580957095619573
:101300007F4F8F4F9F4F0895E89409C097FB3EF49D
:1013100090958095709561957F4F8F4F9F4F992342
:10132000A9F0F92F96E9BB279395F69587957795C0
:101330006795B795F111F8CFFAF4BB0F11F460FF80
:101340001BC06F5F7F4F8F4F9F4F16C0882311F0D8
:1013500096E911C0772321F09EE8872F762F05C0EC
:10136000662371F096E8862F70E060E02AF09A9587
:10137000660F771F881FDAF7880F9695879597F97C
:10138000089597F99F6780E870E060E008959FEF07
:1013900080EC089500240A9416161706180609060C
:1013A000089500240A9412161306140605060895DB
:1013B000092E0394000C11F4882352F0BB0F40F463
:1013C000BF2B11F460FF04C06F5F7F4F8F4F9F4FA3
:1013D000089557FD9058440F551F59F05F3F71F025
:1013E0004795880F97FB991F61F09F3F79F087958C
:1013F0000895121613061406551FF2CF4695F1DF15
:1014000008C0161617061806991FF1CF86957105A4
:10141000610508940895E894BB2766277727CB01D8
:1014200097F90895A1E21A2EAA1BBB1BFD010DC05E
:10143000AA1FBB1FEE1FFF1FA217B307E407F50784
:1014400020F0A21BB30BE40BF50B661F771F881F60
:10145000991F1A9469F760957095809590959B01F6
:10146000AC01BD01CF010895EE0FFF1F881F8BBF98
:0C1470000790F691E02D1994F894FFCF3E
:10147C007E037E037E037E037E037E037E037E0358
:10148C000000000023028D01BA017002EB01C901BA
:10149C00DD010D0A004D3A200070756C73652063F8
:0814AC006F756E743A20000018
:00000001FF
