:100000000C945F010C940C090C94E1080C94B60854
:100010000C948B080C9460080C9435080C940A0816
:100020000C94DF070C9490010C9490010C949001B7
:100030000C9490010C9490010C9490010C9437094D
:100040000C9490010C9490010C9490010C949001EC
:100050000C9490010C9490010C9490010C949507D1
:100060000C9490010C945F070C9435070C9490014C
:100070000C9490010C9490010C9490010C949001BC
:100080000C9490010C9490010C9490010C949001AC
:100090000C9490010C9490010C9490010C9490019C
:1000A0000C9490010C9490010C9490010C9490018C
:1000B0000C9490010C9490010C9490010C9490017C
:1000C0000C9490010C9490010C9490010C9490016C
:1000D0000C9490010C9490010C9490010C9490015C
:1000E0000C9490010C940F040C9447030C9492010F
:1000F0000C9429040C946A040C945E030C947A0307
:100100000C94E4030C943B030C94530B0C941002DA
:100110000C9456020C9454030C947E040C94170413
:100120000C94FC010C943D040C9474040C94620334
:100130000C9460040C9443030C9476030C94A30277
:100140000C94EC030C944A030C945A030C9433045F
:100150000C941F040C94C0010C946C030C94680361
:100160000C9470030C9405040C9484040C94A90161
:100170000C94FB030C944C040C941E020C94560437
:100180000C9429030C9450030C9424030C94D7056D
:100190000C94F1030C943F030C94ED01000020003B
:1001A0002300260029002C002F003200000100004F
:1001B00003010601090100002100240027002A0094
:1001C0002D003000330001010000040107010A0185
:1001D00000002200250028002B002E0031003400F2
:1001E00002010000050108010B01050505050705D1
:1001F00008080808020202020A0A080804040404A3
:1002000001010101010101010303030303030303CE
:10021000040707070C0C0C0C0C0C0C0C020202025D
:1002200006060606060606060B0B0B0B0B0B0B0B46
:1002300001021020200808102040102040800201F8
:1002400002010804020101020408102040808040DD
:1002500020100804020180040201804020100804DC
:10026000020108040201010204081020408001027A
:1002700004081020408000000A0B02090C0D0E0833
:10028000070304010000000000000000000000005F
:10029000000000000000000000000000000000005E
:1002A000000012111000000000000000000000001B
:1002B000000000000000000000000000530B1124AB
:1002C0001FBECFEFD1E2DEBFCDBF00E00CBF12E01A
:1002D000A0E0B2E0EEEDFBE100E00BBF02C0079052
:1002E0000D92A035B107D9F723E0A0E5B2E001C037
:1002F0001D92A532B207E1F711E0CFE5D1E000E0B1
:1003000006C021970109802FFE010E94E50DCE3520
:10031000D10780E00807A9F70E94F2090C94ED0DBF
:100320000C940000609168027091690280916A02E9
:1003300090916B0220E030E040E85FE30E94810B87
:10034000609368027093690280936A0290936B02D3
:10035000089560916C0270916D0280916E0290918F
:100360006F0220E030E040E85FE30E94810B609381
:100370006C0270936D0280936E0290936F020895E9
:10038000AF92BF92CF92DF92EF92FF920F931F93A3
:10039000CF93DF936C017B018B01040F151FEB01E1
:1003A0005E01AE18BF08C017D10759F06991D60198
:1003B000ED91FC910190F081E02DC6011995892BFA
:1003C00079F7C501DF91CF911F910F91FF90EF90C9
:1003D000DF90CF90BF90AF900895FC01538D448D76
:1003E000252F30E0842F90E0821B930B541710F0E0
:1003F000CF96089501970895FC01918D828D9817ED
:1004000061F0A28DAE0FBF2FB11D5D968C91928DC4
:100410009F5F9F73928F90E008958FEF9FEF0895F5
:10042000FC01918D828D981731F0828DE80FF11DBE
:10043000858D90E008958FEF9FEF0895FC01918DD9
:10044000228D892F90E0805C9F4F821B91098F73D2
:100450009927089588E892E00E941E0221E0892BE6
:1004600009F420E0822F0895FC01A48DA80FB92F74
:10047000B11DA35ABF4F2C91848D90E001968F73CC
:100480009927848FA689B7892C93A089B1898C91EB
:10049000837080648C93938D848D981306C002883A
:1004A000F389E02D80818F7D80830895EF92FF9204
:1004B0000F931F93CF93DF93EC0181E0888F9B8D87
:1004C0008C8D98131AC0E889F989808185FF15C041
:1004D0009FB7F894EE89FF896083E889F989808164
:1004E0008370806480839FBF81E090E0DF91CF9133
:1004F0001F910F91FF90EF900895F62E0B8D10E055
:100500000F5F1F4F0F731127E02E8C8D8E110CC0C3
:100510000FB607FCFACFE889F989808185FFF5CF0E
:10052000CE010E943402F1CFEB8DEC0FFD2FF11DB7
:10053000E35AFF4FF0829FB7F8940B8FEA89FB894B
:1005400080818062CFCFCF93DF93EC01888D8823A9
:10055000B9F0AA89BB89E889F9898C9185FD03C026
:10056000808186FD0DC00FB607FCF7CF8C9185FF0B
:10057000F2CF808185FFEDCFCE010E943402E9CF1A
:10058000DF91CF91089580E090E0892B29F00E94BF
:100590002A0281110E94000080E090E0892B49F03E
:1005A00080E090E0892B29F00E94000081110E94D8
:1005B000000080E090E0892B49F080E090E0892BFA
:1005C00029F00E94000081110E94000080E090E06C
:1005D000892B49F080E090E0892B29F00E940000EF
:1005E00081110C9400000895282F30E0F901EA5899
:1005F000FD4F9491F901E05DFD4F449126513E4F2E
:10060000F9012491222309F435C0992311F1915065
:100610009231F8F4E92FF0E08827EE5EFC4F8F4F1F
:100620000C94E50D4303470324033B033F032903D5
:100630004A03500354035A035E03620368036C03C6
:100640002903700376037A03809180008F7780936B
:100650008000E22FF0E0EE0FFF1FE053FE4FA59168
:10066000B4918FB7F894EC91611148C040954E2336
:100670004C938FBF0895809180008F7DE8CF80914B
:100680008000877FE4CF84B58F7784BDE2CF84B5C7
:100690008F7DFBCF8091B0008F778093B000D9CF52
:1006A0008091B0008F7DF9CF809190008F778093FB
:1006B0009000CFCF809190008F7DF9CF80919000F6
:1006C000877FF5CF8091A0008F778093A000C1CF66
:1006D0008091A0008F7DF9CF8091A000877FF5CF1A
:1006E000809120018F7780932001B3CF80912001EA
:1006F0008F7DF9CF80912001877FF5CF4E2BB8CF2A
:10070000CF93DF9390E0FC01E05DFD4F2491865193
:100710009E4FFC0184918823D1F090E0880F991FAF
:10072000FC01EA54FE4FA591B491FC01E053FE4F49
:10073000C591D49161110EC09FB7F8948C91E22FAE
:10074000E0958E238C932881E223E8839FBFDF917D
:10075000CF9108958FB7F894EC91E22BEC938FBF73
:10076000F6CF1F93CF93DF93182FEB0161E00E9428
:100770008003209739F460E0812FDF91CF911F91A2
:100780000C94F402E12FF0E0EA58FD4FE491E150BF
:10079000E23108F0B3C0F0E08827EE52FC4F8F4FF3
:1007A0000C94E50DE403EC03F103FB0305047E0464
:1007B0000F0417041F04290433043D044C04560499
:1007C0007E0460046A04740484B5806884BDC7BD77
:1007D000DF91CF911F91089584B5806284BDC8BD1B
:1007E000F7CF80918000806880938000D09389004B
:1007F000C0938800EDCF809180008062809380005C
:10080000D0938B00C0938A00E3CF809180008860F2
:1008100080938000D0938D00C0938C00D9CF8091BD
:10082000B00080688093B000C093B300D1CF8091B6
:10083000B00080628093B000C093B400C9CF8091B3
:100840009000806880939000D0939900C0939800A6
:10085000BFCF80919000806280939000D0939B00E6
:10086000C0939A00B5CF80919000886080939000EB
:10087000D0939D00C0939C00ABCF8091A000806876
:100880008093A0008091A0008F7B8093A000D093E4
:10089000A900C093A8009CCF8091A00080628093A3
:1008A000A000D093AB00C093AA0092CF8091A0008B
:1008B00088608093A000D093AD00C093AC0088CF37
:1008C00080912001806880932001D0932901C093FA
:1008D00028017ECF80912001806280932001D093F7
:1008E0002B01C0932A0174CF8091200188608093EE
:1008F0002001D0932D01C0932C016ACFC038D105BF
:100900000CF439CF61E038CF0895CF93DF93EB013A
:10091000BC0186E00E94B103BE0188E0DF91CF9167
:100920000C94B103FC0101900020E9F73197AF016D
:10093000481B590BBC0188E892E00C94C0018F92CF
:100940009F92AF92BF920F931F93CF93DF93CDB738
:10095000DEB7A1970FB6F894DEBF0FBECDBF19A2C8
:10096000423008F44AE08E010F5D1F4F842E912C17
:10097000B12CA12CA50194010E94C30DE62FB90151
:10098000CA01EA30F4F4E05DD801EE938D01232B27
:10099000242B252B79F790E080E0109719F0CD01FA
:1009A0000E949204A1960FB6F894DEBF0FBECDBF91
:1009B000DF91CF911F910F91BF90AF909F908F903B
:1009C0000895E95CE1CF4F925F926F927F928F9290
:1009D0009F92AF92BF92CF92DF92EF92FF926B0104
:1009E0007C01AC019B010E94BE0D8823C1F082E214
:1009F00092E00E9492047C018EE292E00E949204B6
:100A00008E0D9F1DFF90EF90DF90CF90BF90AF9025
:100A10009F908F907F906F905F904F9008954601C8
:100A20005701E894B7F82FEF3FEF4FE75FE7C501B5
:100A3000B4010E94BE0D81110DC02FEF3FEF4FE7B3
:100A40005FE7C501B4010E94ED0B18161CF486E2A5
:100A500092E0CFCF2FEF3FEF4FE75FE4C701B60142
:100A60000E944C0D18161CF48AE292E0C2CF2FEFC0
:100A70003FEF4FE75FECC701B6010E94ED0B87FD2A
:100A8000F3CF20E030E0A901C701B6010E94ED0BD1
:100A9000B12CA12C87FF0AC06DE288E892E00E9489
:100AA00056025C01F7FAF094F7F8F0942AE037ED7B
:100AB00043EA5BE3C701B6010E94810B2B013C01B5
:100AC0000E946B0C6B017C010E949A0C9B01AC0193
:100AD000C301B2010E94800B2B013C014AE0C70117
:100AE000B6010E949F047C01EA0CFB1C6EE288E8C0
:100AF00092E00E945602E80EF91E20E030E040E24B
:100B000051E4C301B2010E94510D2B013C010E942E
:100B10006B0C4B01B12CA12C4AE0C501B4010E9421
:100B20009F04E80EF91EC501B4010E949A0C9B01B6
:100B3000AC01C301B2010E94800B20E030E040E232
:100B400051E40E94510D0E946B0C90E080E04AE05D
:100B50000E949F04E80EF91E4FCF81E392E00E94AD
:100B6000920460915E0270915F02809160029091A8
:100B700061020E94E3048DE392E00E94920460917E
:100B80005A0270915B0280915C0290915D020E941A
:100B9000E30489E492E00E9492046091560270910D
:100BA000570280915802909159020C94E3048F925D
:100BB0009F92AF92BF92CF92DF92EF92FF920F93EC
:100BC0001F93609168027091690280916A0290910E
:100BD0006B0220E030E041EE54E40E94F20B20E092
:100BE00030E040EF52E40E94510D0E94640C70937B
:100BF00067026093660260916C0270916D02809151
:100C00006E0290916F0220E030E041EE54E40E94C9
:100C1000F20B20E030E040EF52E40E94510D0E94C0
:100C2000640C7093650260936402809166029091F7
:100C300067022091640230916502820F931F97FD35
:100C4000019695958795909363028093620260E088
:100C500085E20E94F40283E090E00197F1F761E001
:100C600085E20E94F40283E290E00197F1F760E0F0
:100C700085E20E94F402E1E5F2E06491EBE0F2E04B
:100C8000E491F0E0EE0FFF1FE456FE4F8591949142
:100C900000E412E42FE030E0462F0E94AD09611518
:100CA00071058105910529F06F5F7F4F8F4F9F4F31
:100CB0009F700E949A0C20E030E04AEA53E40E94C0
:100CC000510D20E030E44CE156E40E94F20B20E0AC
:100CD00030E040E05FE30E94510D6B017C01C09267
:100CE0005E02D0925F02E0926002F092610220E028
:100CF00030E040E252E40E94ED0B18160CF4B0C054
:100D000081E090E090938702809386026091620276
:100D100070916302072E000C880B990B0E949C0CAB
:100D200023E333E343ED50E40E94510D28ED3FE00F
:100D300049E450E40E94510D20E030E040E752E4E5
:100D40000E94F20B9B01AC0120935A0230935B028C
:100D500040935C0250935D02C701B6010E94F20B02
:100D600020E030E040E85FE30E94800B4B015C0133
:100D700020E030E0A9010E94ED0B87FD47C0809282
:100D8000560290925702A0925802B0925902809057
:100D9000560290905702A0905802B090590220E05D
:100DA00030E040E450E4C501B4010E94ED0B181698
:100DB000B4F170E060E090E080E00E94850420E003
:100DC00030E048E452E4C701B6010E94ED0B18166A
:100DD000B4F70E94AD051092680210926902109259
:100DE0006A0210926B0210926C0210926D021092C5
:100DF0006E0210926F021F910F91FF90EF90DF90A3
:100E0000CF90BF90AF909F908F9008951092560210
:100E1000109257021092580210925902B8CF20E057
:100E200030E040E850E4C501B4010E94ED0B181613
:100E30003CF062E370E082E390E00E948504C9CF59
:100E400020E030E040EA50E4C501B4010E94ED0B1F
:100E500018160CF4BECF60E570E080E590E0EDCFB1
:100E60001092870210928602B4CF1F920F920FB693
:100E70000F9211240BB60F922F933F934F935F93D2
:100E80006F937F938F939F93AF93BF93EF93FF9352
:100E900088E892E00E943402FF91EF91BF91AF91F8
:100EA0009F918F917F916F915F914F913F912F9182
:100EB0000F900BBE0F900FBE0F901F9018951F92B2
:100EC0000F920FB60F9211240BB60F922F938F93A0
:100ED0009F93EF93FF93E0919802F09199028081A4
:100EE000E0919E02F0919F0282FD1DC09081809151
:100EF000A1028F5F8F732091A202821741F0E091CF
:100F0000A102F0E0E857FD4F958F8093A102FF9179
:100F1000EF919F918F912F910F900BBE0F900FBE6D
:100F20000F901F9018958081F2CF1F920F920FB6ED
:100F30000F9211242F933F938F939F93AF93BF935F
:100F40008091750290917602A0917702B09178021B
:100F50003091740223E0230F2D3758F50196A11D1F
:100F6000B11D209374028093750290937602A09332
:100F70007702B09378028091700290917102A091F3
:100F80007202B09173020196A11DB11D809370028F
:100F900090937102A0937202B0937302BF91AF91CC
:100FA0009F918F913F912F910F900FBE0F901F90A7
:100FB000189526E8230F0296A11DB11DD2CF1F92CE
:100FC0000F920FB60F9211240BB60F922F933F93EF
:100FD0004F935F936F937F938F939F93AF93BF9341
:100FE000EF93FF93E0910E02F0910F021995FF919C
:100FF000EF91BF91AF919F918F917F916F915F9191
:101000004F913F912F910F900BBE0F900FBE0F90FD
:101010001F9018951F920F920FB60F9211240BB6C6
:101020000F922F933F934F935F936F937F938F9381
:101030009F93AF93BF93EF93FF93E0910C02F091D6
:101040000D021995FF91EF91BF91AF919F918F91F3
:101050007F916F915F914F913F912F910F900BBEB8
:101060000F900FBE0F901F9018951F920F920FB602
:101070000F9211240BB60F922F933F934F935F93D0
:101080006F937F938F939F93AF93BF93EF93FF9350
:10109000E0910202F09103021995FF91EF91BF9147
:1010A000AF919F918F917F916F915F914F913F9100
:1010B0002F910F900BBE0F900FBE0F901F901895A1
:1010C0001F920F920FB60F9211240BB60F922F930F
:1010D0003F934F935F936F937F938F939F93AF93C0
:1010E000BF93EF93FF93E0910002F09101021995F5
:1010F000FF91EF91BF91AF919F918F917F916F91F0
:101100005F914F913F912F910F900BBE0F900FBEAB
:101110000F901F9018951F920F920FB60F921124E7
:101120000BB60F922F933F934F935F936F937F93E1
:101130008F939F93AF93BF93EF93FF93E0910A0236
:10114000F0910B021995FF91EF91BF91AF919F9193
:101150008F917F916F915F914F913F912F910F9060
:101160000BBE0F900FBE0F901F9018951F920F92FD
:101170000FB60F9211240BB60F922F933F934F93FC
:101180005F936F937F938F939F93AF93BF93EF93EF
:10119000FF93E0910802F09109021995FF91EF91F8
:1011A000BF91AF919F918F917F916F915F914F917F
:1011B0003F912F910F900BBE0F900FBE0F901F907D
:1011C00018951F920F920FB60F9211240BB60F9223
:1011D0002F933F934F935F936F937F938F939F933F
:1011E000AF93BF93EF93FF93E0910602F091070254
:1011F0001995FF91EF91BF91AF919F918F917F9141
:101200006F915F914F913F912F910F900BBE0F9077
:101210000FBE0F901F9018951F920F920FB60F924E
:1012200011240BB60F922F933F934F935F936F93BD
:101230007F938F939F93AF93BF93EF93FF93E0912F
:101240000402F09105021995FF91EF91BF91AF91C2
:101250009F918F917F916F915F914F913F912F91CE
:101260000F900BBE0F900FBE0F901F9018951F92FE
:101270000F920FB60F9211240BB60F922F933F933C
:101280004F935F936F937F938F939F93AF93BF938E
:10129000EF93FF9380917F02909180028093B20040
:1012A0008091820290918302A0918402B091850284
:1012B0000196A11DB11D8093820290938302A09399
:1012C0008402B09385028091820290918302A09162
:1012D0008402B091850240917B0250917C02609122
:1012E0007D0270917E0284179507A607B70710F15B
:1012F0008091810281111EC081E0809381028091E2
:10130000820290918302A0918402B0918502841B95
:10131000950BA60BB70B8093820290938302A09348
:101320008402B0938502E0917902F0917A021995D6
:1013300010928102FF91EF91BF91AF919F918F9198
:101340007F916F915F914F913F912F910F900BBEC5
:101350000F900FBE0F901F901895CF92DF92EF92D3
:10136000FF920F931F93E82FF92F05C00150110929
:101370002109310961F1908196239417B9F305C0D1
:10138000015011092109310911F19081962394131B
:10139000F7CFC12CD12CE12CF12C0AC08FEFC81A49
:1013A000D80AE80AF80A0C151D052E053F0579F044
:1013B00080818623841791F36C2D7D2D8E2D9F2D9A
:1013C0001F910F91FF90EF90DF90CF90089560E014
:1013D00070E080E090E01F910F91FF90EF90DF9020
:1013E000CF900895789484B5826084BD84B581607F
:1013F00084BD85B5826085BD85B5816085BD8091E0
:101400006E00816080936E00109281008091810057
:10141000826080938100809181008160809381004F
:10142000809180008160809380008091B100846011
:101430008093B1008091B00081608093B000809172
:1014400091008260809391008091910081608093EF
:101450009100809190008160809390008091A10024
:1014600082608093A1008091A10081608093A1009F
:101470008091A00081608093A00080912101826012
:1014800080932101809121018160809321018091CD
:10149000200181608093200180917A008460809394
:1014A0007A0080917A00826080937A0080917A003D
:1014B000816080937A0080917A00806880937A00BE
:1014C0001092C10060E082E10E94800361E086E04A
:1014D0000E94800361E08BE00E94800361E08CE069
:1014E0000E94800360E085E10E94800361E088E063
:1014F0000E94800361E087E00E94800361E089E050
:101500000E94800361E085E20E94800360E081E246
:101510000E94800382E991E090930B0280930A027B
:1015200080916900806C80936900EB9A89EA91E070
:1015300090930502809304028091690083608093F8
:101540006900E89A84EF91E0A0E0B0E080937B022C
:1015500090937C02A0937D02B0937E0287ED95E08C
:1015600090937A0280937902809170008E7F8093AD
:1015700070008091B0008C7F8093B0008091B100AA
:10158000877F8093B1008091B6008F7D8093B600F5
:10159000809170008D7F809370008091B100846095
:1015A0008093B1008091B1008C7F8093B10086E080
:1015B00090E09093800280937F02109282021092BA
:1015C000830210928402109285021092810280910F
:1015D0007F02909180028093B200809170008160C0
:1015E000809370006AEA70E08AEA90E00E948504C5
:1015F00061E08BE00E94F40260E08CE00E94F40263
:1016000061E089E00E94F40260E087E00E94F40259
:10161000E0919802F091990282E08083E091980233
:10162000F09199021082E0919402F091950210825B
:10163000E0919602F091970280E180831092A002DF
:10164000E0919C02F0919D0286E08083E0919A02F5
:10165000F0919B02808180618083E0919A02F091F9
:101660009B02808188608083E0919A02F0919B02C6
:10167000808180688083E0919A02F0919B02808152
:101680008F7D80838091860290918702892B41F41F
:101690006AEA70E08AEA90E00E9485040E94AD0543
:1016A0000E94C302EFCFE8E8F2E01382128288EED4
:1016B00093E0A0E0B0E084839583A683B78384E1C0
:1016C00092E09183808385EC90E09587848784EC19
:1016D00090E09787868780EC90E0918B808B81ECFF
:1016E00090E0938B828B82EC90E0958B848B86ECE0
:1016F00090E0978B868B118E128E138E148E089528
:101700005058BB27AA270E94980B0C94120D0E94D8
:10171000040D38F00E940B0D20F039F49F3F19F4AE
:1017200026F40C94010D0EF4E095E7FB0C94FB0CF1
:10173000E92F0E94230D58F3BA1762077307840735
:10174000950720F079F4A6F50C94450D0EF4E0957C
:101750000B2EBA2FA02D0B01B90190010C01CA016B
:10176000A0011124FF27591B99F0593F50F4503E16
:1017700068F11A16F040A22F232F342F4427585F08
:10178000F3CF469537952795A795F0405395C9F720
:101790007EF41F16BA0B620B730B840BBAF09150D8
:1017A000A1F0FF0FBB1F661F771F881FC2F70EC077
:1017B000BA0F621F731F841F48F48795779567954A
:1017C000B795F7959E3F08F0B0CF9395880F08F036
:1017D0009927EE0F9795879508950E94D70C08F4E6
:1017E00081E008950E94060C0C94120D0E940B0DCE
:1017F00058F00E94040D40F029F45F3F29F00C944A
:10180000FB0C51110C94460D0C94010D0E94230DFC
:1018100068F39923B1F3552391F3951B550BBB271F
:10182000AA2762177307840738F09F5F5F4F220F64
:10183000331F441FAA1FA9F335D00E2E3AF0E0E85B
:1018400032D091505040E695001CCAF72BD0FE2FA5
:1018500029D0660F771F881FBB1F26173707480739
:10186000AB07B0E809F0BB0B802DBF01FF279358F1
:101870005F4F3AF09E3F510578F00C94FB0C0C94AE
:10188000460D5F3FE4F3983ED4F3869577956795D0
:10189000B795F7959F5FC9F7880F911D9695879526
:1018A00097F90895E1E0660F771F881FBB1F621745
:1018B00073078407BA0720F0621B730B840BBA0B03
:1018C000EE1F88F7E09508950E946B0C6894B111A3
:1018D0000C94460D08950E942B0D88F09F5798F0A8
:1018E000B92F9927B751B0F0E1F0660F771F881F25
:1018F000991F1AF0BA95C9F714C0B13091F00E943F
:10190000450DB1E008950C94450D672F782F882779
:10191000B85F39F0B93FCCF3869577956795B39565
:10192000D9F73EF490958095709561957F4F8F4FD4
:101930009F4F0895E89409C097FB3EF490958095D9
:10194000709561957F4F8F4F9F4F9923A9F0F92F85
:1019500096E9BB279395F695879577956795B79503
:10196000F111F8CFFAF4BB0F11F460FF1BC06F5FE9
:101970007F4F8F4F9F4F16C0882311F096E911C0FB
:10198000772321F09EE8872F762F05C0662371F01C
:1019900096E8862F70E060E02AF09A95660F771F30
:1019A000881FDAF7880F9695879597F90895990F0C
:1019B0000008550FAA0BE0E8FEEF16161706E80719
:1019C000F907C0F012161306E407F50798F0621B3A
:1019D000730B840B950B39F40A2661F0232B242B0F
:1019E000252B21F408950A2609F4A140A6958FEF2E
:1019F000811D811D089597F99F6780E870E060E080
:101A000008959FEF80EC089500240A941616170697
:101A100018060906089500240A94121613061406DF
:101A200005060895092E0394000C11F4882352F042
:101A3000BB0F40F4BF2B11F460FF04C06F5F7F4FFA
:101A40008F4F9F4F089557FD9058440F551F59F0E1
:101A50005F3F71F04795880F97FB991F61F09F3F9B
:101A600079F087950895121613061406551FF2CFC4
:101A70004695F1DF08C0161617061806991FF1CF14
:101A800086957105610508940895E894BB2766273B
:101A90007727CB0197F908950E94D70C08F48FEFB0
:101AA00008950E94640D0C94120D0E94040D38F0EC
:101AB0000E940B0D20F0952311F00C94FB0C0C945C
:101AC000010D11240C94460D0E94230D70F3959F77
:101AD000C1F3950F50E0551F629FF001729FBB2725
:101AE000F00DB11D639FAA27F00DB11DAA1F649FC1
:101AF0006627B00DA11D661F829F2227B00DA11D74
:101B0000621F739FB00DA11D621F839FA00D611DF9
:101B1000221F749F3327A00D611D231F849F600D1A
:101B2000211D822F762F6A2F11249F5750409AF043
:101B3000F1F088234AF0EE0FFF1FBB1F661F771FCF
:101B4000881F91505040A9F79E3F510580F00C949A
:101B5000FB0C0C94460D5F3FE4F3983ED4F386955E
:101B600077956795B795F795E7959F5FC1F7FE2B3A
:101B7000880F911D9695879597F908950E94D70C27
:101B8000880B990B0895A1E21A2EAA1BBB1BFD011D
:101B90000DC0AA1FBB1FEE1FFF1FA217B307E4074C
:101BA000F50720F0A21BB30BE40BF50B661F771FA4
:101BB000881F991F1A9469F7609570958095909584
:101BC0009B01AC01BD01CF010895EE0FFF1F881FDF
:0E1BD0008BBF0790F691E02D1994F894FFCF8B
:101BDE0084048404840484048404840484048404B7
:101BEE00000000005602C001ED01A3021E02FC011E
:101BFE0010026E616E00696E66006F7666000D0AE9
:101C0E000064697374616E6365203A200076656CBA
:101C1E006F63697479203A2000747463203A20004F
:00000001FF
